:1000000000180020C1000000A983000075830000D3
:100010007583000075830000758300007583000000
:10002000758300007583000075830000A9830000BC
:10003000A983000075830000A98300006583000088
:10004000A9830000A9830000A9830000A983000000
:10005000A9830000A9830000A9830000A9830000F0
:10006000D54E0000A9830000A9830000A9830000E9
:100070002D9800000D9C0000ED9F0000A98300005A
:10008000A9830000A983000071790000A983000002
:10009000A9830000A9830000A9830000A9830000B0
:1000A00099890000A9830000A9830000A9830000AA
:1000B00071770000A9830000A9830000A9830000D4
:1000C00038B508F075F9434A434B1A60434A444B2C
:1000D0001A60444A444B1A60444B08221978114272
:1000E00002D019780A431A70414B2A221A70002351
:1000F000404A41499A188A4204D24049C9580433B7
:100100001160F5E73E4B3F491A1F181D00238A4234
:1001100002D21360031CF6E73B493C4A5958101CB5
:1001200099500433C02BF7D100239A083849920024
:10013000521803211940C9001568FF248C40A543BB
:100140002C1C80258D40291C214301331160202B5C
:10015000EBD1304B8A2218602F4B1A702F4B242280
:100160001A702F4BA0221A701A1C2E4B1978880770
:10017000FBD51978CD06FCD418780C21014008294C
:10018000FAD12949032008702849402008701978BD
:100190008806FCD519784D06FCD525492548086008
:1001A0002021117019780C220A400C2AFAD1224A17
:1001B000224B1A60224A234B1A60234B07221A60F3
:1001C00062B608F0C3FA0DF0CFFB08F0F7F809F0BB
:1001D00081F8FEE7300004F034800440823F0000E4
:1001E000388004400100000F3C80044002D00740EA
:1001F00000E0074060FDFF1F00FFFF1F84F50000C7
:1002000004FFFF1F4C0D00200000000000F9FF1F3D
:1002100000E400E008ED00E0005006400140064028
:1002200000400640064006400440064005400640A7
:100230004480044000000110C00005050480044013
:100240007FBB000014E000E010E000E0FFFFFFFFD4
:10025000FFFFFFFFFFFFFFFFFFFFFFFFFFFFFFFFAE
:10026000FFFFFFFFFFFFFFFFFFFFFFFFFFFFFFFF9E
:10027000FFFFFFFFFFFFFFFFFFFFFFFFFFFFFFFF8E
:10028000FFFFFFFFFFFFFFFFFFFFFFFFFFFFFFFF7E
:10029000FFFFFFFFFFFFFFFFFFFFFFFFFFFFFFFF6E
:1002A000FFFFFFFFFFFFFFFFFFFFFFFFFFFFFFFF5E
:1002B000FFFFFFFFFFFFFFFFFFFFFFFFFFFFFFFF4E
:1002C000FFFFFFFFFFFFFFFFFFFFFFFFFFFFFFFF3E
:1002D000FFFFFFFFFFFFFFFFFFFFFFFFFFFFFFFF2E
:1002E000FFFFFFFFFFFFFFFFFFFFFFFFFFFFFFFF1E
:1002F000FFFFFFFFFFFFFFFFFFFFFFFFFFFFFFFF0E
:10030000FFFFFFFFFFFFFFFFFFFFFFFFFFFFFFFFFD
:10031000FFFFFFFFFFFFFFFFFFFFFFFFFFFFFFFFED
:10032000FFFFFFFFFFFFFFFFFFFFFFFFFFFFFFFFDD
:10033000FFFFFFFFFFFFFFFFFFFFFFFFFFFFFFFFCD
:10034000FFFFFFFFFFFFFFFFFFFFFFFFFFFFFFFFBD
:10035000FFFFFFFFFFFFFFFFFFFFFFFFFFFFFFFFAD
:10036000FFFFFFFFFFFFFFFFFFFFFFFFFFFFFFFF9D
:10037000FFFFFFFFFFFFFFFFFFFFFFFFFFFFFFFF8D
:10038000FFFFFFFFFFFFFFFFFFFFFFFFFFFFFFFF7D
:10039000FFFFFFFFFFFFFFFFFFFFFFFFFFFFFFFF6D
:1003A000FFFFFFFFFFFFFFFFFFFFFFFFFFFFFFFF5D
:1003B000FFFFFFFFFFFFFFFFFFFFFFFFFFFFFFFF4D
:1003C000FFFFFFFFFFFFFFFFFFFFFFFFFFFFFFFF3D
:1003D000FFFFFFFFFFFFFFFFFFFFFFFFFFFFFFFF2D
:1003E000FFFFFFFFFFFFFFFFFFFFFFFFFFFFFFFF1D
:1003F000FFFFFFFFFFFFFFFFFFFFFFFFFFFFFFFF0D
:10040000FFFFFFFFFFFFFFFFFFFFFFFFFEFFFFFFFD
:1004100010B5064C2378002B07D1054B002B02D0DA
:10042000044800E000BF0123237010BD00FFFF1F40
:100430000000000084F5000008B5084B002B03D035
:100440000748084900E000BF07480368002B03D0B5
:10045000064B002B00D0984708BDC04600000000A6
:1004600084F5000004FFFF1F00FFFF1F00000000D5
:10047000054A064913884B4305495B189BB218127D
:100480001380C318D8B27047E8FDFF1F05080000AD
:10049000193600004069704737B500246B461C7060
:1004A0005C709C7003680A1C1D6801AB1C705C705A
:1004B0009C706946A84737BD0020704708B50830D2
:1004C00005F03AFF08BD08B58C23DB00C01805F025
:1004D000EBFA08BD08B58C23DB00C01805F06DFBF6
:1004E00008BD10B58C24E400001905F027FB10BDF1
:1004F00010B58C24E400001905F0E9FB10BD08B527
:1005000007F072FE08BD07B56B46D9710733083096
:10051000191C012205F010FF0EBD38B5051C081C82
:100520000C1C07F089FF2B68021C5B68281C211C2F
:10053000984738BD08B5FFF7F0FF08BD08B5FFF7CD
:10054000ECFF08BD08B508F01FFF08BD38B503680B
:10055000041C1B689847051C201C08F0C3FE2818C3
:1005600038BD38B5041CFFF7D8FF051C201C08F067
:10057000B9FE281838BD38B5041CFFF7CEFF051C9E
:10058000201C08F0AFFE281838BD38B50A22002319
:10059000041C08F0B9FE051C201C08F0A3FE281856
:1005A00038BD38B5041C08F0EFFE051C201C08F00F
:1005B00099FE281838BD38B50A220023041C08F01B
:1005C000A3FE051C201C08F08DFE281838BD70B550
:1005D0000668041C301C0D1C07F006FE854203D083
:1005E000301C291C07F01AFE201C70BD30B5051CFC
:1005F0008BB001A80A1C0024291C0123047044703C
:1006000005F04BFE0BB030BD10B5131C034A0C1C9B
:100610001168221C05F041FE10BDC0466008002094
:10062000017870220023114202D0024B186001238E
:10063000181C704760080020F0B58DB003AC019223
:1006400000220B1C227062700A781C49071C451896
:100650002F2A14D15E78002E11D1281C05F016FE29
:10066000281C391C05F0D5FB002824D0019A01264E
:10067000002A20D0281CFFF7D3FF061C1BE01A1C01
:10068000201C291C012305F008FE061E13D0227829
:10069000702313400ED0094BFF180ECC0EC70ECCA2
:1006A0000EC70ECC0EC70199002904D0281CFFF7F5
:1006B000B7FF00E01E1C301C0DB0F0BD3C04000074
:1006C00038B5037F051C041C1C35002B02D0281CE8
:1006D00005F0DCFDA27E281C211CFFF795FF237F7F
:1006E0000120002B02D00023E37601E0E076181C05
:1006F00038BD08B5037F002B02D01C3005F0C6FDC5
:1007000008BD08B5017806F0D7FE08BD064B1A787B
:10071000072A01D907221A70044A1B7812785A4313
:10072000034B1A707047C04692FDFF1FA0FDFF1FCC
:100730006808002008B501210D2007F0BDFE6420E7
:1007400007F0EAFF0D20002107F0B6FE642007F055
:10075000E3FF08BD10B5084C0849201CFFF7EAFE6E
:10076000074B0A229968201C002308F0CDFD201CAD
:1007700008F0B8FD10BDC046780B002060E800000E
:10078000DC03002070B5C023214E9B00F418331CFD
:10079000FF221A705A709A700333A342F8D11D4D8C
:1007A000281CFFF7AEFF1C4807F0B6FF331CFF22E2
:1007B0001A7000225A709A700333A342F7D1281C92
:1007C000FFF79FFFFA20800007F0A6FF321C0023EE
:1007D000FF211370517093700332A242F7D1281C8D
:1007E000FFF78FFFFA20800007F096FF331C0022EE
:1007F0001A705A70FF229A700333A342F7D1281C53
:10080000FFF77FFFFA20800007F086FF70BDC0462B
:1008100074040020680800208813000010B5064CFE
:100820000649201C07F050FC002804D0FFF792FF77
:10083000201C07F01FF910BD3C040020DC03002041
:10084000134B1A78134B022A01D11E221DE0032AF2
:1008500001D13C2219E0042A02D19622520014E070
:10086000052A02D1E12292000FE0062A02D1E122FC
:10087000D2000AE0072A02D1E122120105E0082A8B
:1008800002D10122524200E00A221A607047C0469B
:1008900095FDFF1F8CFDFF1F10B5074C0620237828
:1008A000C821002B00D0FF2107F058FE2378012239
:1008B0005340237010BDC04654FFFF1F07B50E4BB9
:1008C00001A8197800230193FFF781FE0B4B01A8C3
:1008D000197801230193FFF77AFE094B01A81978D3
:1008E00002230193FFF773FE064B01A81978032337
:1008F0000193FFF76CFE07BD92FDFF1F56FFFF1F20
:1009000095FDFF1F59FFFF1FF0B53F483F49404F7E
:10091000404E0023404C03700B7087B03B703F4843
:100920005A23311C237007F0CFFB002869D03C4DBF
:100930003C49281CFFF7FEFDB168281CFFF73BFE71
:1009400039483A49B268066801230B708C46B242B6
:1009500006D14D232370364B1B680593059A09E099
:10096000344909688A4208D14E232370304B1B68F2
:100970000493049A304B1A6021E0304909688A4296
:1009800006D1502323702A4B1B680393039AF1E787
:10099000013229D126490A680292274A029E10682C
:1009A000361AF92E20D80968522001910199207039
:1009B0001160234A12784D2A1AD113490B701B4B30
:1009C0001B78002B0CD01F49281CFFF7B3FD2178A2
:1009D000281CFFF7BBFD2378522B01D0184A137057
:1009E0000E4807F047F80CE0002360460370E6E786
:1009F0004E2A02D1054A1370E1E7502ADFD13B703D
:100A0000DDE707B0F0BDC046B1070020700400204C
:100A1000D0070020DC030020140400203C04002048
:100A2000780B00206CE80000D803002040FFFF1F77
:100A3000800A00205CFFFF1F20040020F803002034
:100A40001C0400207FE8000008B50448037A002B4E
:100A500002D0083005F01AFC08BDC046440400204E
:100A6000002907D00B01CA0701D4C01801E0181AE9
:100A70000F30C0B27047FFFF38B51F4B1A1C2D3224
:100A80001D1C0024FF2119705C709C70033393427D
:100A9000F7D1E1B21020FFF7E3FF03235843FF2310
:100AA000281803700134002343708370102CF0D198
:100AB0001248EA181118FF2008701149033B50181A
:100AC000002101700F4812181170191C2D31EFD13F
:100AD0000F24E1B20020FFF7C3FF03235843FF2395
:100AE00028180370013C0023437083709C42F0D1AE
:100AF0000548FFF706FE38BD74040020FD02000023
:100B0000FE020000FF0200006808002008B5FFF7A1
:100B1000A7FF03235843044B1818FF2303704370A7
:100B20000023837008BDC0467404002038B500233C
:100B30004D48FF24C1180A1CC03214700C1C00223E
:100B4000C134C231033322700A70302BF0D18118C6
:100B50000C1C0023F034F2312370637003320B70ED
:100B6000A82149008A42F2D19024C218A400111988
:100B7000FF240C703D4903335518002129703C4D6A
:100B800052191170302BEFD107200621FFF7BEFF5D
:100B90000620011CFFF7BAFF05200621FFF7B6FF6C
:100BA00004200721FFF7B2FF05200821FFF7AEFF61
:100BB00006200821FFF7AAFF07200921FFF7A6FF5B
:100BC00006200A21FFF7A2FF05200A21FFF79EFF5A
:100BD00004200A21FFF79AFF09200621FFF796FF5C
:100BE0000A200621FFF792FF0B200721FFF78EFF57
:100BF0000B200821FFF78AFF0B200921FFF786FF52
:100C00000A20011CFFF782FF09200A21FFF77EFF5F
:100C100009200721FFF77AFF09200821FFF776FF57
:100C20000920011CFFF772FFFFF770FD1148FFF765
:100C300068FD002C0ADB211C062007F08FFCFFF763
:100C4000EDFD012007F068FD013CF2E70024211CC6
:100C5000062007F083FC0134FFF7E0FD012007F0D8
:100C60005BFDFF2CF3D1E4E7740400204102000097
:100C70004202000068080020054BC022920099182B
:100C800000221A705A709A7003338B42F8D1704761
:100C900074040020084A08B500231370074A11782D
:100CA000994202D01370064A1370FFF7E5FF05481A
:100CB000FFF727FD08BDC0469C0700202404002044
:100CC0004CFFFF1F6808002013B5112007F014FC2B
:100CD000144C012808D1102007F00EFC012803D184
:100CE000114A1378002B12D12378002B19D10E4B07
:100CF0001B78002B15D10D4B1B6801930C4B019AEF
:100D00001B6832339A420CD90123237009E0002377
:100D100013702370054B1B680093009A044B1A60F4
:100D2000E2E713BD96FDFF1F34040020800A002077
:100D300060FFFF1F38B5094C051C0949201CFFF74F
:100D4000F9FB092D04DC2368201C1B68302198471F
:100D5000291C201CFFF7F6FB38BDC046780B00208D
:100D600090E8000010B50A4B0A4C19780A22201CA2
:100D7000002308F0C9FA084B1878FFF7DBFF074B90
:100D80001878FFF7D7FF201C08F0ACFA10BDC0465A
:100D900080FDFF1F780B00202604002062FDFF1F4E
:100DA00008B5084B08481B788370084B1B784370C4
:100DB000074B1B78037004F0B3FB04F05FFC04F0F6
:100DC000EDFA08BD80FDFF1F270400202604002047
:100DD00062FDFF1F38B52A4C2368002B10DA04F09F
:100DE0003DFB00281AD104F043FB002816D104F083
:100DF00049FB002812D1234D2B78002B0ED11FE088
:100E0000002B0BD004F02AFB002807D104F030FBA4
:100E1000002803D104F036FB002823D004F01EFB89
:100E200000282CD104F024FB041E28D104F02AFB56
:100E3000002824DD134B1A78002A20D01C701EE0F5
:100E4000114B17221A70114B3B221A702268104B5B
:100E50003C321A70FFF7A4FF0E4BFF221A700123D9
:100E60002B70DBE7084B22681870084B1870084B92
:100E70001A70FFF795FF074BFF221A70CEE738BDB7
:100E8000C40700202504002080FDFF1F2604002049
:100E900062FDFF1F90FDFF1F08B504F0F3FA054B3C
:100EA000187004F0E5FA044B187004F0D7FA034BFD
:100EB000187008BD62FDFF1F2604002080FDFF1F83
:100EC000F0B595B0FFF7E8FF354B3C221B78354F66
:100ED0005A43354B3D681B78344ED318344A05933A
:100EE00010680AAB33490A909D603068324D0C6837
:100EF0008C46D860296831485C6000681961304CC4
:100F000030492468096898612F485C61D961046898
:100F10002E491C620C685C6212790492049C07AA38
:100F200014706446247954703F7997703679D6707E
:100F30002D791571224D2C79204D54712C79214D2C
:100F400094712C79D4710079107209790020517252
:100F50000121494284001C59059DA54202DD01344E
:100F600000D0115C01300928F4D1481C0CD104993F
:100F7000002084001D196D681C59A54201DD11185F
:100F8000497801300828F4D1002900D10121104B03
:100F90001970FFF7BBFBFFF791FC15B0F0BDC04621
:100FA00080FDFF1FA4FDFF1F26040020ACFDFF1FD6
:100FB00098FDFF1F78FDFF1FB4FDFF1FC4FDFF1F3D
:100FC000BCFDFF1FCCFDFF1FD4FDFF1FDCFDFF1F7D
:100FD00092FDFF1F034B3C201B785843024B1B78AC
:100FE000C01870472604002062FDFF1F0F4B1049F8
:100FF0001B78104A0F2B02D80B70002314E0181C2A
:1010000010380D2803D80F2008700F3B0CE0181C77
:101010001E380F2804D82D20C31A0B700F2303E0AD
:10102000002008703C21CB1A1370704762FDFF1F2F
:10103000720400207304002008B5FFF7D7FF094BA6
:101040001878094B1978FFF70BFD03235843074B1A
:101050001818074B1A7802705A7842709B78837080
:1010600008BDC046720400207304002074040020F0
:101070009807002038B50D1C174C082821D80AF015
:10108000F7FB05080B0E1114171A1D00201C13493D
:1010900019E0201C124916E0201C124913E0201C04
:1010A000114910E0201C11490DE0201C10490AE0F4
:1010B000201C104907E0201C0F4904E0201C0F49A8
:1010C00001E00F49201CFFF739FA002D02D0201C47
:1010D00008F008F938BDC046780B002092E80000FF
:1010E0009BE800009FE80000A3E80000C8EE0000B5
:1010F000A7E80000ABE80000AFE80000B3E800009C
:10110000BBE80000F0B5ABB0BD4906A80CF02DFD62
:1011100006A90122002319A805F088FF19A8FFF7E6
:10112000CFFAB84C002806D106A9201CFFF702FA16
:10113000201CB54901E0B549201CFFF71CFA19A88D
:101140000CA9322205F0D8FF002811D1B049201C8B
:10115000FFF7F4F919A9201CFFF7ECF9AD49201CA1
:10116000FFF7ECF96B467F3318780121FFF782FF18
:10117000A94903A80CF0F9FCA84909A80CF0F5FC52
:101180003223009319A803A909AA0CAB06F0DBF8D7
:1011900000280DD0A249201CFFF7D0F90CA9201C73
:1011A000FFF7DFF90CA80CF0D9FB9E4B186008E0A4
:1011B0006B467F3318780121FFF75CFF994BC822FB
:1011C0001A60994909A80CF0D0FC02AD32230093B3
:1011D000019519A803A909AA0CAB06F0CFF8934E04
:1011E00000280ED0201C9249FFF7A8F92B78002B7D
:1011F00001D0904900E09049201CFFF7BCF92B7802
:1012000006E06B467F3318780121FFF733FF012397
:101210008A4909A86D46337009350CF0A6FC3223C3
:101220000093019519A803A909AA0CAB06F0A6F82A
:10123000834E071E0FD0201C8249FFF77FF92B78C1
:10124000002B01D07B4900E07B49201CFFF793F97C
:101250002B78337006E06B467F3318780121FFF757
:1012600009FF3770784903A80CF07FFC774909A87B
:101270000CF07BFC3223009319A803A909AA0CAB3C
:1012800006F061F8051E0DD07149201CFFF756F9D4
:101290000CA9201CFFF765F90CA80CF059FB6D4B4D
:1012A000186007E06B467F3318780121FFF7E2FEF4
:1012B000684B1D60684909A80CF057FC3223009365
:1012C00019A803A909AA0CAB06F03DF8634D061E48
:1012D0000CD06349201CFFF731F90CA9201CFFF743
:1012E00040F90CA80CF034FB286006E06B467F3315
:1012F00018780121FFF7BEFE2E604B4909A86D4604
:101300000CF033FC0A3532230093019519A803A988
:1013100009AA0CAB06F032F8524E071E0FD0201C63
:101320005149FFF70BF92B78002B01D0414900E020
:101330004149201CFFF71FF92B78337006E06B46FC
:101340007F3318780121FFF795FE3770474909A8C8
:101350006D460CF00AFC0B3532230093019519A859
:1013600003A909AA0CAB06F009F8414E00280ED0DB
:10137000201C4049FFF7E2F82B78002B01D02D49C3
:1013800000E02D49201CFFF7F6F82B7806E06B46AD
:101390007F3318780121FFF76DFE0123364909A834
:1013A00033700CF0E2FB3223009319A803A909AAB9
:1013B0000CAB05F0C8FF314D061E0DD0201C304986
:1013C000FFF7BCF80CA9201CFFF7CBF8281C0CA9D0
:1013D00008220CF012FB06E06B467F3318780121DF
:1013E000FFF748FE2E7020AB1B78002B02D019A807
:1013F000FFF77FF919A805F033FE2BB0F0BDC0460A
:1014000083EC0000780B0020DAE80000EAE8000036
:10141000FAE8000004E9000011E900001BE90000FF
:1014200020E9000070FDFF1F2DE9000089FDFF1F6E
:1014300032E90000CFE80000D4E8000049E90000EC
:101440000D04002050E900005FE9000069E9000098
:101450006FE9000050FFFF1F7DE90000F40300204A
:1014600083E900009B07002091E90000A8E9000043
:1014700069FDFF1FAFE90000BEE90000780700200A
:10148000C9E90000F0B5884BABB00124874906A834
:101490001C700CF06AFB221C002306A919A805F099
:1014A000C5FD834E83490022301CFFF7C5F819A8FB
:1014B000FFF706F9804C002806D106A9201CFFF78B
:1014C00039F8201C7D4901E07D49201CFFF753F8C5
:1014D00019A80CA9322205F00FFE002811D1794974
:1014E000201CFFF72BF819A9201CFFF723F87649D9
:1014F000201CFFF723F86B467F3318780121FFF794
:10150000B9FD724903A80CF030FB6D46704909A87B
:101510000CF02BFB0B3532230093019519A803A97E
:1015200009AA0CAB05F02AFF6A4F00280ED0201C38
:101530006949FFF703F82B78002B01D0674900E0D9
:101540006749201CFFF717F82B7806E06B467F33BE
:1015500018780121FFF78EFD0123624909A86D4625
:101560003B700B350CF001FB32230093019519A859
:1015700003A909AA0CAB05F001FF5B4F00280ED0B0
:10158000201C5A49FEF7DAFF2B78002B01D0534973
:1015900000E05349201CFEF7EEFF2B7806E06B4677
:1015A0007F3318780121FFF765FD0123504909A811
:1015B0003B700CF0DAFA3223009319A803A909AAA8
:1015C0000CAB05F0C0FE051E0DD04A49201CFEF7ED
:1015D000B5FF0CA9201CFEF7C4FF0CA80CF0B8F94D
:1015E000454B187007E06B467F3318780121FFF7F1
:1015F00041FD414B1D70414909A80CF0B6FA322358
:10160000009319A803A909AA0CAB05F09CFE3C4D58
:1016100000280CD03B49201CFEF790FF0CA9201C91
:10162000FEF79FFF0CA80CF093F9287007E06B46BB
:101630007F3318780121FFF71DFD05232B703249F8
:1016400009A80CF092FA3223009319A803A909AA59
:101650000CAB05F078FE2D4D071E0CD02C49201C3C
:10166000FEF76CFF0CA9201CFEF77BFF0CA80CF00A
:101670006FF9286006E06B467F3318780121FFF789
:10168000F9FC2F6020AB1B78002B02D019A8FFF7C4
:1016900030F820490022301CFEF7CEFF19A805F0D3
:1016A000DFFC2BB0F0BDC046D6030020DCE9000013
:1016B00064FFFF1FE6E90000780B0020DAE8000075
:1016C000EAE80000FAE8000004E90000F0E90000A0
:1016D000F6E9000074FDFF1FFDE90000CFE80000FF
:1016E000D4E800000CEA000094FDFF1F13EA00009C
:1016F00022EA000029EA000058FFFF1F38EA000034
:1017000068FDFF1F3DEA00004AEA0000C407002010
:1017100051EA000060EA0000F0B5ABB0D24906A87B
:101720000CF023FA002306A9012219A805F07EFC7B
:10173000CE4CCF49201C0022FEF77EFF19A8FEF7F1
:10174000BFFFCC4C002806D106A9201CFEF7F2FEF4
:10175000201CC94901E0C949201C0CADFEF70BFF54
:1017600019A8291C322205F0C7FC002811D1C44950
:10177000201CFEF7E3FE19A9201CFEF7DBFEC14981
:10178000201CFEF7DBFE6B467F3318780121FFF744
:1017900071FCBD4E03A8311C0CF0E7F9311C09A8FF
:1017A0006E460CF0E2F90B3632230093019619A82D
:1017B00003A909AA2B1C05F0E1FD071E10D0201C6F
:1017C000B249FEF7BBFE3378002B01D0B04900E0F0
:1017D000B049201CFEF7CFFE3378AF4A137007E004
:1017E0006B467F3318780121FFF744FCAA4B1F702A
:1017F0003223009319A803A9A84A2B1C05F0A3FDC6
:1018000000282FD02B78A64E002B1AD0A549281CD3
:101810000CF0B4F90CF09CF8A349071C00200CF064
:10182000ADF90CF095F8FF233C221F4057430340CD
:10183000FB189E49002033600CF0A0F90CF088F8EA
:101840003071201C9A49FEF775FE3168201CFEF7A6
:1018500079FE201C9749FEF76DFE3179201CFEF7BA
:1018600094FE05E06B467F3318780121FFF702FCF8
:101870003223009319A803A98F4A2B1C05F063FD9E
:10188000002830D02B78002B1BD08649281C0CF068
:1018900075F90CF05DF88449061C00200CF06EF917
:1018A0000CF056F8FF231E403C2272430340834E47
:1018B000D3187E49002033600CF060F90CF048F832
:1018C0003071201C7E49FEF735FE7C4E201C3168AD
:1018D000FEF738FE201C7749FEF72CFE3179201CDC
:1018E000FEF753FE05E06B467F3318780121FFF7C2
:1018F000C1FB3223009319A803A9724A2B1C05F0DF
:1019000022FD00282FD02B786F4E002B1AD065496E
:10191000281C0CF033F90CF01BF86349071C00205D
:101920000CF02CF90CF014F8FF233C221F40574315
:101930000340FB185D49002033600CF01FF90CF0E8
:1019400007F83071201C6149FEF7F4FD3168201C56
:10195000FEF7F8FD201C5749FEF7ECFD3179201CFD
:10196000FEF713FE05E06B467F3318780121FFF781
:1019700081FB3223009319A803A9554A2B1C05F0BB
:10198000E2FC002830D02B78002B1BD04549281CC6
:101990000CF0F4F80BF0DCFF4349061C00200CF0BF
:1019A000EDF80BF0D5FFFF231E403C2272430340AD
:1019B000484ED3183D49002033600CF0DFF80BF09F
:1019C000C7FF3071201C4449FEF7B4FD414E201C76
:1019D0003168FEF7B7FD201C3649FEF7ABFD3179C3
:1019E000201CFEF7D2FD05E06B467F3318780121FD
:1019F000FFF740FB3223009319A803A9374A2B1C99
:101A000005F0A1FC00286FD02B78354E002B1AD0A2
:101A10002449281C0CF0B2F80BF09AFF2249071C4D
:101A200000200CF0ABF80BF093FFFF233C221F408B
:101A300057430340FB181D49002033600CF09EF80B
:101A40000BF086FF3071201C2649FEF773FD3168CC
:101A5000201CFEF777FD201C1649FEF76BFD31793F
:101A6000201CFEF792FD45E0DCE9000064FFFF1F4B
:101A7000E6E90000780B0020DAE80000EAE8000060
:101A8000FAE8000004E9000062EA000066EA0000EB
:101A9000CFE80000D4E8000041FFFF1F72EA000019
:101AA00098FDFF1F90E8000077EA00007AEA000046
:101AB0007DEA00008AEA00008DEA000078FDFF1F41
:101AC00092EA00009FEA0000A4FDFF1FA4EA0000C4
:101AD000B1EA0000ACFDFF1FB6EA0000C3EA000057
:101AE000B4FDFF1FC8EA00006B467F331878012160
:101AF000FFF7C0FA3223009319A803A9CD4A2B1C83
:101B000005F021FC002830D02B78002B1BD0CA49CF
:101B1000281C0CF033F80BF01BFFC849061C0020F2
:101B20000CF02CF80BF014FFFF231E403C227243F4
:101B30000340C34ED318C349002033600CF01EF895
:101B40000BF006FF3071201CBF49FEF7F3FCBC4EC2
:101B5000201C3168FEF7F6FC201CBC49FEF7EAFCAD
:101B60003179201CFEF711FD05E06B467F331878B4
:101B70000121FFF77FFA3223009319A803A9B44A81
:101B80002B1C05F0E0FB00282FD02B78B14E002B4A
:101B90001AD0A949281C0BF0F1FF0BF0D9FEA74978
:101BA000071C00200BF0EAFF0BF0D2FEFF233C22C3
:101BB0001F4057430340FB18A249002033600BF03D
:101BC000DDFF0BF0C5FE3071201CA349FEF7B2FC0F
:101BD0003168201CFEF7B6FC201C9C49FEF7AAFCCD
:101BE0003179201CFEF7D1FC05E06B467F33187875
:101BF0000121FFF73FFA3223009319A803A9974A5E
:101C00002B1C05F0A0FB002830D02B78002B1BD01C
:101C10008949281C0BF0B2FF0BF09AFE8749061C7D
:101C200000200BF0ABFF0BF093FEFF231E403C2285
:101C3000724303408A4ED3188249002033600BF070
:101C40009DFF0BF085FE3071201C8649FEF772FC6B
:101C5000834E201C3168FEF775FC201C7B49FEF783
:101C600069FC3179201CFEF790FC05E06B467F3360
:101C700018780121FFF7FEF93223009319A803A970
:101C8000794A2B1C05F05FFB00282FD02B78774E6C
:101C9000002B1AD06849281C0BF070FF0BF058FE7F
:101CA0006649071C00200BF069FF0BF051FEFF2373
:101CB0003C221F4057430340FB1862490020336019
:101CC0000BF05CFF0BF044FE3071201C6849FEF7FE
:101CD00031FC3168201CFEF735FC201C5B49FEF707
:101CE00029FC3179201CFEF750FC05E06B467F3360
:101CF00018780121FFF7BEF93223009319A803A930
:101D00005C4A2B1C05F01FFB002830D02B78002BE1
:101D10001BD04949281C0BF031FF0BF019FE474935
:101D2000061C00200BF02AFF0BF012FEFF231E40C2
:101D30003C2272430340504ED31842490020336086
:101D40000BF01CFF0BF004FE3071201C4B49FEF71A
:101D5000F1FB494E201C3168FEF7F4FB201C3B4987
:101D6000FEF7E8FB3179201CFEF70FFC05E06B461F
:101D70007F3318780121FFF77DF93223009319A8EA
:101D800003A93F4A2B1C05F0DEFA002812D02B785D
:101D9000002B06D0281C002110220CF063F8394BD0
:101DA0001860201C3849FEF7C5FB201C291CFEF7D3
:101DB000D8FB08E06B467F3318780121FFF75AF90A
:101DC000324A304B1A603223009319A803A9304AD3
:101DD0002B1C05F0B8FA002812D02B78002B06D067
:101DE000281C002110220CF03DF82A4B1860201C02
:101DF0002949FEF79FFB201C291CFEF7B2FB08E0D7
:101E00006B467F3318780121FFF734F91F4A214BC5
:101E10001A6020AB1B78002B02D019A8FEF769FCD2
:101E20001E4900221E48FEF707FC19A805F018F904
:101E30002BB0F0BDD5EA000090E8000077EA000082
:101E4000BCFDFF1F7AEA0000DAEA00008AEA00001F
:101E5000E7EA0000C4FDFF1FECEA0000F9EA000019
:101E6000CCFDFF1FFEEA00000BEB0000D4FDFF1FBE
:101E700010EB00001DEB0000DCFDFF1F22EB00005B
:101E80002FEB000064FDFF1F3FEB0000FFFFFF0092
:101E900052EB00006CFDFF1F63EB000060EA0000E6
:101EA00064FFFF1F70B5A6B05B4905A80BF05DFE8F
:101EB000002305A9012215A805F0B8F8574C584988
:101EC000201C0022FEF7B8FB15A8FEF7F9FB261C24
:101ED000544C002806D105A9201CFEF72BFB201C22
:101EE000514901E05149201CFEF745FB15A808A9FE
:101EF000322205F001F9002811D14D49201CFEF7CE
:101F00001DFB15A9201CFEF715FB4A49201CFEF7F6
:101F100015FB6B466F3318780121FFF7ABF8464984
:101F200003A80BF022FE3223009315A803A9434A0D
:101F300008AB05F008FA00280FD04149201CFEF735
:101F4000FDFA08A9201CFEF70CFB08A800210A22B4
:101F50000BF096FF3B4B186008E06B466F33187828
:101F60000121FFF787F8384A364B1A603223009375
:101F700015A803A9354A08AB05F0E5F9344D00284A
:101F80000ED03449201CFEF7D9FA08A9201CFEF710
:101F9000E8FA08A800210A220BF072FF286007E087
:101FA0006B466F3318780121FFF764F82A4B2B60DA
:101FB0003223009315A803A9284A08AB05F0C3F9FA
:101FC000274D00280ED02749201CFEF7B7FA08A994
:101FD000201CFEF7C6FA08A800210A220BF050FFC9
:101FE000286007E06B466F3318780121FFF742F84D
:101FF0001D4B2B601CAB1B78002B02D015A8FEF7E5
:1020000078FB1A490022301CFEF716FB15A805F0D4
:1020100027F826B070BDC04677EB000064FFFF1FB5
:10202000E6E90000780B0020DAE80000EAE80000AA
:10203000FAE8000004E9000082EB000089EB0000F0
:102040008EEB0000D80300201FE07F809DEB000096
:102050005CFFFF1FA2EB00009F607F80B1EB0000E0
:10206000F8030020B7EB0000CF307F8060EA00006B
:1020700010B50D4B03201A78041C54430B49C82398
:102080000C1923706370A370541C02324443424302
:102090000C198A1823706370A3700548137053706D
:1020A0009370FEF72EFB10BD88FDFF1F7404002007
:1020B000680800207FB5054901A80BF056FD01A96D
:1020C00000220348FEF7B8FA07B000BDC7EB0000D6
:1020D00064FFFF1F08B500231A1C0C49585C002838
:1020E00006D1C9188878002802D14978002901D082
:1020F0000132D2B2064903338B42EED1042A04D80E
:10210000012006F009FB0120FFE708BD7404002050
:10211000FD020000000909090F23002905D00B0169
:10212000CA0701D5C01801E00F33181AC0B27047B2
:10213000084A1368191C5B39B22902D8B42B02DD96
:1021400003E0592B01DCB42101E087218900CB1A7F
:102150001360704790070020034AB42113684900B8
:10216000CB1A13607047C0469007002013B56C4629
:102170000634211C0222083003F064FE208816BDBC
:1021800007B5083001A9042203F05CFE01980EBDDA
:1021900070B51F4C011C201C08300122FEF734FAD8
:1021A000002805D11B491C48FEF7E5F9FEF7BEFCE7
:1021B000201CFFF7DBFF194B984226D1201CFFF7AC
:1021C000DFFF201CFFF7DCFF201CFFF7D9FF201CDE
:1021D000FFF7D6FF201CFFF7D3FF114E3060201C05
:1021E000FFF7CEFF0C4C0F4D0F492860201CFEF767
:1021F000A5F93168201CFEF7A5F90C49201CFEF753
:102200009DF92968201CFEF7CCF9FEF71DFC70BD76
:1022100044040020DAEB0000780B0020424D00005F
:102220003804002030040020EBEB0000FEEB00003F
:10223000F0B5D14C95B0D149201CFEF79CF9D0499E
:10224000201CFEF798F9FEF7FFFBCE4B1B78002B06
:1022500001D1CD4A1360CD4BCD4E1B6800250493B0
:10226000049ACC4BCC481A60CC4B2A1C311C1D6004
:10227000FEF7E2F9CA4B1D60CA4B1D60CA4B1D60D8
:10228000CA4B1D70CA4B1D70CA4B1D70CA4B1A78C1
:10229000AA4201D101221A70C84D2F68002F36DBE7
:1022A000311C0EA80BF061FCC5490EA80BF03AFCDE
:1022B000311C0EA80BF036FC0A22381C0CA906F0C3
:1022C000EBF80CA90EA80BF02DFCBE4AB24F0EA9DC
:1022D000B818FEF78BF9021E10D0BB49201CFEF780
:1022E0002DF90EA9201CFEF73CF9381C0EA900227E
:1022F000FEF7A2F92B6801332B6008E001235B4253
:102300002B60AF4B311C1870381CFEF795F9AF4DA0
:102310002B78002B1ED0A94B1B6801331AD1AC4976
:10232000201CFEF70BF9291C201CFEF71AF99A4A0B
:10233000A44B291CD018FEF759F9002805D0291CF8
:1023400000229548FEF778F904E02870A149201C86
:10235000FEF711F92978002922D09F4903A80BF034
:1023600004FC8D4D974A03A9A818FEF73FF90028F1
:1023700000D197E09949201CFEF7E0F80EA9201C37
:10238000FEF7EFF80EA908228D480BF036FB00226D
:10239000281C03A9FEF750F9884B01221A6081E03E
:1023A000864B1B680133D8D18D4B1B78002B61D035
:1023B0008C4E8D48326805F0CFF9051E05DD336877
:1023C000984202D0013B984200D102358749201C37
:1023D000FEF7B4F8291C201CFEF7B4F8201C844931
:1023E000FEF7C9F801230193019BAB4242DA814F0A
:1023F000694A744B804E381CD1180830328801234A
:1024000003F0A5FE3A7A702300271A4203D0019AFE
:10241000012701320192FEF717FB33880133338025
:10242000002FE4D0E0E72B78302B00D12DE16B7842
:10243000302B00D129E17149201CFEF77FF80023E1
:10244000F15E201CFEF7ADF86D49201CFEF776F812
:10245000291C201CFEF785F8291C00224E48FEF797
:10246000EBF8FEF7F1FA0123328801323280002BBB
:1024700000D072E75F4F484A524B5F4E0837D11881
:10248000381C012332880EAD03F061FE0D22381C8A
:10249000291C04F069F8574B1A7A70231A4200D1AC
:1024A000F3E0C0E7574F06A8391C0BF05EFB454A26
:1024B00006A9A818FEF79AF8002800D1DEE05249D4
:1024C000201CFEF73BF80EA9201CFEF733F84F49FD
:1024D000201CFEF750F8FEF715FE391C08A80BF07B
:1024E00044FB08A8FFF754FE4949201CFEF726F8D4
:1024F0002A4E201C3168FEF75EF8244B1B680593BA
:10250000059A3368D218434B1A60354B1B78022B5F
:1025100000D18BE0404B1B68002B0BDD3F4B404A4A
:10252000197812681F4B002901D052420AE010218D
:102530008A1A07E0002B06D0384B1A78194B002A6C
:1025400000D010221A60374B1B68002B07DD334B7D
:102550001A78154B002A0CD01022524209E0002BA9
:1025600075D02E4B304A197812680F4B002900D1D4
:10257000103A1A606BE0C046780B002000EC0000B7
:1025800004EC0000C807002018040020800A002086
:1025900060EA00004004002064FFFF1F70FDFF1F81
:1025A00010040020A0070020A407002055FFFF1FF3
:1025B0000D040020960700209507002084FDFF1FD2
:1025C000B80700203C04000013EC0000780700204E
:1025D0001EEC00002DEC000075EA000059EC000034
:1025E00056FFFF1F74070020D408002039EC0000BC
:1025F0004DEC000044040020D4030020B1EC0000A6
:10260000C0EC00006DEC000073EC000082EC0000F8
:102610008EEC00000804002050FFFF1F69FDFF1F23
:1026200038040020F403002030040020214B1B68F4
:10263000DA0FD3185B10204A5B42083313601F4B3C
:102640001B68DA0FD3185B101D4A083B1360391C56
:102650000AA80BF08AFA1B490CA80BF086FA1A4A52
:102660000AA9AD18281CFDF7C1FF00281FD0281C9F
:102670000CA9FDF7BBFF002819D10AE01349201C63
:10268000FDF779FFFFF7D4FD11E0FEF7DDF9002338
:10269000EAE60F4B01221A700E4B1B68002B06D185
:1026A0000D4B1B68002B02D101235B42336015B038
:1026B000F0BDC04638040020A007002030040020F0
:1026C000A40700209DEC00003C040000A3EC0000E7
:1026D00055FFFF1F50FFFF1FF4030020F0B59DB012
:1026E000071C0491161C0F2901D80F2A04D99E49F2
:1026F0009E48FDF723FF34E19D4C237A002B1CD12B
:102700009A4D281C06F0EEFD9A49281CFDF716FF8D
:10271000391C281CFDF70EFF2721281CFDF716FF8A
:102720009548391C0122FDF76FFF002809D1934914
:10273000281CFDF720FFFEF7F9F98F48002103F070
:102740005EFC201CFFF712FD8D4B984200D006E185
:10275000201CFFF715FD201CFFF712FD201CFFF7C2
:102760000FFD0790201CFFF70BFD201CFFF708FD55
:102770000390201CFFF704FD051C201CFFF7F6FC4E
:10278000012800D0EBE0201CFFF7F0FCC0B2029063
:10279000182802D0202800D0E1E0201CFFF7F0FC30
:1027A000002800D0DBE0039B0F331E2B03D92B1C2A
:1027B0000F331E2B01D8FEF75FFA02990195CB0863
:1027C0000A1C03994A43D117490F8A18D210D2180C
:1027D0009A43089201220992002D03DA6B420021EC
:1027E000019309910399049A0C915318102B02DD5F
:1027F00010239B1A0C93019AB3180D92102B02DD33
:1028000010239B1B0D93079B0026069330270D9BDF
:102810009E4200DB82E0099A0699002A0ED0594BAD
:10282000019A1B68013A9900591A079B5918564B8F
:102830001B68F318D21A089B5A4389184C48C2697E
:102840008A4203D0083003F0DAFB302700240C9BC7
:102850009C425DDA029B182B06D12F2F17D94448D2
:1028600010A9083030220FE0029920290FD1022F41
:102870000DD93F4D10A908350322281C03F0E2FAB8
:102880006946281C3F31012203F0DCFA002710AB17
:10289000DA5D791C0592BA1CD2B2C9B2595C9B5C54
:1028A0000A910B93384BF91CCFB21B680199374D35
:1028B000CA1A96420ADA5B429E4207DB314B039901
:1028C0001B68CA18944201DA9C420ADAE0B2F1B2FB
:1028D000FEF7C6F80323584300232D182B706B70A6
:1028E00013E0049AF1B21019C0B2FEF7B9F803234D
:1028F00058430B9B2D185B431B122B700A9B5B43A9
:102900001B126B70059B5B431B12AB7001349EE77F
:102910000699089A01368918069178E701241C4B1C
:102920001B78002B03D01B4B1B78002B02D01A48BE
:10293000FDF7E7FE194B1B78002B07D0184B1B78CF
:10294000002B03D1134B1B78002B01D0FEF77CF832
:10295000002C06D113490548FDF70DFE01E00024C7
:10296000DDE71DB0F0BDC046D1EC0000780B0020C3
:1029700044040020D8EC00004C040020DAEB0000F6
:10298000424D0000A0070020A4070020740400208E
:1029900094070020240400206808002055FFFF1F32
:1029A0009C070020E8EC0000F7B50022584E594C77
:1029B000594D5A48111C326022602A60FFF78EFE82
:1029C000FEF75AF82A68002A15D1554F554C381C85
:1029D000211C05F079FB0028F4D02268012A06D1D9
:1029E000A368013303D0FDF7B5FEA4682C60381C42
:1029F00005F040F8E6E700214B480A1CFFF76EFEA1
:102A0000FEF73AF83368002B18D1454F454C381C77
:102A1000211C05F059FB0028F4D02368012B09D1B3
:102A2000A3685A1C06D02A68934203D0FDF792FE91
:102A3000A4683460381C05F01DF8E3E700213B482A
:102A40000A1CFFF74BFEFEF717F8324A1268002AFD
:102A50001DD1334F334C381C211C05F035FB0028A9
:102A6000F3D02268012A0ED1A3685A1C0BD02A6821
:102A7000934208D03268934205D0FDF76BFEA468FC
:102A8000244B01941C60381C04F0F4FFDDE7284C53
:102A90002849271C0837381C4322FDF7B5FD0028BC
:102AA00005D125492548FDF75CFDFEF73FF8381CA8
:102AB000002103F0A4FAB021381C490003F09FFA6A
:102AC000201C1F49FDF74DFD201C1E49FDF749FD47
:102AD000201C1D49FDF745FD201C1C49FDF72AFD62
:102AE0002968201CFDF767FD201C1949FDF722FD10
:102AF0003168201CFDF75FFD201C1649FDF71AFD0B
:102B0000044B201C1968FDF756FDFDF79DFFF7BD2E
:102B1000D80300205CFFFF1FF8030020FCEC00003E
:102B20003C040020DC03002007ED000012ED000053
:102B30004404002077EB0000DAEB0000780B002063
:102B40001DED00008CEA000026ED000036ED0000CF
:102B50003FED000047ED0000F7B5FEF78DF83B486C
:102B6000FDF7CFFD3A4900223A48FDF765FD3A4EA0
:102B70000021301C0A1CFFF7B1FD00252C1CFDF7BD
:102B8000C3FE364B364F1B78502B0FD01A1C4D3AD4
:102B9000012A0BD9334A1278002A07D1324A127817
:102BA000002A03D1314A1278002A2FD03A680092C5
:102BB000009D7D35502B05D02A4A1278002A08D076
:102BC000012C06D000212A480A1CFFF787FD0124AA
:102BD0001CE04D2B05D0244A1278002A08D0022C84
:102BE00006D0002123480A1CFFF778FD02240DE0DF
:102BF0004E2B05D01D4B1B78002B07D0032C05D086
:102C000000211D480A1CFFF769FD03243B6801935E
:102C1000019BAB4201D9002C11D1102005F06CFCB6
:102C2000071E06D1FFF7C0FE301C391C3A1CFFF707
:102C300055FD112005F060FC0028A0D1F7BD002152
:102C4000301C0A1CFFF74AFD0024E6E76808002054
:102C5000E6E9000064FFFF1F4FED000014040020B0
:102C6000800A0020D0070020B10700207004002057
:102C7000FCEC000007ED000012ED000038B5FEF797
:102C8000B5F9134B134D00241C60134BB022281CC4
:102C900012491A600AF069FF114BFF22281C1A70B2
:102CA000211C221CFFF71AFD0E4B18780E4B1978C9
:102CB000FDF7D6FE032358430C4B181802780C4B33
:102CC0001A7042785A7082789A70FDF71FFD38BDED
:102CD000A007002078070020A40700205AED00007C
:102CE000680800207204002073040020740400208F
:102CF0009807002037B5174C01AD291C0A2220780F
:102D000005F0CAFB144B01214942196021782A7849
:102D1000124B092903D9303AD2B2120100E0A022A5
:102D20001A600F4A1278002A09D10E4A1278002A36
:102D300005D10D4A1278002A01D1A0221A600B4C4D
:102D40000B49201C0AF011FF0021201C0A1CFFF770
:102D5000C5FC37BD80FDFF1FA0070020A407002091
:102D6000000400207104002097070020780700204D
:102D70005AED000037B5174D01AC2878211C0A2206
:102D800005F08AFB2B78092B01D9627800E02278C4
:102D9000114B303A00211960D2B2104B12011A6067
:102DA0000F4A12788A4209D10E4A12788A4205D116
:102DB0000D4A12788A4201D1A0221A600B4C0C49AC
:102DC000201C0AF0D2FE201C03210022FFF786FC03
:102DD00037BDC04680FDFF1FA0070020A4070020CC
:102DE00000040020710400209707002078070020CD
:102DF0005AED000037B5154D01AC0A222878211C88
:102E000005F04AFB2B780022092B02D92278303AB0
:102E1000D2B20F4B12011A600E4A1278002A09D161
:102E20000D4A1278002A05D00C4A1278002A01D1E6
:102E3000A0221A600A4C0B49201C0AF096FE201CA6
:102E400008210022FFF74AFC37BDC04626040020B7
:102E5000A407002000040020710400209707002030
:102E6000780700205AED000037B5154D01AC2878E1
:102E7000211C0A2205F010FB2B78092B01D962785E
:102E800000E02278303AD2B20E4B12011A600E4A9C
:102E90001278002A09D10D4A1278002A05D00C4A6E
:102EA0001278002A01D1A0221A600A4C0A49201C7B
:102EB0000AF05BFE201C0C210022FFF70FFC37BD3F
:102EC00026040020A4070020000400207104002034
:102ED00097070020780700205AED000008B5FFF79B
:102EE00009FFFFF747FFFFF785FFFFF7BDFF064B21
:102EF0001B78002B04D1054B01211A784A401A7027
:102F0000FDF7A2FD08BDC046000400209707002081
:102F100008B5FFF7E3FF0348FDF7F3FBFDF722FFDA
:102F200008BDC04668080020F0B5002587B02F1CFA
:102F30002C4E3378002B53D1FDF7C6FEFDF7E4FC91
:102F4000112005F0D9FA284C002807D0274B1B7810
:102F50004D2B03D0264B1B78002B1FD0254B197807
:102F600000291BD1244B1B78002B17D02368019319
:102F7000019BDB1B642B11D9204B01221A70204BC3
:102F80001A780132D2B2172A28D91970236802930D
:102F9000029F23680393039DFFF7BAFF23680493FE
:102FA000049B5B1BFA2B04D923680593059DFFF74F
:102FB000AFFF102005F0A0FA002803D00B4B1B78C0
:102FC0004E2BB5D10B4A1378002BB1D10A4B1B788D
:102FD000002BADD0012313703370A9E71A70D5E729
:102FE00007B0F0BD71040020800A00201404002006
:102FF000B10700203404002096FDFF1F9707002032
:1030000080FDFF1FF0B5002587B02F1C2D4E3378B3
:10301000002B55D0FDF758FEFDF776FC112005F08A
:103020006BFA294C002807D0284B1B784D2B03D076
:10303000274B1B78002B1FD0264B197800291BD15A
:10304000254B1B78002B17D023680193019BDB1BBA
:10305000642B11D9214B01221A70214B1A780132AD
:10306000D2B23B2A2AD9197023680293029F23689F
:103070000393039DFFF74CFF23680493049B5B1BA2
:10308000FA2B04D923680593059DFFF741FF102013
:1030900005F032FA002803D00C4B1B784E2BB5D12B
:1030A0000C490A78002AB1D10B4B1B78002BADD00C
:1030B00032700A4A01230B701370A7E71A70D3E726
:1030C00007B0F0BD71040020800A00201404002025
:1030D000B10700203404002096FDFF1F9707002051
:1030E00026040020124A002310B51370114C124A16
:1030F00023701370FFF718FFFFF784FFFDF750FEF2
:103100000E4BFF2204201A70FDF7F9F9012803D0B5
:103110000420012105F082F8094B1B78002B05D112
:10312000084B1B78002B01D10123237010BDC04632
:10313000000400202504002062FDFF1F90FDFF1FFA
:1031400080FDFF1F2604002037B5FDF7B7FB274B96
:1031500000241C60264B01251C70264B1D70264B3D
:103160001C70264B1B680193019A254B1A60254B56
:10317000FF221C70244B1A70FDF766FC234B221CA7
:10318000234824491C60FDF757FA234B1C60234B4E
:103190001D70234B1A78A24200D11D70214B1B7861
:1031A000002B01D1FEF76EF91F4B1B78002B06D1C7
:1031B0001E4A0C2111701E4A1370FFF793FF1D4B1E
:1031C0001B78002B10D11C4B1B78002B0AD0174BFF
:1031D0001A780C2A01D90C3A1A701A78002A01D1EF
:1031E0000C221A70FFF794FE37BDC0461804002069
:1031F0009C07002094070020C8070020800A0020B8
:1032000060FFFF1FA807002090FDFF1F70FDFF1F3C
:1032100064FFFF1F60EA00001004002055FFFF1F3D
:1032200095070020D60300200004002080FDFF1F2A
:103230002604002094FDFF1F74FDFF1FF8B5324CDB
:10324000324B2278197891425CD0314D1A7029683E
:103250002F1C01312960FDF71FFBFDF783FD2D4B6E
:103260001B78002B0AD02C4B1A780C2A01D90C3A67
:103270001A701A78002A01D10C221A70274B1B7879
:10328000002B12D0264B1A782378D318DBB23B2BB5
:1032900000D93C3B2370FFF7F1FCFFF71FFEFDF761
:1032A000CBFE2048FDF72DFA04E02378002B01D156
:1032B000FFF72EFE1C4B1D4E1D68691C1DD01C4BBC
:1032C0001B78002B19D0FDF785FE291C08F088FB20
:1032D0000D1E12D13378002B0FD0396002F0D2F8D6
:1032E000144B207001241C70134B1D70FDF7ACFBB8
:1032F000124B1C70124B1D7004E03378002B01D16F
:1033000001233370F8BDC04662FDFF1F90FDFF1F13
:103310001804002074FDFF1F80FDFF1F94FDFF1F98
:1033200058FFFF1F680800208CFDFF1F00040020CD
:1033300068FDFF1FC80700209407002057FFFF1FEC
:103340007807002070B5804B86B01B787F4C002B2F
:1033500046D02368102B0CDC7D4A126852429342FF
:1033600007DB7C4A7C49126809688A4201DC10321A
:103370007BDA7A4A1278002A03D0794A1278002A36
:1033800005D0784B00221A60FEF752FF6DE0764AB6
:103390001268002A05DD0F2B0CDD6D4B1B685B42AC
:1033A00007E0002A06D06A4A12685242934201DCC2
:1033B000102323606D4B1B68002B08DD654B664AAC
:1033C00018681268904250DB102252424CE0002BE9
:1033D0004BD0604B19680F3147DA5F4A126843E0FF
:1033E0002368002B0EDC5A4A102112688A1A934275
:1033F00008DB5949574A096812680F39914201DDC3
:10340000002A32DA554A1278002ABAD0544A127881
:10341000002AB6D154490968002907DD002B0DDBCD
:103420004B4B10221B68D31A236007E0002905D0FC
:10343000474909680F39994200DD22604B4B1B68F0
:10344000002B08DD444A434B12681868103A90423A
:103450000BDB002208E0002B07D03E4B1968002947
:1034600003DC3D4A1268103A1A60414B1B78002B6E
:103470003DD13C4E0A2202A9306805F00DF83D4DC1
:1034800002A8291C0AF04EFB3B483C4A02A98018BE
:10349000FDF7ACF8002828D102A90A22306004F018
:1034A000FBFF02A8291C0AF03DFB2D4B1B78002BCB
:1034B00007D02D4B1B68002B17D12C4B1B68002B02
:1034C00013D12F4B1B78002B03D02E4B1B78002BD6
:1034D0000BD02D4B1B78002B02D1FEF7A9FE04E088
:1034E000012B02D1FFF730FE2BE002A800E02748B5
:1034F00000210A1CFFF7F2F8254A264E1368264DD4
:103500000193264B019918681268091A02923160DA
:103510000299281C19602249FDF710F83168281C0F
:10352000FDF749F8104B1B68002B02D02268D31816
:1035300023600E4B1A68002A03D0064B18688218C5
:103540001A6006B070BDC04669FDFF1FA0070020CD
:1035500038040020A4070020300400209B0700202E
:103560000D0400201004002050FFFF1FF403002072
:1035700055FFFF1F6EEC000064FFFF1F3C040000BE
:1035800089FDFF1F9607002059FFFF1F6DEC00000B
:10359000800A0020CC070020780B0020AC07002018
:1035A0006FED0000F0B585B0FDF74EFA4A4B1B7881
:1035B000002B01D0FDF784FC484B00221A70484BC9
:1035C000484C1A60484B494E1A60494B201C1A60FF
:1035D000484B49491A80494B32701A70484B1A704F
:1035E000484B1A70484B1A70FDF726F8102004F06B
:1035F00083FF002803D101233370FDF7C3F8434C48
:103600002368002B02D03378002B4ED00025256094
:103610003F4F344A3F4B381CD1180830AAB201231F
:1036200002F095FD3A7A70231A422ED03A4F3B4968
:10363000381CFCF796FF3378002B0DD0226803234B
:103640005343374A3748D31880221A70FF225A70E2
:1036500000229A70FDF755F8236833490133381C6E
:103660002360FCF767FF291C381CFCF79AFF2848E9
:1036700069460D22083002F077FF2C49381CFCF710
:1036800059FF381C6946FCF76CFFFDF7DDF9013581
:1036900080231B019D42BBD11F4D2168281CFCF7D4
:1036A00051FF281C2249FCF75CFF3378002B07D020
:1036B000204805F031F8204804F0DCF9FFF74CFA17
:1036C0001E4900220748FCF7B7FFFDF71BFDFFF777
:1036D00039FE05B0F0BDC04641FFFF1F9507002031
:1036E0001004002064FFFF1FA0070020B007002087
:1036F000A4070020D403002060EA000055FFFF1F4C
:10370000C8070020940700207807002074070020D5
:10371000440400203C040000780B002000EC000072
:10372000740400206808002075ED0000C8EC00005B
:1037300082ED0000881300003C04002092ED0000A0
:10374000F7B50620012104F0E9FE0620642104F00B
:1037500005FF1020002104F0E1FE1120002104F0FB
:10376000DDFE1020012104F0A7FE1120012104F04C
:10377000A3FE01210D2004F0D1FEFCF7DBFFFCF7D6
:10378000D9FFFCF7D7FF794803F01CFF784801F018
:103790008BFE9620400001F097FE0420FCF7AFFE60
:1037A000012801D1734B187001F076FE022802D077
:1037B000704B00221A70704804F0A2F80020FCF749
:1037C0009EFE431EDBB2062B01D86C4B1870012005
:1037D000FCF795FE022801D8694B18700220FCF70F
:1037E0008EFE431EDBB2072B01D8664B1870FDF727
:1037F00027F80320FCF783FE012801D8624B1870DC
:10380000624E01273568624C3D4021D1301C04F0E6
:10381000DFFD00281CD0FF2323736373A373E373BE
:10382000237463745B4B65601A68A7746561A56057
:10383000002A00D11C60584A1368002B00D09C60FD
:10384000564B301C23600023A361146004F0C4FDB8
:103850008022534952000023201C03F089FE0023DC
:103860008374FCF753FFFDF707FA4E4D281CFCF755
:1038700048FF102004F040FE00280CD1112004F075
:103880003BFE002807D13D4B07221A70FCF73EFF94
:10389000FCF778FFFCE7112004F02EFE041E0DD18A
:1038A000364B01221A70FCF731FF354B02221C7097
:1038B000344B1A70FCF7C4FF334B1C703A4E3B4933
:1038C000301CFCF737FE3A4C3A4A8C23DB00E018F8
:1038D000A11802230A2202F039F800281DD0364B25
:1038E000E01802F0D3FC0121201C03F0D5FA011EE0
:1038F00008D0314A211CA718381C02F08AFA002887
:103900000BD005E0201C03F0C7FA0028F1D104E039
:10391000381CFCF785FE002805D12849301CFCF72F
:1039200020FEFDF703F9301C2549FCF71AFEFDF7D0
:10393000F3FE244B01AC1B68281C1A0C2270211CBE
:103940001A0A6270A37003F085FD1F4B281C1B68C8
:10395000211C1A0C22701A0A6270A37003F06AFD0F
:10396000FEF7A0FAFFF71EFEF7BDC046D408002000
:103970007D560000000400203C04002092FDFF1F43
:1039800056FFFF1F95FDFF1F59FFFF1F3CFFFF1F45
:1039900020FFFF1F780800208808002040E8000072
:1039A0007404002068080020780B0020A1ED0000BE
:1039B00064FFFF1F6C0400003C040000ABED00003E
:1039C000B0ED000064FDFF1F6CFDFF1F37B5274BF6
:1039D000274C1B78502B1AD1264A01231178002935
:1039E0000CD11370FCF792FE234B1B78002B02D1F5
:1039F000FFF7A8FC0BE0FFF7A7FB08E02278534095
:103A0000237002D1FDF746F901E0FFF7CBFD2578E1
:103A1000002D14D0194B1B680193194B019A1B6898
:103A20009A4222D9112004F067FD00281DD1154BC0
:103A30001B78002B19D02070FDF72CF915E0112010
:103A400004F05AFD012805D10F4B1A78002A01D045
:103A50001D700AE0112004F04FFD002805D10A4B2B
:103A60001B78002B01D10123237037BD14040020E3
:103A700091FDFF1F92FDFF1F59FFFF1F800A0020CD
:103A8000FC0300209C07002034040020F0B53B4BD1
:103A900095B01B780493002B6ED1394B1B78002B0B
:103AA0006AD0384B1B78002B66D0374B374A1B78CF
:103AB0001178994260D01370354A3C211278354F05
:103AC0004A433548D218354E05923A680AAD016826
:103AD0003368844632486A60324A0468AB60324BCD
:103AE00012680A9131491B68EC60314C09686A61BF
:103AF000304A2468AB61304B29611168EC611C6865
:103B0000296261466C62097907AC21703F792749C7
:103B100067703679A6700079049EE07008792149B3
:103B200020710879204960710879A07120480179D5
:103B3000E171127922721B796372B300EB58059917
:103B4000994216D11D4FA35D3B70FCF7DFFD3B781A
:103B5000002B05D1FDF790F81948FCF7D2FD08E0DD
:103B6000184B1B78012B02D1FFF7EEFA01E0FFF7AB
:103B7000E9FB0136092EE0D115B0F0BD62FDFF1F53
:103B800041FFFF1F00040020260400200C04002039
:103B900080FDFF1F78FDFF1F98FDFF1FA4FDFF1F85
:103BA000ACFDFF1FBCFDFF1FC4FDFF1FB4FDFF1FC9
:103BB000CCFDFF1FD4FDFF1FDCFDFF1F92FDFF1F8B
:103BC0006808002059FFFF1FF0B591B0FDF77CF8A1
:103BD000102004F091FC844D002803D0834B1B7807
:103BE0004E2B25D1824B1A78002A21D1814E327872
:103BF000002A1DD0804A1478002C19D12A78012778
:103C00001F70002A33D17D4B1868002808DB012182
:103C1000494219607A4B7B487B491A70FCF70CFDCE
:103C20007A4B1B78002B1DD1FEF702FBFFF78AFBB6
:103C3000102004F061FC002804D06C4B1B784E2B44
:103C400000D027E16A4A1378002B00D022E16949AD
:103C50000978002900D11DE167490978002900D0C1
:103C60003DE217E1012BE3D1FFF76EFA84E2684EE3
:103C7000684933680193019A674B52181A60674A82
:103C80001378002B1CD1664C23780133DBB2072B51
:103C900001D8237000E027700AA8624909F065FF87
:103CA0000A2209A9207804F0F7FB09A90AA809F05B
:103CB00039FF5D490AA809F035FFFCF727FD1BE035
:103CC000012B1FD1594E33780133DBB2022B01D8BF
:103CD000337000E0347056490AA809F046FF307886
:103CE00009A90A2204F0D8FB09A90AA809F01AFFB9
:103CF0000AA84D4909F016FF00210AA80A1CFEF780
:103D0000EDFC95E7022B10D14A4C23780133DBB24E
:103D1000082B01D8237000E02770FCF791FD0AA85A
:103D2000454909F022FF2078DAE7032B0BD1374E03
:103D300033780133DBB2012B01D8337000E03470EB
:103D40000AA83E49C9E7042B00D071E72C70FCF7A4
:103D5000B5FD324B0AA81C703368264E0293029AB6
:103D6000374B38491A60384B34701F70374B1C7012
:103D700009F0FBFE0AA8211C221CFEF7AFFC344B05
:103D8000E6221A70334B70221A70334BD0221A700D
:103D9000324BD8221A70324BA2221C60314BAF2119
:103DA0001C60314B92009954304AFF219954304A9B
:103DB0000F2199542F49C8225A542F492F485A5439
:103DC000AD2189005A542E495A542E495A542E492D
:103DD0005A54AE2189005A542C495A542C495A54E9
:103DE000FCF78FFCC8E1C0469C07002014040020AB
:103DF0003404002096FDFF1F9407002084FDFF1F60
:103E0000B807002064FFFF1F60EA000059FFFF1F92
:103E1000800A0020B80B000004040020A80700203E
:103E200092FDFF1FB4ED00006EEC000056FFFF1F77
:103E3000C6ED000095FDFF1FD6ED0000E6ED000089
:103E400060FFFF1FF6ED0000240400205AFFFF1F53
:103E500088FDFF1F93FDFF1F60FDFF1F61FDFF1F1A
:103E600070FDFF1F10040020740400208902000070
:103E70008A020000B2020000B302000068080020BD
:103E8000B5020000B6020000B7020000B90200004F
:103E9000BA020000112004F02FFB002803D0B74B1A
:103EA0001B784D2B55D1B64B1878002851D1B54A07
:103EB0001278002A4DD001211970B34BB34E1A6805
:103EC0000392039CB24AA418B24A14601A6804927E
:103ED000049CB14AA41914602A78B04C002A00D07E
:103EE00011E11B68297005930599AD4B1960AD4927
:103EF000AD4B08680A601860AC4BAD481E681A608C
:103F00000660FCF7A1FDAB4BAB4A1878191C0028E2
:103F100000D0EFE01378002B00D0EBE02478002CE9
:103F200000D0F9E0A5490AA809F01FFEA44B0A2217
:103F3000187809A904F0B0FA09A90AA809F0F2FD55
:103F4000A0490AA809F0EEFD0AA8211C221CFEF7D0
:103F5000C5FB2B78002B45D08B4C236806938D4BEB
:103F6000069A1B689A423DD9974B1B78012B00D1CA
:103F70007AE600262E70FCF7A1FC884B89491E705A
:103F8000894B8A4A1B680B60894B1B6813608F4BF7
:103F90001B78022B0ED18E4B1B68D80FC3185B10F9
:103FA0005B4208330B608B4B1B68D90FCB185B103F
:103FB000083B13602268884B0792794A0799186872
:103FC00012680918891A19602168844B08911E68C3
:103FD000089989198A1A1A60814B1B78002B01D124
:103FE000FFF7B0F92B78002B00D0C5E07D4B1B7894
:103FF000002B00D0C0E06F4C2378002B03D06E4B19
:104000001B78002B68D0784B1A78784B197891423E
:104010000ED01A70764A136801331360664A12781C
:10402000002A05D0734A1278934201DBFFF78CF81F
:104030006B4B1A78002A08D02278002A05D16E49E5
:104040000978002901D01A701BE06C4B1B78082BF3
:104050001BD02378002B18D1574B1B78002B14D181
:10406000634B1A68664B1B689A420EDB654B1B78E4
:10407000002B06D0644B1A78002A06D101221A7050
:1040800003E0FEF7D5F8FFF75DF9604B1A681F1CD7
:10409000013203D04D4B1B78022B03D1564B1B78BA
:1040A000002B69D1384E4C4D336828680993099B21
:1040B000834261D32378002B5ED1FCF7EDFB33689C
:1040C0000A930A9A3B68D3182B60514B1A68013245
:1040D0001A60FFF737F94FE0FFF7B0F84CE0012125
:1040E00011704C4A13704C4A1370FCF7D5FEFEF762
:1040F000F9FF2EE700231370394A0B70012111706C
:10410000464A13700AE723780133DBB2042B01D847
:10411000237003E7207001E7012C05D10AA840496C
:1041200009F023FD294B0EE0022C05D10AA83D49D8
:1041300009F01BFD314B06E0032C12D10AA83A49C5
:1041400009F013FD204B187809A90A2204F0A4F9FC
:1041500009A90AA809F0E6FC0AA81A4909F0E2FC34
:1041600006E0042C00D0F4E60AA8304909F0FDFC72
:1041700000210AA80A1CEAE611B0F0BD14040020D0
:104180003404002096FDFF1F800A0020DC0500009B
:10419000B80B000004040020FC030020A807002046
:1041A000B4070020A007002044FFFF1FA407002041
:1041B00048FFFF1F94070020C8070020B4ED00004F
:1041C00092FDFF1F6EEC000059FFFF1F56FFFF1FFF
:1041D000380400203004002008040020400400209F
:1041E00057FFFF1F2404002062FDFF1F90FDFF1FEB
:1041F0001804002068FDFF1F9507002095FDFF1F94
:104200008CFDFF1F0D0400209607002070FDFF1F8E
:1042100010040020000400209707002078070020E9
:10422000C6ED0000D6ED0000E6ED00000DEE00004A
:10423000F0B5B34D89B02B68002B01D0013B2B604A
:10424000B04E3368002B01DD013B3360AE4F3B784D
:10425000002B0AD1AD4B1B680593AD4B059A1B682B
:1042600032339A4201D901233B70102004F044F903
:10427000A84C002807D0A84B1B784E2B03D0A74B87
:104280001B78002B2BD02B68002B28D1A4490A784F
:10429000EC2A24D8A3480078002820D038780028B9
:1042A0001DD00132D2B20A700321013A4A439E491D
:1042B0008A18137053709370FDF7DAFE9B4B2B60D6
:1042C0002378002B55D101232370994A994B1A600A
:1042D000FCF7CEF823235843001242382FE0112078
:1042E00004F00AF9002803D08B4B1B784D2B2AD100
:1042F0002B68002B2BD18A490A78E02A27D93878F5
:10430000002824D0013AD2B20A70032103324A4372
:1043100085498A18137053709370FDF7A9FE834B7B
:104320002B602378002B24D101232370804A814BFA
:104330001A60FCF79DF823235843001279387E4B0E
:10434000C0B2186015E07D4B1B78002BD0D1102037
:1043500004F0D2F8012800D189E2112004F0CCF851
:10436000012800D183E26C4B1B784D3B012B00D818
:104370007DE22378002B00D181E23368002B00D04E
:104380007DE26C4A6848126832606D4A11780322F7
:104390004A438218137053709370EE2932D9694AD8
:1043A00069486A4923701370FCF7C8F8FA255E4C17
:1043B000FCF75EF84004000E0027012800D1EFB2A0
:1043C000FCF756F84004000E0026012800D1EEB29A
:1043D000FCF74EF84004000E0023012800D1EBB298
:1043E0005B4A27706670A37003349442E0D1594849
:1043F000FCF787F90A3D322004F08EF92B1C0A33B2
:10440000D5D13CE24C4B544E1868B32831DC07F050
:104410006FFB09F0BFF92F4B2D4A08F051FB2E4AD4
:104420002E4B07F0E3FE09F007FA09F0B3F906F0A6
:1044300057F8041C30780D1C09F03AF9284A294B2A
:10444000061C0F1C201C291C08F03AFB021C0B1C2C
:10445000301C391C07F0A8FB234A244B07F0A4FBAF
:10446000234A244B07F0F2FA002877D0FDF774FEB8
:1044700074E007F03DFB09F08DF9164B144A08F083
:104480001FFB154A154B07F0B1FE09F0D5F909F0ED
:1044900081F906F025F8041C30780D1C09F008F9A4
:1044A0000F4A104B061C0F1C201C291C08F008FB8F
:1044B000021C0B1C301C391C07F076FB0A4A0B4B04
:1044C00007F072FB0C4A0D4B07F0ACFACCE7C04684
:1044D000182D4454FB210940000000000080664074
:1044E0000000000000003040000000000000E03F3D
:1044F000000000000000704000000000000000000C
:1045000070FDFF1F1004002096FDFF1F800A002091
:1045100060FFFF1F4CFFFF1F1404002070040020E9
:1045200088FDFF1F5AFFFF1F74040020C40900000C
:10453000881300000804002090070020B107002025
:1045400061FDFF1F24040020780B002020EE0000F6
:10455000740700206808002093FDFF1FD64A1768E3
:10456000381C07F0C5FA09F015F9C84BC64A08F01F
:10457000A7FAC74AC74B07F039FE09F05DF909F001
:1045800009F9041C0D1C05F0ABFFCC4E0090019105
:10459000307809F08DF8C04AC04B02900391009822
:1045A000019908F08DFA021C0B1C0298039907F080
:1045B000FBFABB4ABB4B07F0F7FA07F079FA5B3F0F
:1045C0003070291CBE4E201CB22F21D805F034FFBC
:1045D000041C30780D1C09F06BF8AF4AAF4B061C79
:1045E0000F1C201C291C08F06BFA021C0B1C301C31
:1045F000391C07F0D9FAAA4AAA4B07F0D5FAAA4AF9
:10460000AA4B07F00FFA002820D0FDF791FD1DE01E
:1046100005F012FF041C30780D1C09F049F89E4A81
:104620009E4B061C0F1C201C291C08F049FA021C7A
:104630000B1C301C391C07F0B7FA994A994B07F04C
:10464000B3FA9B4A9B4B07F001FADCE79A4B1868D8
:1046500007F04EFA09F09EF88C4B8B4A08F030FABE
:104660008B4A8C4B07F0C2FD09F0E6F809F092F88E
:10467000041C0D1C05F0E0FE874A884B08F020FA68
:104680008F4E02900391307809F012F8029A039B42
:1046900007F08AFA824A834B07F086FA07F008FA95
:1046A000864FC0B230703E7800900099301CFDF704
:1046B00031FD844B1870844B1B78984205D05A1CEE
:1046C000904202D0023398426AD1201C291C05F086
:1046D00007FF041C301C0D1C08F0EAFF6E4A6F4BEC
:1046E000061C0F1C201C291C08F0EAF96C4A6D4BB3
:1046F00007F05AFA021C0B1C301C391C08F070FC25
:1047000007F0D6F96D4B6E4E1870009808F0D0FF88
:10471000634A644B041C0D1C0298039907F044FA89
:10472000021C0B1C201C291C08F05AFC07F0C0F9C5
:104730003070FDF7FDFC634D634C2B78227893427B
:1047400006D1FBF795FE372358430012733008E07B
:104750000232934208D1FBF78BFE372358430012F5
:104760004238554BC0B21860544B31781878FDF779
:10477000D1FC227828700320041C54435349C823D9
:104780000C1923706370A370541C023244434243DB
:104790000C198A1823706370A37013705370937090
:1047A000484A03211378494D4B43595D171C002992
:1047B00006D1EB185A78002A02D19B78002B44D0FE
:1047C000434B1A68233A1A60FDF7B2FCFDF782FCEE
:1047D00000283AD03F484049FBF7B0FE1E243B7802
:1047E00003265E43FBF744FE0090FBF741FE029078
:1047F000FBF73EFE009A029BAE1932707370B070E8
:10480000013C3648FBF77DFFE4B2322003F084FF21
:10481000002CE4D1324B1C70FDF74CFC0A22201C0A
:1048200006A903F039FE2F4906A809F07BF90021FB
:1048300006A80A1CFDF752FF01345A2003F06CFF52
:10484000252CEBD1284B00221A70274B1B78002B0C
:1048500015D03B7803225343ED18AF232B70FF2371
:104860006B700F23AB701D48FBF74BFF07E01F4B2E
:104870001A78002A00D07CE501221A7079E509B087
:10488000F0BDC046C046C046182D4454FB21094027
:104890000000000000806640000000000000304082
:1048A000000000000000E03F0000000000000000E9
:1048B00000000000000070409007002093FDFF1FE3
:1048C00060FDFF1F61FDFF1F88FDFF1F74040020B6
:1048D00008040020780B002028EE00006808002063
:1048E0004CFFFF1F6EEC0000240400205AFFFF1F46
:1048F00010B5FCF709F8FFF769F8FCF7CDFAFCF7FB
:1049000069FA114B1B78002B1CD0FFF7BFF80F4B37
:104910001B78002B16D00E4C2378002B02D1FFF70A
:1049200053F90FE0FFF784FC2378002B0AD1094BE1
:104930001B78002B04D1FDF77BFCFEF703FD01E0A3
:10494000FEF702FC10BDC04691FDFF1F92FDFF1F48
:104950002404002059FFFF1F30B544B20121294A29
:10496000294B002C01DA294C00E0294C216002215E
:10497000116019600121440601D5244C00E0244C4B
:1049800021600221116019600121840601D51F4CAC
:1049900000E01F4C21600221116019600121C40652
:1049A00001D51A4C00E01A4C2160022111601960F7
:1049B0000121040701D5154C00E0154C21600221AE
:1049C000116019600121440701D5104C00E0104C22
:1049D000216002211160196002210124084201D0E6
:1049E0000A4D00E00A4D2C6001241160196002217B
:1049F000204201D0054800E00548046011601960BC
:104A000030BDC046040000F8080000F8C40000F8FB
:104A1000C80000F8006808B5002802D003685B6889
:104A2000984708BD10B50121041C022003F076FD53
:104A30000121032003F072FD201C1830FFF7EAFF6C
:104A400010BD38B5051C80690C1C1835002802D033
:104A500003681B6898470020FFF77EFF0020FFF7E0
:104A60007BFF0020FFF778FF0020FFF775FFA368AA
:104A7000002B62DDFF20FFF76FFF23689A78002389
:104A80009A4205D0A37BD318FF2B00D9FF23DBB2BA
:104A9000217D0022081C5843000A934202D04A1E7E
:104AA0009141CAB21218D0B2FFF756FF23685A7864
:104AB00000239A4205D0637BD318FF2B00D9FF2334
:104AC000DBB2E17C0022081C5843000A934202D06A
:104AD0004A1E9141CAB21218D0B2FFF73DFF2368B7
:104AE0001A7800239A4205D0237BD318FF2B00D9D4
:104AF000FF23DBB2A17C0022081C5843000A93422A
:104B000002D04A1E9141CAB21218D0B2FFF724FF58
:104B1000E27B237BD31A2373227C637BD31A6373D8
:104B2000627CA37BD31AA3731523E3562268D318A0
:104B30002360A368013BA36099E76368DC17E40E78
:104B4000E41864110020FFF707FF0020FFF704FFBF
:104B50000020FFF701FF0020FFF7FEFE013CF1D22D
:104B6000281CFFF757FF38BD002383617047FFFF04
:104B700070B51B4B07211A7801320A401A700123C5
:104B800013408B40910701D540210B4304210A4279
:104B900001D0202213431033DEB2041C0025A17C77
:104BA0000020814205D08020400006F0C3FE013085
:104BB000C0B2021C531E9A41031C7343D2B21B1293
:104BC000D318DBB2E073002B00D0013B2373002A23
:104BD00001D00138E07301350134032DDFD170BD00
:104BE0001CFFFF1F70B588B00191197801AC161C2D
:104BF0006660A660A1745978827CE1749B78051C7C
:104C00002375012A03D1201CFFF7B2FF06E0002321
:104C100063742374E373A373637323730323201CEC
:104C2000311C6375FFF7A0FF2B68281C9B69211CB2
:104C3000984708B070BD70B588B00191197801AC83
:104C4000161C6660A660A1745978827CE1749B781A
:104C5000051C2375012A03D1201CFFF789FF06E0FC
:104C6000002363742374E373A373637323730023B8
:104C7000201C311C6375FFF777FF2B68281C9B698C
:104C8000211C984708B070BD10B503F095FA0F4B82
:104C90000F4A00249C540F4A19219C540E4ADC717F
:104CA00099548D22D2009C540C4A04211A600C4B5A
:104CB0000C4A1C725C721C710B481A6002F018FEE0
:104CC0000A4B1C705C709C7010BDC04664FFFF1FD7
:104CD0003C0400003D0400006504000028E80000DA
:104CE0004404002018E800003C040020980700203D
:104CF000154B80221968D2030A431A60134B5022C5
:104D0000DA7000229A701B78114B1B78D90703D4F4
:104D1000902189000F4A02E080210F4A890011602A
:104D200080229200990701D40C4900E00C490A60E6
:104D30005A0703D4902292000A4B02E080220A4BC9
:104D400092001A607047C0463480044000600740FB
:104D5000750B002018B0044008C004401CB004408B
:104D60000CC0044014B0044004C00440034B0222B1
:104D7000D9781142FAD0DA707047C0460060064018
:104D800010B50C4B041C1B78002B04D10A4A181CCC
:104D90001278002A0CD0094A1378202B03D901235A
:104DA0002371002004E0581C1070054A0120D154E2
:104DB00010BDC04636080020F90700203708002043
:104DC000D80700207047FFFF024B1878024B1B7872
:104DD000C01A70473508002034080020064A0749E9
:104DE00013780978994204D9591C1170044AD05C8F
:104DF00001E00120404270473408002035080020BF
:104E0000FA070020054B064A1B7812789A4202D90D
:104E1000044AD05C01E00120404270473408002081
:104E200035080020FA070020F8B50E4B071C18784B
:104E3000141C002803D10C4B1B78002B10D00B4EF8
:104E4000212335785B1B9C4202D901223A711C1C3C
:104E50000748221C40192D1908F0CFFD3570201C81
:104E6000F8BDC04636080020F907002037080020AA
:104E7000D8070020002303710373034BFA2292002A
:104E8000083382600360704790EE00000C4B0022F4
:104E90001A700C4B40201968014319600A4B0B49EA
:104EA0009A70992292000A6009490A601F225A707A
:104EB00002229A7120225A7180229A707047C0464D
:104EC000F907002034800440006006400CA0044034
:104ED00008A0044038B53C4C1023E578EDB21D42E3
:104EE00003D140222A4004D127E0E3706B06F8D4B6
:104EF00068E004231D40354B17D000221A70344B54
:104F0000344D1B682A70934200D098472A78324B60
:104F1000002A02D1012129701A70D022A2701B78B8
:104F2000012223712D4B1A704AE001221A702C4B7A
:104F30001D70C023A370237942E0A3796021DBB206
:104F4000194060290CD120218B431F498B71254BBF
:104F50001B68002B04D024490A70214A1078984716
:104F6000A1781022184B0A4016D0012215400FD10B
:104F70001A4918480A780078904205D9501C0870E0
:104F800015498A5C1A7100E01D71D023A37017E0E7
:104F9000C0229A701B7913E014490A709A79202173
:104FA0000A439A710E4A19791378C9B21F2B07D890
:104FB00006480078002803D0581C10700C4AD154C1
:104FC0000223E37038BDC04600600640D1070020D0
:104FD0001C08002037080020D807002038080020CF
:104FE00035080020D40700203408002020080020C5
:104FF000FA070020044B054A490019700123137079
:10500000034A13707047C046D807002036080020B6
:105010003708002070B51A4C1223E370A3780E1CD9
:105020009A0602D5B423A37008E0E2782023134047
:10503000FBD1144A1370124BB0229A700025124B08
:105040001B78AB4211D9114B5B5D2371FFF78EFECC
:10505000E378DBB2DA0703D56B1E9D41A81C07E09D
:10506000DA0604D40135EDB2E9E7002000E00420BF
:10507000002E01D08023A370054B00221A7070BD52
:1050800000600640F907002037080020D8070020FC
:1050900036080020F7B501932F4B151C00221A701B
:1050A0002E4B2F4C1A701222E270A278930602D572
:1050B000B423A37008E0E27820231340FBD1294AEF
:1050C0001370274BB0229A70012349001943C9B2CB
:1050D0002171FFF74BFEE0781123214E184003D0D9
:1050E0008023B370002035E0002D06D1019AA02363
:1050F000002A00D08023A3702CE0A823012D00D02B
:10510000A023B37023790026F3B20093EB1ADBB22D
:105110006F1E012B0DD9FFF729FE009BFF1AFFB26E
:10512000012F01D1A823A37023790F4A935501368B
:10513000EAE7FFF71BFEB023A37023790A4AFFB208
:10514000D355019B002B02D0054B80229A70034A55
:10515000281C1570FEBDC04634080020350800200C
:1051600000600640F9070020FA07002008B5C9B220
:10517000D2B20123FFF78EFF08BD08B5C9B2FFF711
:1051800039FF08BD08B50121FFF744FF08BDFFFF47
:1051900008B50248FFF76EFE08BDC046240800208F
:1051A000F7B50C1C3C21051C06F0BAFB281C21702D
:1051B0003C2106F071FB3C21051C06F0B1FB281CCC
:1051C00061703C2106F068FB1821051C06F0A8FB65
:1051D000281CA170182106F05FFB07210090043005
:1051E00006F09EFB00260131E170371C314BFD18A3
:1051F00003232B4001930ED1281C642106F0F0FB01
:1052000000290BD1C821281C490006F0E9FB4B42BC
:1052100059416E3100E06E21FF3101E0B7214900B4
:10522000009B76189E4202D80137FFB2DEE7019B51
:10523000A771002B0ED1281C642106F0D1FB002998
:105240000BD1C821281C490006F0CAFB4B4259412A
:105250006E3100E06E21FF3101E0B7214900009B73
:10526000761A281C64219E1B06F0BAFB0F1CC8216D
:10527000281C490006F0B4FB0023D8B201280AD14B
:10528000019D1C22002D08D11D22002F05D14A426C
:105290004A411C3201E0084A9A5C964204D3013329
:1052A000B61A0C2BE9D1181C013601302671607139
:1052B000F7BDC046B2070000B0EE000038B5054D9E
:1052C000041C2B68984203D00349FFF769FF2C6048
:1052D00038BDC0463C08002040080020F7B5294CE6
:1052E0008679294F7443051C284ABB18B34212DA49
:1052F000BA070ED1381C642106F072FB002906D1D2
:10530000C821381C490006F06BFB002901D1204B55
:10531000E4180137E8E71C4A6B79B618301C6421A1
:10532000019306F05DFB0F1CC821301C490006F0FC
:1053300057FB0123019A934212DA022B07D1B207DD
:1053400005D1002F01D1002901D1124A05E0124AEE
:105350000F48D218013A12784243A4180133E9E702
:10536000AB78E120000158436B783C225343C018CE
:105370002B78074AC0182B79013B5343C0180019FA
:10538000FEBDC0468033E101B20700004EF8FFFFCA
:1053900080510100803B2600B0EE0000094B022244
:1053A0001860094B82B01B68C018084B1860084B86
:1053B0001A70084B1B680193019A074B1A6002B0E0
:1053C0007047C04648080020E4FDFF1F5808002031
:1053D0004C080020800A002054080020F7B5174C24
:1053E000174923680A6817485E1C00680190FA2074
:1053F0008000019D17181448AD1A854202D9331C4C
:105400003A1CF0E7114D0A602A6823609A4213D8CB
:105410000F4B1B68002B0FD09847002802D0FFF7D6
:10542000BDFF09E00B4B20681B681B182B600A4B63
:105430001A78511E8A411A702068FEBD4808002063
:1054400054080020800A0020E703000058080020CC
:1054500050080020E4FDFF1F4C08002008B5FFF7AE
:10546000BDFFFFF72BFF014B987808BD40080020D7
:1054700008B5FFF7B3FFFFF721FF014B587808BDD0
:105480004008002008B5FFF7A9FFFFF717FF014B01
:10549000187808BD4008002008B5FFF79FFF014BB2
:1054A000187808BD4C08002008B5044B1860044B60
:1054B0001A68044B1A60FFF791FF08BD50080020DE
:1054C0004808002058080020034B1860034B1B6855
:1054D000C018034B18607047E4FDFF1F4808002008
:1054E0005808002038B50A21041C06F0D5F90A2115
:1054F0000501201C06F014FA6D18E8B238BD030946
:105500000A2253430F2210401818C0B27047FFFF01
:1055100008B50248FFF7BAFC08BDC04624080020C1
:1055200038B5244C051C6821201CFFF726FE0021FD
:10553000201CFFF725FC2878FFF7D4FF011C201C56
:10554000FFF71EFC6878FFF7CDFF011C201CFFF75A
:1055500017FCA878FFF7C6FF011C201CFFF710FC02
:10556000E878FFF7BFFF011C201CFFF709FC287932
:10557000FFF7B8FF011C201CFFF702FC6879FFF75A
:10558000B1FF011C201CFFF7FBFBA8791E38C0B23D
:10559000FFF7A8FF011C201CFFF7F2FB201CFFF700
:1055A000F1FD054B002801D0002000E0012018701B
:1055B00038BDC046240800205C08002070B52D4C82
:1055C0006821051C201CFFF7D8FD0021201CFFF7D7
:1055D000D7FB201CFFF7D6FD274B061E02D000206C
:1055E000187045E001221A7068210722201CFFF77D
:1055F000BDFD201CFFF7E8FB031C301C062B37DD2C
:10560000201CFFF7EBFB061C7F203040FFF777FFE5
:105610002870201CFFF7E2FBC0B2FFF770FF687034
:10562000201CFFF7DBFB3F231840FFF768FFA87043
:10563000201CFFF7D3FBC0B2FFF761FFE870201C0E
:10564000FFF7CCFBC0B2FFF75AFF2871201CFFF711
:10565000C5FBC0B2FFF753FF6871201CFFF7BEFB0C
:10566000C0B2FFF74CFF1E30A871F043C0B2C009B2
:1056700070BDC046240800205C08002007B56846BD
:10568000FFF79CFF031C0020834202D06846FFF70F
:1056900025FE0EBDF7B50E1C051C5421580700D47D
:1056A00050210820034200D00143002A01D10123E8
:1056B000194329700024124F12483A5D6300C15A01
:1056C0001148019206F036F90E4F864203D3019A33
:1056D00000246A7006E001341E2CECD1F7E7013497
:1056E0001E2C09D0064B09481B5D01936300F95A33
:1056F00006F020F98642F2D30198A870F7BDC046A3
:105700006CEE000030EE000000366E01006CDC0232
:1057100010B5041CFFF7BEFF201C10BD044B987190
:105720001A7852B2002AFBDA014B9879C0B270475E
:105730000060074008B5FF20FFF7F0FF08BDFFFF3E
:1057400037B501AC031C124D201C042B01D11149AB
:1057500016E0002B02D11049012213E0052B01D1E4
:105760000E490DE0012B02D10D491A1C09E0062B50
:1057700001D10C4904E0022B01D10B4900E00B4997
:1057800001220023FFF7C4FF63786B7037BDC0466A
:1057900000600740001BB70000093D0080841E0028
:1057A00040420F0020A1070090D0030048E801000C
:1057B00008B50121007902F07FFEFF20FFF7AEFF60
:1057C00008BDFFFF70B514490125CB788279041C10
:1057D000AB4340200343CB70CB780C26B343034349
:1057E000CB700423022A0FD90023042A0CD90523E5
:1057F000082A09D92B1C102A06D90623202A03D9E6
:1058000090429B415B420233D8B2FFF799FF207967
:10581000002102F051FE70BD00600740F0B51C4F42
:1058200085B03B68041C0293029E0D1C0192FFF799
:1058300081FFE071FF280BD13B680393039AB3B259
:1058400092B2D21A96235B009A42F0DD112305E052
:105850000F23FE2802D1019BEE1805E0201C637186
:10586000FFF7A6FF002011E0B54205D0FF20FFF7AB
:1058700055FF28700135F7E70023E371FFF75AFF62
:10588000FFF758FF201CFFF793FF012005B0F0BD84
:10589000800A002038B50D1C041CFFF793FF8022FE
:1058A000291C201C9200FFF7B9FF38BD73B50B4BC4
:1058B0000D1C1A681E1C0092009CFFF73BFFFF287E
:1058C00009D03368A2B20193019B9BB29B1AAB42F1
:1058D000F3DB002000E0012076BDC046800A0020F6
:1058E00037B50C1C0192051CFFF76CFF962189004F
:1058F000281CFFF7DBFF40202043FFF70FFF6B461C
:10590000D879FFF70BFF6B469879FFF707FF6B46D7
:105910005879FFF703FF01AB1878FFF7FFFE8720E8
:10592000002C00D19520FFF7F9FE0C2C01D1FFF7D8
:1059300001FF0024FFF7FEFE43B2E871002B04DAFA
:10594000FF2C02D00134E4B2F4E73EBDF0B5544E72
:1059500087B001930023037243713368027102938D
:10596000041C0160101C0121029D02F0D7FD20796A
:10597000012102F0A1FDFFF7BBF98023A371494B80
:105980000122D9780C20914340221143D970D97853
:105990000A2781430A43DA700320FFF7D1FE013F53
:1059A000FF20FFB2FFF7BAFE002FF8D10021201C24
:1059B0000A1CFFF795FF01280BD033680393039A65
:1059C000ABB292B2D21AFA23DB009A42EEDD012387
:1059D00049E0D522201C08215200FFF781FF05284D
:1059E00001D101230AE00427FFF7A4FE013FFFB223
:1059F000E071002FF8D1AA2807D102232372277A59
:105A0000023F7B425F41BF070BE033680493049A77
:105A1000ABB292B2D21AFA23DB009A42D9DD02234A
:105A200021E037210022201CFFF75AFF3A1C201CDE
:105A30002921FFF755FF021E0BD033680593059A05
:105A4000ABB292B2D21AFA23DB009A42E9DD0A2302
:105A500009E0237A022B1AD1201C3A21FFF740FFDC
:105A6000002806D00823201C6371FFF7A1FE002048
:105A700013E0FFF75FFEC0231840984201D10323D3
:105A80002372FFF757FEFFF755FEFFF753FE201C6A
:105A9000FFF78EFE019B0120A37107B0F0BDC04649
:105AA000800A00200060074038B5151C027A041CEB
:105AB0000B1C032A00D04B02201C11211A1CFFF7DB
:105AC0000FFF002806D00423201C6371FFF770FE2F
:105AD000002005E08022201C291C9200FFF79EFE7A
