:1000000000180020C100000029840000F5830000D2
:10001000F5830000F5830000F5830000F583000000
:10002000F5830000F5830000F583000029840000BB
:1000300029840000F583000029840000E583000086
:1000400029840000298400002984000029840000FC
:1000500029840000298400002984000029840000EC
:10006000714F0000298400002984000029840000C9
:10007000AD9800008D9C00006DA000002984000058
:100080002984000029840000F179000029840000FF
:1000900029840000298400002984000029840000AC
:1000A000198A0000298400002984000029840000A6
:1000B000F1770000298400002984000029840000D1
:1000C00038B508F0B5F9434A434B1A60434A444BEC
:1000D0001A60444A444B1A60444B08221978114272
:1000E00002D019780A431A70414B2A221A70002351
:1000F000404A41499A188A4204D24049C9580433B7
:100100001160F5E73E4B3F491A1F181D00238A4234
:1001100002D21360031CF6E73B493C4A5958101CB5
:1001200099500433C02BF7D100239A083849920024
:10013000521803211940C9001568FF248C40A543BB
:100140002C1C80258D40291C214301331160202B5C
:10015000EBD1304B8A2218602F4B1A702F4B242280
:100160001A702F4BA0221A701A1C2E4B1978880770
:10017000FBD51978CD06FCD418780C21014008294C
:10018000FAD12949032008702849402008701978BD
:100190008806FCD519784D06FCD525492548086008
:1001A0002021117019780C220A400C2AFAD1224A17
:1001B000224B1A60224A234B1A60234B07221A60F3
:1001C00062B608F003FB0DF00FFC08F037F909F0F8
:1001D000C1F8FEE7300004F034800440823F0000A4
:1001E000388004400100000F3C80044002D00740EA
:1001F00000E0074060FDFF1F00FFFF1FFCF500004F
:1002000004FFFF1F3C0D00200000000000F9FF1F4D
:1002100000E400E008ED00E0005006400140064028
:1002200000400640064006400440064005400640A7
:100230004480044000000110C00005050480044013
:100240007FBB000014E000E010E000E0FFFFFFFFD4
:10025000FFFFFFFFFFFFFFFFFFFFFFFFFFFFFFFFAE
:10026000FFFFFFFFFFFFFFFFFFFFFFFFFFFFFFFF9E
:10027000FFFFFFFFFFFFFFFFFFFFFFFFFFFFFFFF8E
:10028000FFFFFFFFFFFFFFFFFFFFFFFFFFFFFFFF7E
:10029000FFFFFFFFFFFFFFFFFFFFFFFFFFFFFFFF6E
:1002A000FFFFFFFFFFFFFFFFFFFFFFFFFFFFFFFF5E
:1002B000FFFFFFFFFFFFFFFFFFFFFFFFFFFFFFFF4E
:1002C000FFFFFFFFFFFFFFFFFFFFFFFFFFFFFFFF3E
:1002D000FFFFFFFFFFFFFFFFFFFFFFFFFFFFFFFF2E
:1002E000FFFFFFFFFFFFFFFFFFFFFFFFFFFFFFFF1E
:1002F000FFFFFFFFFFFFFFFFFFFFFFFFFFFFFFFF0E
:10030000FFFFFFFFFFFFFFFFFFFFFFFFFFFFFFFFFD
:10031000FFFFFFFFFFFFFFFFFFFFFFFFFFFFFFFFED
:10032000FFFFFFFFFFFFFFFFFFFFFFFFFFFFFFFFDD
:10033000FFFFFFFFFFFFFFFFFFFFFFFFFFFFFFFFCD
:10034000FFFFFFFFFFFFFFFFFFFFFFFFFFFFFFFFBD
:10035000FFFFFFFFFFFFFFFFFFFFFFFFFFFFFFFFAD
:10036000FFFFFFFFFFFFFFFFFFFFFFFFFFFFFFFF9D
:10037000FFFFFFFFFFFFFFFFFFFFFFFFFFFFFFFF8D
:10038000FFFFFFFFFFFFFFFFFFFFFFFFFFFFFFFF7D
:10039000FFFFFFFFFFFFFFFFFFFFFFFFFFFFFFFF6D
:1003A000FFFFFFFFFFFFFFFFFFFFFFFFFFFFFFFF5D
:1003B000FFFFFFFFFFFFFFFFFFFFFFFFFFFFFFFF4D
:1003C000FFFFFFFFFFFFFFFFFFFFFFFFFFFFFFFF3D
:1003D000FFFFFFFFFFFFFFFFFFFFFFFFFFFFFFFF2D
:1003E000FFFFFFFFFFFFFFFFFFFFFFFFFFFFFFFF1D
:1003F000FFFFFFFFFFFFFFFFFFFFFFFFFFFFFFFF0D
:10040000FFFFFFFFFFFFFFFFFFFFFFFFFEFFFFFFFD
:1004100010B5064C2378002B07D1054B002B02D0DA
:10042000044800E000BF0123237010BD00FFFF1F40
:1004300000000000FCF5000008B5084B002B03D0BD
:100440000748084900E000BF07480368002B03D0B5
:10045000064B002B00D0984708BDC04600000000A6
:10046000FCF5000004FFFF1F00FFFF1F000000005D
:100470000A1C42430023120A984202D04B1E9941A3
:10048000CBB29B18D8B27047054A064913884B4334
:1004900005495B189BB218121380C318D8B2704775
:1004A000E8FDFF1F050800001936000010B5041C08
:1004B000FFF7EAFF211CFFF7DBFF10BD00207047AC
:1004C00037B5036800241D686B461C705C709C7017
:1004D00001AB0A1C1C705C709C706946A84737BD54
:1004E00008B5083005F076FF08BD07B56B46D97131
:1004F00007330830191C012205F06CFF0EBD08B54A
:100500008C23DB00C01805F01DFB08BD08B58C234B
:10051000DB00C01805F09FFB08BD10B58C24E4007B
:10052000001905F059FB10BD10B58C24E40000192A
:1005300005F01BFC10BD08B507F096FE08BD08B518
:1005400007F0ACFE08BD38B5051C081C0C1C07F0F4
:10055000B3FF2B68021C5B68281C211C984738BD20
:1005600008B5FFF7F0FF08BD08B5FFF7ECFF08BDC1
:1005700008B508F049FF08BD38B50368041C1B68BE
:100580009847051C201C08F0EDFE281838BD38B52A
:10059000041CFFF7D8FF051C201C08F0E3FE2818F8
:1005A00038BD38B5041CFFF7CEFF051C201C08F031
:1005B000D9FE281838BD38B50A220023041C08F0DB
:1005C000E3FE051C201C08F0CDFE281838BD38B508
:1005D000041C08F019FF051C201C08F0C3FE281895
:1005E00038BD38B50A220023041C08F0CDFE051CD6
:1005F000201C08F0B7FE281838BD38B5D2B2002349
:10060000041C08F0C1FE051C201C08F0ABFE2818D5
:1006100038BD30B5051C8BB001A80A1C0024291C6C
:1006200001230470447005F086FE0BB030BDFFFF5F
:1006300010B5131C034A0C1C1168221C05F07BFE2C
:1006400010BDC0465808002013B56C460734211C65
:10065000012205F045FC012801D1207801E00120AC
:10066000404216BD017870220023114202D0024B95
:1006700018600123181C704758080020F0B58DB091
:1006800003AC019200220B1C227062700A781C4994
:10069000071C45182F2A14D15E78002E11D1281C72
:1006A00005F042FE281C391C05F001FC002824D06E
:1006B000019A0126002A20D0281CFFF7D3FF061C30
:1006C0001BE01A1C201C291C012305F034FE061E09
:1006D00013D02278702313400ED0094BFF180ECC94
:1006E0000EC70ECC0EC70ECC0EC70199002904D040
:1006F000281CFFF7B7FF00E01E1C301C0DB0F0BD3A
:100700003C04000038B5037F051C041C1C35002B7D
:1007100002D0281C05F008FEA27E281C211CFFF731
:1007200087FF237F0120002B02D00023E37601E026
:10073000E076181C38BD08B5037F002B02D01C30B2
:1007400005F0F2FD08BD08B5017806F001FF08BD0F
:10075000064B1A78072A01D907221A70044A1B7817
:1007600012785A43034B1A707047C04692FDFF1F20
:10077000A0FDFF1F6008002008B501210D2007F033
:10078000DBFE642008F008F80D20002107F0D4FEFD
:10079000642008F001F808BD70B5C023214E9B000D
:1007A000F418331CFF221A705A709A700333A34254
:1007B000F8D11D4D281CFFF7C6FF1C4807F0ECFFC1
:1007C000331CFF221A7000225A709A700333A3421E
:1007D000F7D1281CFFF7B7FFFA20800007F0DCFFF5
:1007E000321C0023FF211370517093700332A24218
:1007F000F7D1281CFFF7A7FFFA20800007F0CCFFF5
:10080000331C00221A705A70FF229A700333A342DD
:10081000F7D1281CFFF797FFFA20800007F0BCFFF4
:1008200070BDC0466C0400206008002088130000E2
:1008300070B50B4C0B4E201C311C07F085FC0028BA
:100840000CD0094D0949281CFFF78AFEB168281C05
:100850000A22FFF7D2FE201C07F04CF970BDC046FB
:1008600034040020DC030020680B0020D8E80000DE
:10087000134B1A78134B022A01D11E221DE0032AC2
:1008800001D13C2219E0042A02D19622520014E040
:10089000052A02D1E12292000FE0062A02D1E122CC
:1008A000D2000AE0072A02D1E122120105E0082A5B
:1008B00002D10122524200E00A221A607047C0466B
:1008C00095FDFF1F8CFDFF1F10B5074C06202378F8
:1008D000C821002B00D0FF2107F080FE23780122E1
:1008E0005340237010BDC04654FFFF1F08B50020C1
:1008F000FFF721FE124B1978884202D00020FFF743
:100900001EFE0120FFF717FE0E4B1978884202D019
:100910000120FFF714FE0220FFF70DFE0A4B1978A5
:10092000884202D00220FFF70AFE0320FFF703FEF1
:10093000064B1978884202D00320FFF700FE08BD5D
:1009400092FDFF1F56FFFF1F95FDFF1F59FFFF1F61
:100950002C4AF8B500252C4B2C4F15702C4C2D4AE9
:100960001D702D485A23391C1570237007F0ECFBBD
:10097000A84246D0294E2A49301CFFF7F1FDB9683C
:10098000301CFFF72EFE27482749BA68006801236C
:100990000B70824201D14D2304E02448006882425A
:1009A00002D14E23237019E021480068824201D110
:1009B0005023F7E7013210D1522222701D4A1278DB
:1009C0004D2A01D10F4A06E04E2A01D10E4A02E01B
:1009D000502A03D10F4A137000E00D700B78002BE2
:1009E0000CD01549301CFFF7BBFD2178301CFFF7F8
:1009F000C3FD2378522B01D00E4A1370064807F02E
:100A000079F8F8BDA907002068040020DC03002065
:100A100014040020C807002034040020680B0020C4
:100A2000E4E80000D803002040FFFF1F5CFFFF1F29
:100A3000F80300201C040020F7E8000008B5044873
:100A4000037A002B02D0083005F06EFC08BDC046CA
:100A50003C040020002907D00B01CA0701D4C018AC
:100A600001E0181A0F30C0B27047FFFF38B51F4BB6
:100A70001A1C2D321D1C0024FF2119705C709C7003
:100A800003339342F7D1E1B21020FFF7E3FF0323D2
:100A90005843FF23281803700134002343708370E8
:100AA000102CF0D11248EA181118FF2008701149D3
:100AB000033B5018002101700F4812181170191CC7
:100AC0002D31EFD10F24E1B20020FFF7C3FF032344
:100AD0005843FF2328180370013C002343708370A0
:100AE0009C42F0D10548FFF72EFE38BD6C04002073
:100AF000FD020000FE020000FF020000600800206E
:100B000008B5FFF7A7FF03235843044B1818FF232A
:100B1000037043700023837008BDC0466C0400203E
:100B200038B500234D48FF24C1180A1CC032147088
:100B30000C1C0022C134C231033322700A70302BE6
:100B4000F0D181180C1C0023F034F2312370637053
:100B500003320B70A82149008A42F2D19024C218B6
:100B6000A4001119FF240C703D49033355180021CE
:100B700029703C4D52191170302BEFD107200621FE
:100B8000FFF7BEFF0620011CFFF7BAFF0520062174
:100B9000FFF7B6FF04200721FFF7B2FF0520082169
:100BA000FFF7AEFF06200821FFF7AAFF0720092163
:100BB000FFF7A6FF06200A21FFF7A2FF05200A2162
:100BC000FFF79EFF04200A21FFF79AFF0920062164
:100BD000FFF796FF0A200621FFF792FF0B2007215F
:100BE000FFF78EFF0B200821FFF78AFF0B2009215A
:100BF000FFF786FF0A20011CFFF782FF09200A2168
:100C0000FFF77EFF09200721FFF77AFF092008215F
:100C1000FFF776FF0920011CFFF772FFFFF798FD31
:100C20001148FFF790FD002C0ADB211C062007F07D
:100C3000D5FCFFF7FDFD012007F0AEFD013CF2E71A
:100C40000024211C062007F0C9FC0134FFF7F0FD49
:100C5000012007F0A1FDFF2CF3D1E4E76C04002094
:100C6000410200004202000060080020054BC02243
:100C70009200991800221A705A709A7003338B42AE
:100C8000F8D170476C040020084A08B5002313709F
:100C9000074A1178994202D01370064A1370FFF781
:100CA000E5FF0548FFF74FFD08BDC046940700204B
:100CB0001D0400204CFFFF1F6008002013B5112009
:100CC00007F05AFC144C012808D1102007F054FCFE
:100CD000012803D1114A1378002B12D12378002B5D
:100CE00019D10E4B1B78002B15D10D4B1B680193AE
:100CF0000C4B019A1B6832339A420CD901232370A2
:100D000009E0002313702370054B1B680093009AC1
:100D1000044B1A60E2E713BD96FDFF1F2C04002070
:100D2000700A002060FFFF1F38B5094C051C0949F7
:100D3000201CFFF715FC092D04DC2368201C1B6810
:100D400030219847291C201CFFF712FC38BDC046F3
:100D5000680B002008E9000010B50A4B0A4C19780E
:100D60000A22201C002308F00FFB084B1878FFF71D
:100D7000DBFF074B1878FFF7D7FF201C08F0F2FACB
:100D800010BDC04680FDFF1F680B00201F0400201F
:100D900062FDFF1F08B5084B08481B788370084B9D
:100DA0001B784370074B1B78037004F007FC04F0BA
:100DB000B3FC04F041FB08BD80FDFF1F20040020B0
:100DC0001F04002062FDFF1F38B52A4C2368002B4A
:100DD00010DA04F091FB00281AD104F097FB0028E8
:100DE00016D104F09DFB002812D1234D2B78002B47
:100DF0000ED11FE0002B0BD004F07EFB002807D1A2
:100E000004F084FB002803D104F08AFB002823D0DF
:100E100004F072FB00282CD104F078FB041E28D1CA
:100E200004F07EFB002824DD134B1A78002A20D022
:100E30001C701EE0114B17221A70114B3B221A70C6
:100E40002268104B3C321A70FFF7A4FF0E4BFF22B2
:100E50001A7001232B70DBE7084B22681870084BCF
:100E60001870084B1A70FFF795FF074BFF221A7096
:100E7000CEE738BDBC0700201E04002080FDFF1F08
:100E80001F04002062FDFF1F90FDFF1F08B504F046
:100E900047FB054B187004F039FB044B187004F045
:100EA0002BFB034B187008BD62FDFF1F1F040020C1
:100EB00080FDFF1FF0B595B0FFF7E8FF354B3C22F2
:100EC0001B78354F5A43354B3D681B78344ED31849
:100ED000344A059310680AAB33490A909D60306824
:100EE000324D0C688C46D860296831485C600068D7
:100EF0001961304C30492468096898612F485C6159
:100F0000D96104682E491C620C685C6212790492F3
:100F1000049C07AA14706446247954703F79977032
:100F20003679D6702D791571224D2C79204D54715A
:100F30002C79214D94712C79D47100791072097932
:100F4000002051720121494284001C59059DA5428F
:100F500002DD013400D0115C01300928F4D1481CB5
:100F60000CD10499002084001D196D681C59A542FC
:100F700001DD1118497801300828F4D1002900D189
:100F80000121104B1970FFF7E3FBFFF7AFFC15B021
:100F9000F0BDC04680FDFF1FA4FDFF1F1F04002001
:100FA000ACFDFF1F98FDFF1F78FDFF1FB4FDFF1F65
:100FB000C4FDFF1FBCFDFF1FCCFDFF1FD4FDFF1FA5
:100FC000DCFDFF1F92FDFF1F034B3C201B785843A5
:100FD000024B1B78C01870471F04002062FDFF1FE2
:100FE0000F4B10491B78104A0F2B02D80B700023AF
:100FF00014E0181C10380D2803D80F2008700F3B80
:101000000CE0181C1E380F2804D82D20C31A0B70B2
:101010000F2303E0002008703C21CB1A13707047A7
:1010200062FDFF1F6A0400206B04002008B5FFF773
:10103000D7FF094B1878094B1978FFF70BFD0323ED
:101040005843074B1818074B1A7802705A784270A9
:101050009B78837008BDC0466A0400206B040020A2
:101060006C0400209007002038B50D1C174C082890
:1010700021D80AF03DFC05080B0E1114171A1D00AB
:10108000201C134919E0201C124916E0201C1249AB
:1010900013E0201C114910E0201C11490DE0201C18
:1010A00010490AE0201C104907E0201C0F4904E009
:1010B000201C0F4901E00F49201CFFF755FA002DB5
:1010C00002D0201C08F04EF938BDC046680B002045
:1010D0000AE9000013E9000017E900001BE900001D
:1010E00040EF00001FE9000023E9000027E90000AD
:1010F0002BE9000033E90000F0B5ABB0BD4906A80C
:101100000CF073FD06A90122002319A805F0DCFFED
:1011100019A8FFF7F7FAB84C002806D106A9201C39
:10112000FFF71EFA201CB54901E0B549201CFFF766
:1011300038FA19A80CA9322206F02CF8002811D18F
:10114000B049201CFFF710FA19A9201CFFF708FA74
:10115000AD49201CFFF708FA6B467F331878012150
:10116000FFF782FFA94903A80CF03FFDA84909A891
:101170000CF03BFD3223009319A803A909AA0CAB7C
:1011800006F02FF900280DD0A249201CFFF7ECF93A
:101190000CA9201CFFF7FBF90CA80CF01FFC9E4BC0
:1011A000186008E06B467F3318780121FFF75CFF79
:1011B000994BC8221A60994909A80CF016FD02AD96
:1011C00032230093019519A803A909AA0CAB06F0D4
:1011D00023F9934E00280ED0201C9249FFF7C4F942
:1011E0002B78002B01D0904900E09049201CFFF79C
:1011F000D8F92B7806E06B467F3318780121FFF78A
:1012000033FF01238A4909A86D46337009350CF074
:10121000ECFC32230093019519A803A909AA0CAB91
:1012200006F0FAF8834E071E0FD0201C8249FFF704
:101230009BF92B78002B01D07B4900E07B49201CD7
:10124000FFF7AFF92B78337006E06B467F331878E1
:101250000121FFF709FF3770784903A80CF0C5FC9E
:10126000774909A80CF0C1FC3223009319A803A9FF
:1012700009AA0CAB06F0B5F8051E0DD07149201C6B
:10128000FFF772F90CA9201CFFF781F90CA80CF0EC
:101290009FFB6D4B186007E06B467F331878012188
:1012A000FFF7E2FE684B1D60684909A80CF09DFC41
:1012B0003223009319A803A909AA0CAB06F091F8F0
:1012C000634D061E0CD06349201CFFF74DF90CA995
:1012D000201CFFF75CF90CA80CF07AFB286006E0F4
:1012E0006B467F3318780121FFF7BEFE2E604B4915
:1012F00009A86D460CF079FC0A353223009301955C
:1013000019A803A909AA0CAB06F086F8524E071ECD
:101310000FD0201C5149FFF727F92B78002B01D063
:10132000414900E04149201CFFF73BF92B7833701D
:1013300006E06B467F3318780121FFF795FE377082
:10134000474909A86D460CF050FC0B353223009339
:10135000019519A803A909AA0CAB06F05DF8414E46
:1013600000280ED0201C4049FFF7FEF82B78002BF8
:1013700001D02D4900E02D49201CFFF712F92B78F0
:1013800006E06B467F3318780121FFF76DFE0123DD
:10139000364909A833700CF028FC3223009319A8B1
:1013A00003A909AA0CAB06F01CF8314D061E0DD09E
:1013B000201C3049FFF7D8F80CA9201CFFF7E7F8EC
:1013C000281C0CA908220CF058FB06E06B467F3362
:1013D00018780121FFF748FE2E7020AB1B78002BF8
:1013E00002D019A8FFF7A7F919A805F087FE2BB0BE
:1013F000F0BDC046FBEC0000680B002052E9000085
:1014000062E9000072E900007CE9000089E900005F
:1014100093E9000098E9000070FDFF1FA5E90000B6
:1014200089FDFF1FAAE9000047E900004CE9000020
:10143000C1E900000D040020C8E90000D7E9000060
:10144000E1E90000E7E9000050FFFF1FF5E90000B7
:10145000F4030020FBE900009307002009EA0000E4
:1014600020EA000069FDFF1F27EA000036EA0000BD
:101470007007002041EA0000F0B5884BABB00124B2
:10148000874906A81C700CF0B0FB221C002306A99B
:1014900019A805F019FE834E83490022301CFFF77E
:1014A000EDF819A8FFF72EF9804C002806D106A9FF
:1014B000201CFFF755F8201C7D4901E07D49201CC8
:1014C000FFF76FF819A80CA9322205F063FE002877
:1014D00011D17949201CFFF747F819A9201CFFF703
:1014E0003FF87649201CFFF73FF86B467F331878AA
:1014F0000121FFF7B9FD724903A80CF076FB6D4698
:10150000704909A80CF071FB0B353223009301954B
:1015100019A803A909AA0CAB05F07EFF6A4F0028A1
:101520000ED0201C6949FFF71FF82B78002B01D043
:10153000674900E06749201CFFF733F82B7806E085
:101540006B467F3318780121FFF78EFD0123624936
:1015500009A86D463B700B350CF047FB3223009316
:10156000019519A803A909AA0CAB05F055FF5B4F1B
:1015700000280ED0201C5A49FEF7F6FF2B78002BCE
:1015800001D0534900E05349201CFFF70AF82B789B
:1015900006E06B467F3318780121FFF765FD0123D4
:1015A000504909A83B700CF020FB3223009319A886
:1015B00003A909AA0CAB05F014FF051E0DD04A497A
:1015C000201CFEF7D1FF0CA9201CFEF7E0FF0CA8A1
:1015D0000CF0FEF9454B187007E06B467F33187826
:1015E0000121FFF741FD414B1D70414909A80CF055
:1015F000FCFA3223009319A803A909AA0CAB05F041
:10160000F0FE3C4D00280CD03B49201CFEF7ACFFFF
:101610000CA9201CFEF7BBFF0CA80CF0D9F9287010
:1016200007E06B467F3318780121FFF71DFD052386
:101630002B70324909A80CF0D8FA3223009319A86C
:1016400003A909AA0CAB05F0CCFE2D4D071E0CD04A
:101650002C49201CFEF788FF0CA9201CFEF797FFE1
:101660000CA80CF0B5F9286006E06B467F331878BB
:101670000121FFF7F9FC2F6020AB1B78002B02D073
:1016800019A8FFF758F820490022301CFEF7F6FF92
:1016900019A805F033FD2BB0F0BDC046D6030020DD
:1016A00054EA000064FFFF1F5EEA0000680B0020A0
:1016B00052E9000062E9000072E900007CE90000E4
:1016C00068EA00006EEA000074FDFF1F75EA000082
:1016D00047E900004CE9000084EA000094FDFF1F88
:1016E0008BEA00009AEA0000A1EA000058FFFF1F01
:1016F000B0EA000068FDFF1FB5EA0000C2EA000082
:10170000BC070020C9EA0000D8EA0000F0B5ABB081
:10171000DC4906A80CF069FA002306A9012219A8E1
:1017200005F0D2FCD84CD949201C0022FEF7A6FFB8
:1017300019A8FEF7E7FFD64C002806D106A9201C01
:10174000FEF70EFF201CD34901E0D349201C0CAD4D
:10175000FEF727FF19A8291C322205F01BFD0028DF
:1017600011D1CE49201CFEF7FFFE19A9201CFEF75F
:10177000F7FECB49201CFEF7F7FE6B467F33187847
:101780000121FFF771FCC74E03A8311C0CF02DFAA4
:10179000311C09A86E460CF028FA0B363223009350
:1017A000019619A803A909AA2B1C05F035FE071EEE
:1017B00010D0201CBC49FEF7D7FE3378002B01D097
:1017C000BA4900E0BA49201CFEF7EBFE3378B94A6B
:1017D000137007E06B467F3318780121FFF744FC54
:1017E000B44B1F70B44909A80CF0FFF932230093E1
:1017F00019A803A909AA2B1C05F0F3FD00282FD076
:101800002B78AE4E002B1AD0AD49281C0CF0F6F9FF
:101810000CF0DEF8AB49071C00200CF0EFF90CF0DF
:10182000D7F8FF233C221F4057430340FB18A6492B
:10183000002033600CF0E2F90CF0CAF83071201C83
:10184000A249FEF78DFE3168201CFEF791FE201C98
:101850009F49FEF785FE3179201CFEF7ACFE05E0BE
:101860006B467F3318780121FFF7FEFB994909A8E1
:101870000CF0BBF93223009319A803A909AA2B1C69
:1018800005F0AFFD002830D02B78002B1BD08C4901
:10189000281C0CF0B3F90CF09BF88A49061C0020B8
:1018A0000CF0ACF90CF094F8FF231E403C2272437C
:1018B0000340894ED3188449002033600CF09EF910
:1018C0000CF086F83071201C8449FEF749FE824EE8
:1018D000201C3168FEF74CFE201C7D49FEF740FEBF
:1018E0003179201CFEF767FE05E06B467F331878E0
:1018F0000121FFF7B9FB7A4909A80CF076F93223E8
:10190000009319A803A909AA2B1C05F06AFD002859
:101910002FD02B78734E002B1AD06949281C0CF05D
:101920006DF90CF055F86749071C00200CF066F9BA
:101930000CF04EF8FF233C221F4057430340FB1896
:101940006149002033600CF059F90CF041F8307116
:10195000201C6549FEF704FE3168201CFEF708FED6
:10196000201C5B49FEF7FCFD3179201CFEF723FEAD
:1019700005E06B467F3318780121FFF775FB5B4963
:1019800009A80CF032F93223009319A803A909AA77
:101990002B1C05F026FD002830D02B78002B1BD007
:1019A0004749281C0CF02AF90CF012F84549061C8E
:1019B00000200CF023F90CF00BF8FF231E403C2212
:1019C000724303404A4ED3183F49002033600CF065
:1019D00015F90BF0FDFF3071201C4649FEF7C0FDE4
:1019E000434E201C3168FEF7C3FD201C3849FEF72A
:1019F000B7FD3179201CFEF7DEFD05E06B467F3335
:101A000018780121FFF730FB3B4909A80CF0EDF8ED
:101A10003223009319A803A909AA2B1C05F0E1FCA5
:101A200000286FD02B78354E002B1AD02449281C63
:101A30000CF0E4F80BF0CCFF2249071C00200CF05E
:101A4000DDF80BF0C5FFFF233C221F405743034046
:101A5000FB181D49002033600CF0D0F80BF0B8FFE4
:101A60003071201C2649FEF77BFD3168201CFEF7F3
:101A70007FFD201C1649FEF773FD3179201CFEF70F
:101A80009AFD45E054EA000064FFFF1F5EEA000093
:101A9000680B002052E9000062E9000072E90000D2
:101AA0007CE90000DAEA0000DEEA000047E9000015
:101AB0004CE9000041FFFF1FEAEA000098FDFF1F0C
:101AC00008E90000EFEA0000F2EA0000F5EA000091
:101AD00002EB000005EB000078FDFF1F0AEB0000A1
:101AE00017EB0000A4FDFF1F1CEB000029EB00001A
:101AF000ACFDFF1F2EEB00003BEB0000B4FDFF1F11
:101B000040EB00006B467F3318780121FFF7ACFAF9
:101B1000D94909A80CF069F83223009319A803A940
:101B200009AA2B1C05F05DFC002830D02B78002B77
:101B30001BD0D249281C0CF061F80BF049FFD049AA
:101B4000061C00200CF05AF80BF042FFFF231E4049
:101B50003C2272430340CB4ED318CB490020336064
:101B60000CF04CF80BF034FF3071201CC749FEF725
:101B7000F7FCC44E201C3168FEF7FAFC201CC44957
:101B8000FEF7EEFC3179201CFEF715FD05E06B46F3
:101B90007F3318780121FFF767FABE4909A80CF0D6
:101BA00024F83223009319A803A909AA2B1C05F0D5
:101BB00018FC00282FD02B78B74E002B1AD0AF4935
:101BC000281C0CF01BF80BF003FFAD49071C00208C
:101BD0000CF014F80BF0FCFEFF233C221F4057438F
:101BE0000340FB18A849002033600CF007F80BF005
:101BF000EFFE3071201CA949FEF7B2FC3168201CB1
:101C0000FEF7B6FC201CA249FEF7AAFC3179201C85
:101C1000FEF7D1FC05E06B467F3318780121FFF712
:101C200023FA9F4909A80BF0E0FF3223009319A87B
:101C300003A909AA2B1C05F0D4FB002830D02B786F
:101C4000002B1BD08D49281C0BF0D8FF0BF0C0FED9
:101C50008B49061C00200BF0D1FF0BF0B9FEFF23CF
:101C60001E403C22724303408E4ED318864900200A
:101C700033600BF0C3FF0BF0ABFE3071201C8A49C0
:101C8000FEF76EFC874E201C3168FEF771FC201CAD
:101C90007F49FEF765FC3179201CFEF78CFC05E0DE
:101CA0006B467F3318780121FFF7DEF97F4909A8D9
:101CB0000BF09BFF3223009319A803A909AA2B1C40
:101CC00005F08FFB00282FD02B78794E002B1AD0EF
:101CD0006A49281C0BF092FF0BF07AFE6849071C3A
:101CE00000200BF08BFF0BF073FEFF233C221F4004
:101CF00057430340FB186449002033600BF07EFF1C
:101D00000BF066FE3071201C6A49FEF729FC316831
:101D1000201CFEF72DFC201C5D49FEF721FC3179CB
:101D2000201CFEF748FC05E06B467F331878012144
:101D3000FFF79AF9604909A80BF057FF3223009387
:101D400019A803A909AA2B1C05F04BFB002830D0C9
:101D50002B78002B1BD04949281C0BF04FFF0BF0B0
:101D600037FE4749061C00200BF048FF0BF030FE01
:101D7000FF231E403C2272430340504ED318424979
:101D8000002033600BF03AFF0BF022FE3071201C74
:101D90004B49FEF7E5FB494E201C3168FEF7E8FB96
:101DA000201C3B49FEF7DCFB3179201CFEF703FCCD
:101DB00005E06B467F3318780121FFF755F9322390
:101DC000009319A803A93F4A2B1C05F00AFB002821
:101DD00012D02B78002B06D0281C002110220CF0EA
:101DE00081F8394B1860201C3849FEF7B9FB201CDC
:101DF000291CFEF7CCFB08E06B467F3318780121E5
:101E0000FFF732F9324A304B1A603223009319A897
:101E100003A9304A2B1C05F0E4FA002812D02B78D5
:101E2000002B06D0281C002110220CF05BF82A4B56
:101E30001860201C2949FEF793FB201C291CFEF783
:101E4000A6FB08E06B467F3318780121FFF70CF9F9
:101E50001F4A214B1A6020AB1B78002B02D019A817
:101E6000FEF769FC1E4900221E48FEF707FC19A870
:101E700005F044F92BB0F0BD4DEB000008E900007F
:101E8000EFEA0000BCFDFF1FF2EA000052EB000089
:101E900002EB00005FEB0000C4FDFF1F64EB0000DD
:101EA00071EB0000CCFDFF1F76EB000083EB000020
:101EB000D4FDFF1F88EB000095EB0000DCFDFF1F49
:101EC0009AEB0000A7EB000064FDFF1FB7EB0000DA
:101ED000FFFFFF00CAEB00006CFDFF1FDBEB000003
:101EE000D8EA000064FFFF1F70B5A8B0614907A8D9
:101EF0000BF07BFE002307A9012217A805F0E4F8E8
:101F00005D4C5E49201C0022FEF7B8FB17A8FEF7C7
:101F1000F9FB261C5A4C002806D107A9201CFEF705
:101F20001FFB201C574901E05749201CFEF739FBD5
:101F300017A80AA9322205F02DF9002811D153491A
:101F4000201CFEF711FB17A9201CFEF709FB5049C6
:101F5000201CFEF709FB6B46773318780121FFF749
:101F600083F84C4905A80BF040FE4B4903A80BF041
:101F70003CFE3223009317A805A903AA0AAB05F07B
:101F800030FA00280FD04549201CFEF7EDFA0AA9C7
:101F9000201CFEF7FCFA0AA800210A220BF0B0FF71
:101FA0003F4B186008E06B46773318780121FFF744
:101FB0005BF83C4A3A4B1A603B4903A80BF015FE0C
:101FC0003223009317A805A903AA0AAB05F009FA62
:101FD000364D00280ED03649201CFEF7C5FA0AA956
:101FE000201CFEF7D4FA0AA800210A220BF088FF71
:101FF000286007E06B46773318780121FFF734F843
:102000002C4B2B602C4903A80BF0EFFD32230093DF
:1020100017A805A903AA0AAB05F0E3F9274D002884
:102020000ED02749201CFEF79FFA0AA9201CFEF7B4
:10203000AEFA0AA800210A220BF062FF286007E02E
:102040006B46773318780121FFF70EF81D4B2B6094
:102050001EAB1B78002B02D017A8FEF76CFB1A49A9
:102060000022301CFEF70AFB17A805F047F828B03D
:1020700070BDC046EFEB000064FFFF1F5EEA00008A
:10208000680B002052E9000062E9000072E90000DC
:102090007CE90000FAEB000001EC000006EC000017
:1020A000D80300201FE07F8015EC00005CFFFF1FBD
:1020B0001AEC00009F607F8029EC0000F8030020EC
:1020C0002FEC0000CF307F80D8EA000010B50D4B18
:1020D00003201A78041C54430B49C8230C1923709D
:1020E0006370A370541C0232444342430C198A1893
:1020F00023706370A3700548137053709370FEF7DC
:1021000022FB10BD88FDFF1F6C040020600800202A
:102110007FB5054901A80BF068FD01A9002203481D
:10212000FEF7ACFA07B000BD3FEC000064FFFF1FF4
:1021300008B500231A1C0C49585C002806D1C918A0
:102140008878002802D14978002901D00132D2B222
:10215000064903338B42EED1042A04D8012006F04D
:102160001BFB0120FFE708BD6C040020FD020000FE
:10217000000909090F23002905D00B01CA0701D561
:10218000C01801E00F33181AC0B27047084A13682C
:10219000191C5B39B22902D8B42B02DD03E0592B9C
:1021A00001DCB42101E087218900CB1A136070475C
:1021B00088070020034AB42113684900CB1A136032
:1021C0007047C0468807002037B5051C0835281C15
:1021D000FEF73AFA6C46A071281CFEF735FAE0715A
:1021E000E0883EBD13B5041C0834201CFEF72CFA11
:1021F00001AB1870201CFEF727FA6B465871201CA3
:10220000FEF722FA6B469871201CFEF71DFA6B460A
:10221000D871019816BDFFFF70B51F4C011C201C22
:1022200008300122FEF704FA002805D11B491C489A
:10223000FEF7B7F9FEF774FC201CFFF7C5FF194B3A
:10224000984226D1201CFFF7CDFF201CFFF7CAFFC4
:10225000201CFFF7C7FF201CFFF7C4FF201CFFF75F
:10226000C1FF114E3060201CFFF7BCFF0C4C0F4D1E
:102270000F492860201CFEF777F93168201CFEF713
:1022800077F90C49201CFEF76FF92968201CFEF72E
:102290009EF9FEF7D3FB70BD3C04002052EC000019
:1022A000680B0020424D000030040020280400206C
:1022B00063EC000076EC0000F0B5D14C95B0D1494C
:1022C000201CFEF76EF9D049201CFEF76AF9FEF7D4
:1022D000B5FBCE4B1B78002B01D1CD4A1360CD4B03
:1022E000CD4E1B6800250493049ACC4BCC481A6051
:1022F000CC4B2A1C311C1D60FEF7C0F9CA4B1D6077
:10230000CA4B1D60CA4B1D60CA4B1D70CA4B1D7065
:10231000CA4B1D70CA4B1A78AA4201D101221A7009
:10232000C84D2F68002F36DB311C0EA80BF05DFC6A
:10233000C5490EA80BF036FC311C0EA80BF032FC80
:102340000A22381C0CA906F0E7F80CA90EA80BF01D
:1023500029FCBE4AB24F0EA9B818FEF75AF9021E60
:1023600010D0BB49201CFEF7FFF80EA9201CFEF779
:102370000EF9381C0EA90022FEF780F92B680133F4
:102380002B6008E001235B422B60AF4B311C1870BF
:10239000381CFEF773F9AF4D2B78002B1ED0A94BDC
:1023A0001B6801331AD1AC49201CFEF7DDF8291C4B
:1023B000201CFEF7ECF89A4AA44B291CD018FEF713
:1023C00028F9002805D0291C00229548FEF756F967
:1023D00004E02870A149201CFEF7E3F829780029C1
:1023E00022D09F4903A80BF000FC8D4D974A03A90A
:1023F000A818FEF70EF9002800D197E09949201C93
:10240000FEF7B2F80EA9201CFEF7C1F80EA90822AB
:102410008D480BF032FB0022281C03A9FEF72EF991
:10242000884B01221A6081E0864B1B680133D8D1AA
:102430008D4B1B78002B61D08C4E8D48326805F097
:10244000CBF9051E05DD3368984202D0013B984266
:1024500000D102358749201CFEF786F8291C201C74
:10246000FEF786F8201C8449FEF79BF801230193B0
:10247000019BAB4242DA814F694A744B804E381C53
:10248000D11808303288012303F0AFFE3A7A702366
:1024900000271A4203D0019A012701320192FEF768
:1024A000CDFA338801333380002FE4D0E0E72B7876
:1024B000302B00D12DE16B78302B00D129E171490F
:1024C000201CFEF751F80023F15E201CFEF77FF878
:1024D0006D49201CFEF748F8291C201CFEF757F810
:1024E000291C00224E48FEF7C9F8FEF7A7FA01237F
:1024F000328801323280002B00D072E75F4F484AA9
:10250000524B5F4E0837D118381C012332880EAD6C
:1025100003F06BFE0D22381C291C04F073F8574B96
:102520001A7A70231A4200D1F3E0C0E7574F06A889
:10253000391C0BF05AFB454A06A9A818FEF769F8A2
:10254000002800D1DEE05249201CFEF70DF80EA94C
:10255000201CFEF705F84F49201CFEF722F8FEF775
:10256000CBFD391C08A80BF040FB08A8FFF754FE70
:102570004949201CFDF7F8FF2A4E201C3168FEF760
:1025800030F8244B1B680593059A3368D218434BE7
:102590001A60354B1B78022B00D18BE0404B1B6837
:1025A000002B0BDD3F4B404A197812681F4B002966
:1025B00001D052420AE010218A1A07E0002B06D00F
:1025C000384B1A78194B002A00D010221A60374B6A
:1025D0001B68002B07DD334B1A78154B002A0CD0F3
:1025E0001022524209E0002B75D02E4B304A197848
:1025F00012680F4B002900D1103A1A606BE0C046F8
:10260000680B002078EC00007CEC0000C007002084
:1026100018040020700A0020D8EA000038040020C6
:1026200064FFFF1F70FDFF1F1004002098070020AB
:102630009C07002055FFFF1F0D0400208E0700207F
:102640008D07002084FDFF1FB00700203C04000020
:102650008BEC00007007002096EC0000A5EC000059
:10266000EDEA0000D1EC000056FFFF1F6C070020D0
:10267000C4080020B1EC0000C5EC00003C040020C0
:10268000D403002029ED000038ED0000E5EC000047
:10269000EBEC0000FAEC000006ED0000080400205E
:1026A00050FFFF1F69FDFF1F30040020F4030020CE
:1026B00028040020214B1B68DA0FD3185B10204A36
:1026C0005B42083313601F4B1B68DA0FD3185B1093
:1026D0001D4A083B1360391C0AA80BF086FA1B49F7
:1026E0000CA80BF082FA1A4A0AA9AD18281CFDF7AB
:1026F00090FF00281FD0281C0CA9FDF78AFF002896
:1027000019D10AE01349201CFDF74BFFFFF7D4FD58
:1027100011E0FEF793F90023EAE60F4B01221A704D
:102720000E4B1B68002B06D10D4B1B68002B02D1F2
:1027300001235B42336015B0F0BDC0463004002079
:1027400098070020280400209C07002015ED0000B9
:102750003C0400001BED000055FFFF1F50FFFF1F52
:10276000F4030020F0B59BB0071C0491161C0F2940
:1027700001D80F2A04D99C499C48FDF7F5FE31E1A8
:102780009B4C237A002B1CD1984D281C06F0EAFDA7
:102790009849281CFDF7E8FE391C281CFDF7E0FECF
:1027A0002721281CFDF7E8FE9348391C0122FDF77C
:1027B0003FFF002809D19149281CFDF7F2FEFEF7E2
:1027C000AFF98D48002103F068FC201CFFF7FCFCEA
:1027D0008B4B984227D1201CFFF704FD201CFFF7EC
:1027E00001FD201CFFF7FEFC0790201CFFF7FAFC00
:1027F000201CFFF7F7FC0390201CFFF7F3FC051CDF
:10280000201CFFF7E1FC01280DD1201CFFF7DCFCA8
:10281000C0B20290182801D0202804D1201CFFF754
:10282000E1FC002821D00024764B1B78002B03D03C
:10283000754B1B78002B02D07448FDF784FF744B56
:102840001B78002B07D0734B1B78002B03D16E4BEA
:102850001B78002B01D0FEF7F1F8002C00D0C1E06E
:102860006D496248FDF79DFEBCE0039B0F331E2BB4
:1028700003D92B1C0F331E2B01D8FEF7F7F9029951
:102880000195CB080A1C03994A43D117490F8A18AE
:10289000D210D2189A43089201220992002D03DA2D
:1028A0006B420021019309910399049A0C915318EA
:1028B000102B02DD10239B1A0C93019AB3180D9272
:1028C000102B02DD10239B1B0D93079B0026069304
:1028D00030270D9B9E4200DB82E0099A0699002A70
:1028E0000ED04E4B019A1B68013A9900591A079B6A
:1028F00059184B4B1B68F318D21A089B5A43891876
:102900003B48C2698A4203D0083003F0C6FB302737
:1029100000240C9B9C425DDA029B182B08D12F2FC0
:1029200016D933480EA93022083003F0D9FA0EE048
:10293000029920290CD1022F0AD92D4D0EA9083554
:10294000281C032203F0CCFA281CFDF77DFE00278B
:10295000BB1C0EAAD25D0EA9DBB2CB5C05927A1C21
:10296000D2B20B932E4B8A5C1B6801990A92FA1C17
:10297000D7B22C4DCA1A96420ADA5B429E4207DB56
:10298000264B03991B68CA18944201DA9C420ADA62
:10299000E0B2F1B2FEF75EF80323584300232D188E
:1029A0002B706B7013E0049AF1B21019C0B2FEF7ED
:1029B00051F8032358430B9B2D185B431B122B70BC
:1029C0000A9B5B431B126B70059B5B431B12AB7036
:1029D00001349EE70699089A01368918069178E72E
:1029E000012421E71BB0F0BD49ED0000680B002079
:1029F0003C04002050ED00004404002052EC000094
:102A0000424D00008C0700201D04002060080020BB
:102A100055FFFF1F9407002060ED0000980700207D
:102A20009C0700206C040020F7B50022604E614C2A
:102A3000614D6248111C326022602A60FFF792FEED
:102A4000FEF714F82B68002B1AD15D4F5D4C381C33
:102A5000211C05F079FB0028F4D0A26801320BD0CC
:102A6000594F5A49381CFDF77BFDA168381C0A22D2
:102A7000FDF7C3FDA4682C60514805F03BF8E1E781
:102A8000002153480A1CFFF76DFEFDF7EFFF336886
:102A9000002B1DD14A4F4B4C381C211C05F054FB18
:102AA0000028F4D0A3685A1C0ED02A6893420BD099
:102AB000454F4649381CFDF753FDA168381C0A22D2
:102AC000FDF79BFDA46834603D4805F013F8DEE790
:102AD000002140480A1CFFF745FEFDF7C7FF354AB5
:102AE0001268002A22D1364F364C381C211C05F0C2
:102AF0002BFB0028F3D0A3685A1C13D02A689342FA
:102B000010D0326893420DD02F4F3049381CFDF75A
:102B100027FDA168381C0A22FDF76FFDA468254B2C
:102B200001941C60264804F0E5FFD8E72A4C2B49A5
:102B3000271C0837381C4322FDF77AFD002805D1F1
:102B400027492148FDF723FDFDF7EAFF381C002146
:102B500003F0A3FAB021381C490003F09EFA201CB0
:102B60002049FDF714FD201C1F49FDF710FD201C16
:102B70001E49FDF70CFD201C1D49FDF7F1FC2968DD
:102B8000201CFDF72EFD201C1A49FDF7E9FC3168D9
:102B9000201CFDF726FD201C1749FDF7E1FC054B25
:102BA000201C1968FDF71DFDFDF748FFF7BDC04665
:102BB000D80300205CFFFF1FF803002074ED000025
:102BC00034040020DC030020680B0020D8E800005B
:102BD0007FED00008AED00003C040020EFEB0000D8
:102BE00052EC000095ED000004EB00009EED0000AB
:102BF000AEED0000B7ED0000BFED000070B5FEF7D0
:102C000035F83148FDF79FFD304900223048FDF787
:102C100035FD304E0021301C0A1CFFF7A3FD0024B7
:102C20007D2005F0B9FDFDF793FE2B4B1B78502B53
:102C300005D02A4A1278002A08D0012C06D000219B
:102C400027480A1CFFF78EFD012427E04D2B05D0F5
:102C5000244A1278002A08D0022C06D000212248EB
:102C60000A1CFFF77FFD022418E04E2B05D01F4AF7
:102C70001278002A08D0032C22D000211C480A1CFC
:102C8000FFF770FD032409E05A2B07D1002C05D073
:102C90000021301C0A1CFFF765FD0024102005F000
:102CA0006BFC051E06D1FFF7BFFE301C291C2A1C39
:102CB000FFF758FD112005F05FFC0028B0D170BD72
:102CC0005A2BEBD1E4E7C046600800205EEA000022
:102CD00064FFFF1FC7ED000014040020C807002098
:102CE00074ED0000A90700207FED000068040020BB
:102CF0008AED000038B5FEF773F9134B134D00242D
:102D00001C60134BB022281C12491A600AF06DFF98
:102D1000114BFF22281C1A70211C221CFFF722FDD8
:102D20000E4B18780E4B1978FDF794FE0323584389
:102D30000C4B181802780C4B1A7042785A70827833
:102D40009A70FDF705FD38BD980700207007002038
:102D50009C070020D2ED0000600800206A040020DB
:102D60006B0400206C0400209007002037B5174C3E
:102D700001AD291C0A22207805F0CEFB144B01215D
:102D80004942196021782A78124B092903D9303A2F
:102D9000D2B2120100E0A0221A600F4A1278002A73
:102DA00009D10E4A1278002A05D10D4A1278002A5C
:102DB00001D1A0221A600B4C0B49201C0AF015FF10
:102DC0000021201C0A1CFFF7CDFC37BD80FDFF1F32
:102DD000980700209C0700200004002069040020C0
:102DE0008F07002070070020D2ED000037B5174D87
:102DF00001AC2878211C0A2205F08EFB2B78092BC8
:102E000001D9627800E02278114B303A0021196034
:102E1000D2B2104B12011A600F4A12788A4209D1BD
:102E20000E4A12788A4205D10D4A12788A4201D19F
:102E3000A0221A600B4C0C49201C0AF0D6FE201C64
:102E400003210022FFF78EFC37BDC04680FDFF1F27
:102E5000980700209C07002000040020690400203F
:102E60008F07002070070020D2ED000037B5154D08
:102E700001AC0A222878211C05F04EFB2B78002299
:102E8000092B02D92278303AD2B20F4B12011A60C4
:102E90000E4A1278002A09D10D4A1278002A05D06C
:102EA0000C4A1278002A01D1A0221A600A4C0B4960
:102EB000201C0AF09AFE201C08210022FFF752FC79
:102EC00037BDC0461F0400209C07002000040020DE
:102ED000690400208F07002070070020D2ED000059
:102EE00037B5154D01AC2878211C0A2205F014FBDA
:102EF0002B78092B01D9627800E02278303AD2B2DF
:102F00000E4B12011A600E4A1278002A09D10D4A9E
:102F10001278002A05D00C4A1278002A01D1A0228A
:102F20001A600A4C0A49201C0AF05FFE201C0C2182
:102F30000022FFF717FC37BD1F0400209C0700206C
:102F400000040020690400208F0700207007002083
:102F5000D2ED000008B5FFF709FFFFF747FFFFF7C5
:102F600085FFFFF7BDFF064B1B78002B04D1054BF7
:102F700001211A784A401A70FDF760FD08BDC0466D
:102F8000000400208F07002010B5254C2378002B6B
:102F900044D1FFF7DFFF2348FDF7D5FBFDF7DCFE4B
:102FA000FDF78CFEFDF7D4FC1E2005F0F5FB11208B
:102FB00005F0E2FA002807D01B4B1B784D2B03D0FD
:102FC0001A4B1B78002B12D0194B197800290ED1FF
:102FD000184B1B78002B0AD0174B1B78002B06D000
:102FE000164B1A780132D2B2172A15D9197010204F
:102FF00005F0C2FA002803D00B4B1B784E2BC4D12E
:103000000B4A1378002BC0D10A4B1B78002BBCD085
:10301000012313702370B8E71A70E8E710BDC046AB
:10302000690400206008002014040020A907002083
:103030002C04002096FDFF1F8F07002080FDFF1F3E
:1030400010B5264C2378002B46D0FFF783FF244889
:10305000FDF779FBFDF780FEFDF730FEFDF778FC0C
:103060001E2005F099FB112005F086FA002807D0F4
:103070001C4B1B784D2B03D01B4B1B78002B12D005
:103080001A4B197800290ED1194B1B78002B0AD046
:10309000184B1B78002B06D0174B1A780132D2B28E
:1030A0003B2A17D91970102005F066FA002803D0C2
:1030B0000C4B1B784E2BC4D10C490A78002AC0D186
:1030C0000B4B1B78002BBCD022700A4A01230B70DB
:1030D0001370B6E71A70E6E710BDC0466904002019
:1030E0006008002014040020A90700202C04002000
:1030F00096FDFF1F8F0700201F040020124A0023A7
:1031000010B51370114C124A23701370FFF73CFF77
:10311000FFF796FFFDF73EFE0E4BFF2204201A70CC
:10312000FDF709FA012803D004200121FDF707FA71
:10313000094B1B78002B05D1084B1B78002B01D1C4
:103140000123237010BDC046000400201E0400208F
:1031500062FDFF1F90FDFF1F80FDFF1F1F04002069
:1031600037B5FDF7C3FB284B00241C60274B012516
:103170001C70274B1D70274B1C70274B1B6801933D
:10318000019A264B1A60264BFF221C70254B1A70A1
:10319000FDF754FC244B221C244825491C60FDF7F4
:1031A0006DFA244B1C60244B1D70244B1A78A242EC
:1031B00000D11D70224B1B78002B01D1FEF75CF96A
:1031C000204B1B78002B06D11F4A0C2111701F4A7F
:1031D0001370FFF793FF1E4B1B78002B13D11D4B71
:1031E0001B78002B0AD0184B1A780C2A01D90C3AFC
:1031F0001A701A78002A01D10C221A70FFF7AAFE61
:103200001548FDF7A0FA37BD1804002094070020E8
:103210008C070020C0070020700A002060FFFF1FFD
:10322000A007002090FDFF1F70FDFF1F64FFFF1F20
:10323000D8EA00001004002055FFFF1F8D07002072
:10324000D60300200004002080FDFF1F1F04002083
:1032500094FDFF1F74FDFF1F60080020F8B5324C7D
:10326000324B2278197891425CD0314D1A7029681E
:103270002F1C01312960FDF727FBFDF76DFD2D4B5C
:103280001B78002B0AD02C4B1A780C2A01D90C3A47
:103290001A701A78002A01D10C221A70274B1B7859
:1032A000002B0FD0264B1A782378D318DBB23B2B98
:1032B00000D93C3B2370FFF71DFDFFF74BFEFDF7E8
:1032C000B5FE04E02378002B04D1FFF743FE1D4830
:1032D000FDF739FA1C4B1D4E1D68691C1DD01C4B97
:1032E0001B78002B19D0FDF76FFE291C08F0B8FBE6
:1032F0000D1E12D13378002B0FD0396002F010F977
:10330000144B207001241C70134B1D70FDF796FBAD
:10331000124B1C70124B1D7004E03378002B01D14E
:1033200001233370F8BDC04662FDFF1F90FDFF1FF3
:103330001804002074FDFF1F80FDFF1F94FDFF1F78
:1033400058FFFF1F600800208CFDFF1F00040020B5
:1033500068FDFF1FC00700208C07002057FFFF1FDC
:103360007007002070B5804B86B01B787F4C002B17
:1033700046D02368102B0CDC7D4A126852429342DF
:1033800007DB7C4A7C49126809688A4201DC1032FA
:103390007BDA7A4A1278002A03D0794A1278002A16
:1033A00005D0784B00221A60FEF786FF6DE0764A62
:1033B0001268002A05DD0F2B0CDD6D4B1B685B428C
:1033C00007E0002A06D06A4A12685242934201DCA2
:1033D000102323606D4B1B68002B08DD654B664A8C
:1033E00018681268904250DB102252424CE0002BC9
:1033F0004BD0604B19680F3147DA5F4A126843E0DF
:103400002368002B0EDC5A4A102112688A1A934254
:1034100008DB5949574A096812680F39914201DDA2
:10342000002A32DA554A1278002ABAD0544A127861
:10343000002AB6D154490968002907DD002B0DDBAD
:103440004B4B10221B68D31A236007E0002905D0DC
:10345000474909680F39994200DD22604B4B1B68D0
:10346000002B08DD444A434B12681868103A90421A
:103470000BDB002208E0002B07D03E4B1968002927
:1034800003DC3D4A1268103A1A60414B1B78002B4E
:103490003DD13C4E0A2202A9306805F03DF83D4D71
:1034A00002A8291C0AF07EFB3B483C4A02A980186E
:1034B000FDF7AFF8002828D102A90A22306005F0F4
:1034C0002BF802A8291C0AF06DFB2D4B1B78002B52
:1034D00007D02D4B1B68002B17D12C4B1B68002BE2
:1034E00013D12F4B1B78002B03D02E4B1B78002BB6
:1034F0000BD02D4B1B78002B02D1FEF7DDFE04E034
:10350000012B02D1FFF72CFE2BE002A800E0274898
:1035100000210A1CFFF726F9254A264E1368264D7E
:103520000193264B019918681268091A02923160BA
:103530000299281C19602249FDF716F83168281CE9
:10354000FDF74FF8104B1B68002B02D02268D318F0
:1035500023600E4B1A68002A03D0064B18688218A5
:103560001A6006B070BDC04669FDFF1F98070020B5
:10357000300400209C07002028040020930700202E
:103580000D0400201004002050FFFF1FF403002052
:1035900055FFFF1FE6EC000064FFFF1F3C04000026
:1035A00089FDFF1F8E07002059FFFF1FE5EC00007B
:1035B000700A0020C4070020680B0020A407002028
:1035C000E7ED0000F0B585B0FDF738FA4A4B1B78FF
:1035D000002B01D0FDF76EFC484B00221A70484BBF
:1035E000484C1A60484B494E1A60494B201C1A60DF
:1035F000484B49491A80494B32701A70484B1A702F
:10360000484B1A70484B1A70FDF738F8102004F038
:10361000B3FF002803D101233370FDF7BDF8434CFD
:103620002368002B02D03378002B4ED00025256074
:103630003F4F344A3F4B381CD1180830AAB20123FF
:1036400002F0D3FD3A7A70231A422ED03A4F3B490A
:10365000381CFCF7A6FF3378002B0DD0226803231B
:103660005343374A3748D31880221A70FF225A70C2
:1036700000229A70FDF767F8236833490133381C3C
:103680002360FCF771FF291C381CFCF7A0FF2848B9
:1036900069460D22083002F0B5FF2C49381CFCF7B2
:1036A00063FF381C6946FCF772FFFDF7C7F9013567
:1036B00080231B019D42BBD11F4D2168281CFCF7B4
:1036C00057FF281C2249FCF76CFF3378002B07D0EA
:1036D000204805F061F8204804F00CFAFFF78EFA54
:1036E0001E4900220748FCF7C9FFFDF705FDFFF75B
:1036F00039FE05B0F0BDC04641FFFF1F8D07002019
:103700001004002064FFFF1F98070020A807002076
:103710009C070020D4030020D8EA000055FFFF1FBB
:10372000C00700208C070020700700206C070020D5
:103730003C0400203C040000680B002078EC0000F2
:103740006C04002060080020EDED000040ED00005A
:10375000FAED000088130000340400200AEE000097
:10376000F7B50620012104F019FF0620642104F0BA
:1037700035FF1020002104F011FF1120002104F07A
:103780000DFF1020012104F0D7FE1120012104F0CB
:10379000D3FE01210D2004F001FFFCF7EDFFFCF743
:1037A000EBFFFCF7E9FF794803F04CFF784801F0A4
:1037B000C9FE9620400001F0D5FE0420FCF7BBFEB8
:1037C000012801D1734B187001F0B4FE022802D019
:1037D000704B00221A70704804F0D2F80020FCF7F9
:1037E000AAFE431EDBB2062B01D86C4B18700120D9
:1037F000FCF7A1FE022801D8694B18700220FCF7E3
:103800009AFE431EDBB2072B01D8664B1870FDF7FA
:103810002FF80320FCF78FFE012801D8624B1870A7
:10382000624E01273568624C3D4021D1301C04F0C6
:103830000FFE00281CD0FF2323736373A373E3736D
:10384000237463745B4B65601A68A7746561A56037
:10385000002A00D11C60584A1368002B00D09C60DD
:10386000564B301C23600023A361146004F0F4FD68
:103870008022534952000023201C03F0BDFE002388
:103880008374FCF765FFFDF7F1F94E4D281CFCF73A
:103890005AFF102004F070FE00280CD1112004F013
:1038A0006BFE002807D13D4B07221A70FCF750FF32
:1038B000FCF772FFFCE7112004F05EFE041E0DD140
:1038C000364B01221A70FCF743FF354B02221C7065
:1038D000344B1A70FCF7CCFF334B1C703A4E3B490B
:1038E000301CFCF73DFE3A4C3A4A8C23DB00E018D2
:1038F000A11802230A2202F077F800281DD0364BC7
:10390000E01802F011FD0121201C03F013FB011E41
:1039100008D0314A211CA718381C02F0C8FA002828
:103920000BD005E0201C03F005FB0028F1D104E0DA
:10393000381CFCF797FE002805D12849301CFCF7FD
:1039400026FEFDF7EDF8301C2549FCF720FEFDF7BB
:10395000DDFE244B01AC1B68281C1A0C2270211CB4
:103960001A0A6270A37003F0C1FD1F4B281C1B686C
:10397000211C1A0C22701A0A6270A37003F0A6FDB3
:10398000FEF7B2FAFFF71EFEF7BDC046C4080020DE
:1039900019570000000400203404002092FDFF1F8E
:1039A00056FFFF1F95FDFF1F59FFFF1F3CFFFF1F25
:1039B00020FFFF1F6808002078080020C0E80000F2
:1039C0006C04002060080020680B002019EE000045
:1039D00064FFFF1F6C0400003C04000023EE0000A5
:1039E00028EE000064FDFF1F6CFDFF1F37B5274B5D
:1039F000274C1B78502B1AD1264A01231178002915
:103A00000CD11370FCF7A4FE234B1B78002B02D1C2
:103A1000FFF7A8FC0BE0FFF7A3FB08E02278534078
:103A2000237002D1FDF730F901E0FFF7CBFD2578D7
:103A3000002D14D0194B1B680193194B019A1B6878
:103A40009A4222D9112004F097FD00281DD1154B70
:103A50001B78002B19D02070FDF716F915E0112006
:103A600004F08AFD012805D10F4B1A78002A01D0F5
:103A70001D700AE0112004F07FFD002805D10A4BDB
:103A80001B78002B01D10123237037BD14040020C3
:103A900091FDFF1F92FDFF1F59FFFF1F700A0020BD
:103AA000FC030020940700202C040020F0B53B4BC1
:103AB00095B01B780493002B6ED1394B1B78002BEB
:103AC0006AD0384B1B78002B66D0374B374A1B78AF
:103AD0001178994260D01370354A3C211278354FE5
:103AE0004A433548D218354E05923A680AAD016806
:103AF0003368844632486A60324A0468AB60324BAD
:103B000012680A9131491B68EC60314C09686A619E
:103B1000304A2468AB61304B29611168EC611C6844
:103B2000296261466C62097907AC21703F792749A7
:103B300067703679A6700079049EE0700879214993
:103B400020710879204960710879A07120480179B5
:103B5000E171127922721B796372B300EB580599F7
:103B6000994216D11D4FA35D3B70FCF7F1FD3B78E8
:103B7000002B05D1FDF77AF81948FCF7E4FD08E0C1
:103B8000184B1B78012B02D1FFF7EAFA01E0FFF78F
:103B9000E9FB0136092EE0D115B0F0BD62FDFF1F33
:103BA00041FFFF1F000400201F0400200C04002020
:103BB00080FDFF1F78FDFF1F98FDFF1FA4FDFF1F65
:103BC000ACFDFF1FBCFDFF1FC4FDFF1FB4FDFF1FA9
:103BD000CCFDFF1FD4FDFF1FDCFDFF1F92FDFF1F6B
:103BE0006008002059FFFF1FF0B591B0FDF766F89F
:103BF000102004F0C1FC844D002803D0834B1B78B7
:103C00004E2B25D1824B1A78002A21D1814E327851
:103C1000002A1DD0804A1478002C19D12A78012757
:103C20001F70002A33D17D4B1868002808DB012162
:103C3000494219607A4B7B487B491A70FCF71EFD9C
:103C40007A4B1B78002B1DD1FEF736FBFFF78AFB62
:103C5000102004F091FC002804D06C4B1B784E2BF4
:103C600000D027E16A4A1378002B00D022E169498D
:103C70000978002900D11DE167490978002900D0A1
:103C80003DE217E1012BE3D1FFF76AFA84E2684EC7
:103C9000684933680193019A674B52181A60674A62
:103CA0001378002B1CD1664C23780133DBB2072B31
:103CB00001D8237000E027700AA8624909F095FF37
:103CC0000A2209A9207804F027FC09A90AA809F00A
:103CD00069FF5D490AA809F065FFFCF739FD1BE0A3
:103CE000012B1FD1594E33780133DBB2022B01D89F
:103CF000337000E0347056490AA809F076FF307836
:103D000009A90A2204F008FC09A90AA809F04AFF37
:103D10000AA84D4909F046FF00210AA80A1CFEF72F
:103D200021FD95E7022B10D14A4C23780133DBB2F9
:103D3000082B01D8237000E02770FCF799FD0AA832
:103D4000454909F052FF2078DAE7032B0BD1374EB3
:103D500033780133DBB2012B01D8337000E03470CB
:103D60000AA83E49C9E7042B00D071E72C70FCF784
:103D7000BDFD324B0AA81C703368264E0293029A8E
:103D8000374B38491A60384B34701F70374B1C70F2
:103D900009F02BFF0AA8211C221CFEF7E3FC344B80
:103DA000E6221A70334B70221A70334BD0221A70ED
:103DB000324BD8221A70324BA2221C60314BAF21F9
:103DC0001C60314B92009954304AFF219954304A7B
:103DD0000F2199542F49C8225A542F492F485A5419
:103DE000AD2189005A542E495A542E495A542E490D
:103DF0005A54AE2189005A542C495A542C495A54C9
:103E0000FCF7A1FCC8E1C046940700201404002080
:103E10002C04002096FDFF1F8C07002084FDFF1F4F
:103E2000B007002064FFFF1FD8EA000059FFFF1F02
:103E3000700A0020B80B000004040020A007002036
:103E400092FDFF1F2CEE0000E6EC000056FFFF1F66
:103E50003EEE000095FDFF1F4EEE00005EEE0000FE
:103E600060FFFF1F6EEE00001D0400205AFFFF1FC1
:103E700088FDFF1F93FDFF1F60FDFF1F61FDFF1FFA
:103E800070FDFF1F100400206C0400208902000058
:103E90008A020000B2020000B302000060080020A5
:103EA000B5020000B6020000B7020000B90200002F
:103EB000BA020000112004F05FFB002803D0B74BCA
:103EC0001B784D2B55D1B64B1878002851D1B54AE7
:103ED0001278002A4DD001211970B34BB34E1A68E5
:103EE0000392039CB24AA418B24A14601A6804925E
:103EF000049CB14AA41914602A78B04C002A00D05E
:103F000011E11B68297005930599AD4B1960AD4906
:103F1000AD4B08680A601860AC4BAD481E681A606B
:103F20000660FCF78BFDAB4BAB4A1878191C0028D8
:103F300000D0EFE01378002B00D0EBE02478002CC9
:103F400000D0F9E0A5490AA809F04FFEA44B0A22C7
:103F5000187809A904F0E0FA09A90AA809F022FED4
:103F6000A0490AA809F01EFE0AA8211C221CFEF77F
:103F7000F9FB2B78002B45D08B4C236806938D4B97
:103F8000069A1B689A423DD9974B1B78012B00D1AA
:103F90007AE600262E70FCF7A9FC884B89491E7032
:103FA000894B8A4A1B680B60894B1B6813608F4BD7
:103FB0001B78022B0ED18E4B1B68D80FC3185B10D9
:103FC0005B4208330B608B4B1B68D90FCB185B101F
:103FD000083B13602268884B0792794A0799186852
:103FE00012680918891A19602168844B08911E68A3
:103FF000089989198A1A1A60814B1B78002B01D104
:10400000FFF7B0F92B78002B00D0C5E07D4B1B7873
:10401000002B00D0C0E06F4C2378002B03D06E4BF8
:104020001B78002B68D0784B1A78784B197891421E
:104030000ED01A70764A136801331360664A1278FC
:10404000002A05D0734A1278934201DBFFF788F803
:104050006B4B1A78002A08D02278002A05D16E49C5
:104060000978002901D01A701BE06C4B1B78082BD3
:104070001BD02378002B18D1574B1B78002B14D161
:10408000634B1A68664B1B689A420EDB654B1B78C4
:10409000002B06D0644B1A78002A06D101221A7030
:1040A00003E0FEF709F9FFF75DF9604B1A681F1C82
:1040B000013203D04D4B1B78022B03D1564B1B789A
:1040C000002B69D1384E4C4D336828680993099B01
:1040D000834261D32378002B5ED1FCF7F5FB336874
:1040E0000A930A9A3B68D3182B60514B1A68013225
:1040F0001A60FFF737F94FE0FFF7B0F84CE0012105
:1041000011704C4A13704C4A1370FCF7BFFEFEF757
:10411000F5FF2EE700231370394A0B70012111704F
:10412000464A13700AE723780133DBB2042B01D827
:10413000237003E7207001E7012C05D10AA840494C
:1041400009F053FD294B0EE0022C05D10AA83D4988
:1041500009F04BFD314B06E0032C12D10AA83A4975
:1041600009F043FD204B187809A90A2204F0D4F97C
:1041700009A90AA809F016FD0AA81A4909F012FDB2
:1041800006E0042C00D0F4E60AA8304909F02DFD21
:1041900000210AA80A1CEAE611B0F0BD14040020B0
:1041A0002C04002096FDFF1F700A0020DC05000093
:1041B000B80B000004040020FC030020A00700202E
:1041C000AC0700209807002044FFFF1F9C07002039
:1041D00048FFFF1F8C070020C00700202CEE0000C6
:1041E00092FDFF1FE6EC000059FFFF1F56FFFF1F67
:1041F0003004002028040020080400203804002097
:1042000057FFFF1F1D04002062FDFF1F90FDFF1FD1
:104210001804002068FDFF1F8D07002095FDFF1F7B
:104220008CFDFF1F0D0400208E07002070FDFF1F76
:1042300010040020000400208F07002070070020D9
:104240003EEE00004EEE00005EEE000085EE000047
:10425000F0B5AF4D89B02B68002B01D0013B2B602E
:10426000AC4E3368002B01DD013B3360AA4F3B7835
:10427000002B0AD1A94B1B680593A94B059A1B6813
:1042800032339A4201D901233B70102004F074F9B3
:10429000A44C002807D0A44B1B784E2B03D0A34B73
:1042A0001B78002B29D02B68002B26D1A0490A7837
:1042B000EC2A22D89F48007800281ED038780028A1
:1042C0001BD00132D2B20A700321013A4A439A4903
:1042D0008A18137053709370FDF7F8FE974B2B609C
:1042E0002378002B51D101232370954A954B23202D
:1042F0001A60FCF7DBF842382DE0112004F03CF99D
:10430000002803D0884B1B784D2B28D12B68002B1D
:1043100029D187490A78E02A25D93878002822D07F
:10432000013AD2B20A70032103324A4382498A1801
:10433000137053709370FDF7C9FE804B2B60237888
:10434000002B22D1012323707D4A7E4B23201A604B
:10435000FCF7ACF879387C4BC0B2186015E07B4BA9
:104360001B78002BD2D1102004F006F9012800D1CF
:1043700081E2112004F000F9012800D17BE26A4BB0
:104380001B784D3B012B00D875E22378002B00D120
:1043900079E23368002B00D075E26A4A66481268F9
:1043A00032606B4A117803224A43821813705370AB
:1043B0009370EE292FD9674A6748684923701370B4
:1043C000FCF7D2F8FA255C4C0220FCF76FF80027C6
:1043D000012800D1EFB20220FCF768F8002601287E
:1043E00000D1EEB20220FCF761F80023012800D1D1
:1043F000EBB25B4A27706670A37003349442E3D13A
:104400005848FCF7A0F90A3D322004F0C5F92B1CEE
:104410000A33D8D137E24C4B534E1868B32831DCFD
:1044200007F0A6FB09F0F6F92E4B2D4A08F088FBA1
:104430002D4A2E4B07F01AFF09F03EFA09F0EAF96F
:1044400006F08EF8041C30780D1C09F071F9284A2A
:10445000284B061C0F1C201C291C08F071FB021C99
:104460000B1C301C391C07F0DFFB234A234B07F0E1
:10447000DBFB234A234B07F029FB002876D0FDF70E
:1044800099FE73E007F074FB09F0C4F9154B144A68
:1044900008F056FB144A154B07F0E8FE09F00CFA39
:1044A00009F0B8F906F05CF8041C30780D1C09F02E
:1044B0003FF90F4A0F4B061C0F1C201C291C08F04B
:1044C0003FFB021C0B1C301C391C07F0ADFB0A4AD9
:1044D0000A4B07F0A9FB0C4A0C4B07F0E3FACCE7B8
:1044E000182D4454FB210940000000000080664064
:1044F0000000000000003040000000000000E03F2D
:1045000000000000000070400000000000000000FB
:1045100070FDFF1F1004002096FDFF1F700A002091
:1045200060FFFF1F4CFFFF1F1404002068040020E1
:1045300088FDFF1F5AFFFF1F6C040020C409000004
:10454000881300000804002088070020A907002025
:1045500061FDFF1F1D040020680B002098EE000085
:104560006C0700206008002093FDFF1FD44A1768E5
:10457000381C07F0FDFA09F04DF9C64BC44A08F0A3
:10458000DFFAC54AC54B07F071FE09F095F909F04D
:1045900041F9041C0D1C05F0E3FFCA4E0090019187
:1045A000307809F0C5F8BE4ABE4B029003910098DE
:1045B000019908F0C5FA021C0B1C0298039907F038
:1045C00033FBB94AB94B07F02FFB07F0B1FA5B3F59
:1045D0003070291CBC4E201CB22F21D805F06CFF76
:1045E000041C30780D1C09F0A3F8AD4AAD4B061C35
:1045F0000F1C201C291C08F0A3FA021C0B1C301CE9
:10460000391C07F011FBA84AA84B07F00DFBA84A7C
:10461000A84B07F047FA002820D0FDF7B7FD1DE0B2
:1046200005F04AFF041C30780D1C09F081F89C4A03
:104630009C4B061C0F1C201C291C08F081FA021C34
:104640000B1C301C391C07F0EFFA974A974B07F008
:10465000EBFA994A994B07F039FADCE7984B18685E
:1046600007F086FA09F0D6F88A4B894A08F068FA0A
:10467000894A8A4B07F0FAFD09F01EF909F0CAF8D9
:10468000041C0D1C05F018FF854A864B08F058FAEB
:104690008D4E02900391307809F04AF8029A039BFC
:1046A00007F0C2FA804A814B07F0BEFA07F040FAE1
:1046B000844FC0B230703E7800900099301CFDF7F6
:1046C00057FD824B1870824B1B78984205D05A1CBC
:1046D000904202D00233984266D1201C291C05F07A
:1046E0003FFF041C301C0D1C09F022F86C4A6D4B76
:1046F000061C0F1C201C291C08F022FA6A4A6B4B6E
:1047000007F092FA021C0B1C301C391C08F0A8FCA4
:1047100007F00EFA6B4B6C4E1870009809F008F811
:10472000614A624B041C0D1C0298039907F07CFA45
:10473000021C0B1C201C291C08F092FC07F0F8F945
:104740003070FDF723FD614D614C2B782278934248
:1047500004D13720FBF7AAFE733006E00232934201
:1047600006D13720FBF7A2FE4238554BC0B2186085
:10477000544B31781878FDF7FBFC22782870032021
:10478000041C54435349C8230C1923706370A3704D
:10479000541C0232444342430C198A18237063703C
:1047A000A370137053709370484A03211378494DD6
:1047B0004B43595D171C002906D1EB185A78002A83
:1047C00002D19B78002B44D0434B1A68233A1A60DD
:1047D000FDF7DCFCFDF7ACFC00283AD03F4840492F
:1047E000FBF7C2FE1E243B7803265E43FBF74CFE1C
:1047F0000090FBF749FE0290FBF746FE009A029BF1
:10480000AE1932707370B070013C3648FBF79BFFF5
:10481000E4B2322003F0C0FF002CE4D1324B1C7014
:10482000FDF776FC0A22201C06A903F075FE2F492D
:1048300006A809F0B7F9002106A80A1CFDF792FFA7
:1048400001345A2003F0A8FF252CEBD1284B00227D
:104850001A70274B1B78002B15D03B78032253434B
:10486000ED18AF232B70FF236B700F23AB701D4827
:10487000FBF769FF07E01F4B1A78002A00D084E598
:1048800001221A7081E509B0F0BDC046C046C0469D
:10489000182D4454FB2109400000000000806640B0
:1048A0000000000000003040000000000000E03F79
:1048B0000000000000000000000000000000704048
:1048C0008807002093FDFF1F60FDFF1F61FDFF1F94
:1048D00088FDFF1F6C04002008040020680B0020E6
:1048E000A0EE0000600800204CFFFF1FE6EC000077
:1048F0001D0400205AFFFF1F10B5FCF729F8FFF731
:1049000075F8FCF7C3FAFCF75FFA114B1B78002B24
:104910001CD0FFF7CBF80F4B1B78002B16D00E4C9A
:104920002378002B02D1FFF75FF90FE0FFF790FC2F
:104930002378002B0AD1094B1B78002B04D1FDF7FB
:10494000BBFCFEF70FFD01E0FEF70AFC10BDC04600
:1049500091FDFF1F92FDFF1F1D04002059FFFF1F47
:10496000006808B5002802D003681B68984708BD96
:10497000006808B5002802D003685B68984708BD46
:1049800010B50121041C022003F008FE01210320C0
:1049900003F004FE201C1830FFF7EAFF10BDFFFFF4
:1049A00030B544B20121314A314B002C01DA314C8F
:1049B00000E0314C216002211160C0461960C04600
:1049C0000121440601D52B4C00E02B4C2160022133
:1049D0001160C0461960C0460121840601D5254CEE
:1049E00000E0254C216002211160C0461960C046DC
:1049F0000121C40601D51F4C00E01F4C216002219B
:104A00001160C0461960C0460121040701D5194C48
:104A100000E0194C216002211160C0461960C046B7
:104A20000121440701D5134C00E0134C2160022101
:104A30001160C0461960C04602210124084201D01D
:104A40000C4D00E00C4D2C601160C0461960C04652
:104A500001240221204201D0064800E006480460FB
:104A60001160C0461960C04630BDC046040000F861
:104A7000080000F8C40000F8C80000F808B50020DD
:104A8000FFF78EFF0020FFF78BFF0020FFF788FF66
:104A90000020FFF785FF08BD10B5C417E40E2418E9
:104AA0006411FF20FFF77CFF0020FFF779FF002053
:104AB000FFF776FF0020FFF773FF013CF1D210BD36
:104AC000F8B5174B07211A7801320A401A700123F2
:104AD00013408B40910701D540210B4304210A422A
:104AE00001D0202213431033DFB2041C0026A17B27
:104AF0000025A94205D08020400006F05BFF451C40
:104B0000EDB2E572381C291CFBF7B2FC2072002DB7
:104B100001D0013DE57201360134032EE7D1F8BD25
:104B20001CFFFF1FF0B58BB00591197805AC151C63
:104B30006560A1735978827CE1739B78071C2374AC
:104B4000012A03D1201CFFF7BBFF06E0002363739B
:104B50002373E372A372637223721837381C002622
:104B600001976674FFF7FCFEFFF788FF371CAF4222
:104B70004CDA059E0020B378834206D06A46907FC7
:104B80001818FF2800D9FF20C0B209AB1978FBF72D
:104B90006FFC737802900020834206D06A46507FF3
:104BA0001818FF2800D9FF20C0B26B4623331978AC
:104BB000FBF75EFC337803900020834206D007AAFF
:104BC00010781818FF2800D9FF20C0B26B46223396
:104BD0001978FBF74DFC061CFF20FFF7E1FE029859
:104BE000FFF7DEFE0398FFF7DBFE301CFFF7D8FE71
:104BF000E27A237A0137D31A2372227B637AD31A9B
:104C00006372627BA37AD31AA372B0E7281CFFF702
:104C100043FF0198FFF7ACFE0BB0F0BDF0B58BB0D1
:104C20000591197805AC151C6560A1735978827CD3
:104C3000E1739B78071C2374012A03D1201CFFF722
:104C40003FFF06E0002363732373E372A372637272
:104C5000237218370323381C63740297FFF780FE12
:104C6000FFF70CFF0027AF4253DA059E0020B37810
:104C7000834206D06A46907F1818FF2800D9FF208B
:104C8000C0B209AB1978FBF7F3FB737801900020F1
:104C9000834206D06A46507F1818FF2800D9FF20AB
:104CA000C0B26B4623331978FBF7E2FB33780390ED
:104CB0000020834206D007AA10781818FF2800D9D0
:104CC000FF20C0B26B4622331978FBF7D1FB061CDC
:104CD000FF20FFF765FE0198FFF762FE0398FFF7DC
:104CE0005FFE301CFFF75CFE2268637C0137D3183F
:104CF00023606368E27A013B6360237AD31A2372EC
:104D0000227B637AD31A6372627BA37AD31AA3726B
:104D1000A9E7281CFFF7C0FE0298FFF729FE0BB099
:104D2000F0BDFFFF10B503F087FA0F4B0F4A0024C8
:104D30009C540F4A19219C540E4ADC7199548D22BF
:104D4000D2009C540C4A04211A600C4B0C4A1C7271
:104D50005C721C710B481A6002F00AFE0A4B1C7050
:104D60005C709C7010BDC04664FFFF1F3C040000D7
:104D70003D04000065040000A8E800003C04002099
:104D800098E800003404002090070020154B802292
:104D90001968D2030A431A60134B5022DA700022BA
:104DA0009A701B78114B1B78D90703D49021890086
:104DB0000F4A02E080210F4A890011608022920090
:104DC000990701D40C4900E00C490A605A0703D442
:104DD000902292000A4B02E080220A4B92001A6055
:104DE0007047C0463480044000600740650B0020D7
:104DF00018B0044008C004401CB004400CC004407B
:104E000014B0044004C00440034B0222D97811427C
:104E1000FAD0DA707047C0460060064010B50C4BFF
:104E2000041C1B78002B04D10A4A181C1278002A93
:104E30000CD0094A1378202B03D9012323710020B9
:104E400004E0581C1070054A0120D15410BDC04622
:104E50002E080020F10700202F080020D007002096
:104E60007047FFFF024B1878024B1B78C01A70473F
:104E70002D0800202C080020064A074913780978DD
:104E8000994204D9591C1170044AD05C01E00120F8
:104E9000404270472C0800202D080020F207002017
:104EA000054B064A1B7812789A4202D9044AD05C14
:104EB00001E00120404270472C0800202D0800200E
:104EC000F2070020F8B50E4B071C1878141C0028B8
:104ED00003D10C4B1B78002B10D00B4E21233578BF
:104EE0005B1B9C4202D901223A711C1C0748221C00
:104EF00040192D1908F0C1FD3570201CF8BDC046C1
:104F00002E080020F10700202F080020D0070020E5
:104F1000002303710373034BFA229200083382606B
:104F20000360704708EF00000C4B00221A700C4B16
:104F300040201968014319600A4B0B499A70992265
:104F400092000A6009490A601F225A7002229A716F
:104F500020225A7180229A707047C046F1070020C3
:104F600034800440006006400CA0044008A00440C7
:104F700038B53C4C1023E578EDB21D4203D14022F8
:104F80002A4004D127E0E3706B06F8D468E00423DC
:104F90001D40354B17D000221A70344B344D1B681E
:104FA0002A70934200D098472A78324B002A02D1C7
:104FB000012129701A70D022A2701B78012223715E
:104FC0002D4B1A704AE001221A702C4B1D70C02321
:104FD000A370237942E0A3796021DBB219406029F4
:104FE0000CD120218B431F498B71254B1B68002B53
:104FF00004D024490A70214A10789847A1781022D9
:10500000184B0A4016D0012215400FD11A491848F2
:105010000A780078904205D9501C087015498A5CBE
:105020001A7100E01D71D023A37017E0C0229A709E
:105030001B7913E014490A709A7920210A439A7166
:105040000E4A19791378C9B21F2B07D80648007881
:10505000002803D0581C10700C4AD1540223E3706E
:1050600038BDC04600600640C90700201408002073
:105070002F080020D0070020300800202D08002035
:10508000CC0700202C08002018080020F207002080
:10509000044B054A4900197001231370034A137029
:1050A0007047C046D00700202E0800202F0800209F
:1050B00070B51A4C1223E370A3780E1C9A0602D521
:1050C000B423A37008E0E27820231340FBD1144AF4
:1050D0001370124BB0229A700025124B1B78AB4212
:1050E00011D9114B5B5D2371FFF78EFEE378DBB2C4
:1050F000DA0703D56B1E9D41A81C07E0DA0604D42D
:105100000135EDB2E9E7002000E00420002E01D0D7
:105110008023A370054B00221A7070BD006006400A
:10512000F10700202F080020D00700202E080020C3
:10513000F7B501932F4B151C00221A702E4B2F4CE4
:105140001A701222E270A278930602D5B423A370DB
:1051500008E0E27820231340FBD1294A1370274B43
:10516000B0229A70012349001943C9B22171FFF797
:105170004BFEE0781123214E184003D08023B370FA
:10518000002035E0002D06D1019AA023002A00D08E
:105190008023A3702CE0A823012D00D0A023B3709E
:1051A00023790026F3B20093EB1ADBB26F1E012BBA
:1051B0000DD9FFF729FE009BFF1AFFB2012F01D185
:1051C000A823A37023790F4A93550136EAE7FFF726
:1051D0001BFEB023A37023790A4AFFB2D355019B6B
:1051E000002B02D0054B80229A70034A281C1570B0
:1051F000FEBDC0462C0800202D080020006006409F
:10520000F1070020F207002008B5C9B2D2B201238D
:10521000FFF78EFF08BD08B5C9B2FFF739FF08BD1B
:1052200008B50121FFF744FF08BDFFFF08B502489C
:10523000FFF76EFE08BDC0461C080020F7B50C1C29
:105240003C21051C06F0ACFB281C21703C2106F01B
:1052500063FB3C21051C06F0A3FB281C61703C216C
:1052600006F05AFB1821051C06F09AFB281CA170B9
:10527000182106F051FB07210090043006F090FB46
:1052800000260131E170371C314BFD1803232B4000
:1052900001930ED1281C642106F0E2FB00290BD1FA
:1052A000C821281C490006F0DBFB4B4259416E31F6
:1052B00000E06E21FF3101E0B7214900009B761824
:1052C0009E4202D80137FFB2DEE7019BA771002B97
:1052D0000ED1281C642106F0C3FB00290BD1C82184
:1052E000281C490006F0BCFB4B4259416E3100E0DE
:1052F0006E21FF3101E0B7214900009B761A281C7E
:1053000064219E1B06F0ACFB0F1CC821281C490021
:1053100006F0A6FB0023D8B201280AD1019D1C2269
:10532000002D08D11D22002F05D14A424A411C32CE
:1053300001E0084A9A5C964204D30133B61A0C2B5A
:10534000E9D1181C0136013026716071F7BDC046E5
:10535000B207000028EF000038B5054D041C2B688B
:10536000984203D00349FFF769FF2C6038BDC0465F
:105370003408002038080020F7B5294C8679294FD9
:105380007443051C284ABB18B34212DABA070ED17F
:10539000381C642106F064FB002906D1C821381CA2
:1053A000490006F05DFB002901D1204BE4180137CC
:1053B000E8E71C4A6B79B618301C6421019306F0AB
:1053C0004FFB0F1CC821301C490006F049FB01238C
:1053D000019A934212DA022B07D1B20705D1002FAE
:1053E00001D1002901D1124A05E0124A0F48D21812
:1053F000013A12784243A4180133E9E7AB78E1207F
:10540000000158436B783C225343C0182B78074A5D
:10541000C0182B79013B5343C0180019FEBDC0468C
:105420008033E101B20700004EF8FFFF8051010018
:10543000803B260028EF0000094B02221860094B30
:1054400082B01B68C018084B1860084B1A70084BD4
:105450001B680193019A074B1A6002B07047C0465F
:1054600040080020E4FDFF1F5008002044080020F1
:10547000700A00204C080020F7B5174C1749236824
:105480000A6817485E1C00680190FA208000019DA0
:1054900017181448AD1A854202D9331C3A1CF0E79C
:1054A000114D0A602A6823609A4213D80F4B1B687B
:1054B000002B0FD09847002802D0FFF7BDFF09E06E
:1054C0000B4B20681B681B182B600A4B1A78511E67
:1054D0008A411A702068FEBD400800204C08002058
:1054E000700A0020E7030000500800204808002050
:1054F000E4FDFF1F4408002008B5FFF7BDFFFFF7DC
:105500002BFF014B987808BD3808002008B5FFF73D
:10551000B3FFFFF721FF014B587808BD3808002082
:1055200008B5FFF7A9FFFFF717FF014B187808BD73
:105530003808002008B5FFF79FFF014B187808BD19
:105540004408002008B5044B1860044B1A68044B4B
:105550001A60FFF791FF08BD4808002040080020AE
:1055600050080020034B1860034B1B68C018034B06
:1055700018607047E4FDFF1F40080020500800201D
:1055800038B50A21041C06F0C7F90A210501201CC0
:1055900006F006FA6D18E8B238BD03090A22534333
:1055A0000F2210401818C0B27047FFFF08B502481C
:1055B000FFF7BAFC08BDC0461C08002038B5244CD3
:1055C000051C6821201CFFF726FE0021201CFFF788
:1055D00025FC2878FFF7D4FF011C201CFFF71EFCD8
:1055E0006878FFF7CDFF011C201CFFF717FCA87897
:1055F000FFF7C6FF011C201CFFF710FCE878FFF73F
:10560000BFFF011C201CFFF709FC2879FFF7B8FF3A
:10561000011C201CFFF702FC6879FFF7B1FF011C99
:10562000201CFFF7FBFBA8791E38C0B2FFF7A8FFCC
:10563000011C201CFFF7F2FB201CFFF7F1FD054BBE
:10564000002801D0002000E00120187038BDC046BD
:105650001C0800205408002070B52D4C6821051C42
:10566000201CFFF7D8FD0021201CFFF7D7FB201CD2
:10567000FFF7D6FD274B061E02D00020187045E02C
:1056800001221A7068210722201CFFF7BDFD201C93
:10569000FFF7E8FB031C301C062B37DD201CFFF74F
:1056A000EBFB061C7F203040FFF777FF2870201CA3
:1056B000FFF7E2FBC0B2FFF770FF6870201CFFF736
:1056C000DBFB3F231840FFF768FFA870201CFFF7A3
:1056D000D3FBC0B2FFF761FFE870201CFFF7CCFBE3
:1056E000C0B2FFF75AFF2871201CFFF7C5FBC0B2FC
:1056F000FFF753FF6871201CFFF7BEFBC0B2FFF736
:105700004CFF1E30A871F043C0B2C00970BDC04646
:105710001C0800205408002007B56846FFF79CFFCE
:10572000031C0020834202D06846FFF725FE0EBD11
:10573000F7B50E1C051C5421580700D45021082031
:10574000034200D00143002A01D1012319432970EB
:105750000024124F12483A5D6300C15A1148019269
:1057600006F028F90E4F864203D3019A00246A708E
:1057700006E001341E2CECD1F7E701341E2C09D0D1
:10578000064B09481B5D01936300F95A06F012F9B4
:105790008642F2D30198A870F7BDC046E4EE00003F
:1057A000A8EE000000366E01006CDC0210B5041C8F
:1057B000FFF7BEFF201C10BD044B98711A7852B23F
:1057C000002AFBDA014B9879C0B2704700600740AD
:1057D00008B5FF20FFF7F0FF08BDFFFF37B501ACAC
:1057E000031C124D201C042B01D1114916E0002B83
:1057F00002D11049012213E0052B01D10E490DE021
:10580000012B02D10D491A1C09E0062B01D10C49CC
:1058100004E0022B01D10B4900E00B4901220023D7
:10582000FFF7C4FF63786B7037BDC0460060074068
:10583000001BB70000093D0080841E0040420F009D
:1058400020A1070090D0030048E8010008B501211D
:10585000007902F071FEFF20FFF7AEFF08BDFFFFE9
:1058600070B514490125CB788279041CAB434020E4
:105870000343CB70CB780C26B3430343CB70042394
:10588000022A0FD90023042A0CD90523082A09D992
:105890002B1C102A06D90623202A03D990429B41AB
:1058A0005B420233D8B2FFF799FF2079002102F062
:1058B00043FE70BD00600740F0B51C4F85B03B68EB
:1058C000041C0293029E0D1C0192FFF781FFE07100
:1058D000FF280BD13B680393039AB3B292B2D21A5A
:1058E00096235B009A42F0DD112305E00F23FE288A
:1058F00002D1019BEE1805E0201C6371FFF7A6FFA3
:10590000002011E0B54205D0FF20FFF755FF2870B9
:105910000135F7E70023E371FFF75AFFFFF758FF60
:10592000201CFFF793FF012005B0F0BD700A002096
:1059300038B50D1C041CFFF793FF8022291C201C86
:105940009200FFF7B9FF38BD73B50B4B0D1C1A68F9
:105950001E1C0092009CFFF73BFFFF2809D0336814
:10596000A2B20193019B9BB29B1AAB42F3DB0020D6
:1059700000E0012076BDC046700A002037B50C1C3F
:105980000192051CFFF76CFF96218900281CFFF788
:10599000DBFF40202043FFF70FFF6B46D879FFF76E
:1059A0000BFF6B469879FFF707FF6B465879FFF7B7
:1059B00003FF01AB1878FFF7FFFE8720002C00D112
:1059C0009520FFF7F9FE0C2C01D1FFF701FF002411
:1059D000FFF7FEFE43B2E871002B04DAFF2C02D081
:1059E0000134E4B2F4E73EBDF0B5544E87B0019304
:1059F000002303724371336802710293041C016037
:105A0000101C0121029D02F0C9FD2079012102F044
:105A100093FDFFF7BBF98023A371494B0122D9788D
:105A20000C20914340221143D970D9780A27814331
:105A30000A43DA700320FFF7D1FE013FFF20FFB2D7
:105A4000FFF7BAFE002FF8D10021201C0A1CFFF737
:105A500095FF01280BD033680393039AABB292B23F
:105A6000D21AFA23DB009A42EEDD012349E0D52267
:105A7000201C08215200FFF781FF052801D10123D6
:105A80000AE00427FFF7A4FE013FFFB2E071002FF8
:105A9000F8D1AA2807D102232372277A023F7B423A
:105AA0005F41BF070BE033680493049AABB292B234
:105AB000D21AFA23DB009A42D9DD022321E03721F2
:105AC0000022201CFFF75AFF3A1C201C2921FFF757
:105AD00055FF021E0BD033680593059AABB292B204
