:1000000000180020C1000000A983000075830000D3
:100010007583000075830000758300007583000000
:10002000758300007583000075830000A9830000BC
:10003000A983000075830000A98300006583000088
:10004000A9830000A9830000A9830000A983000000
:10005000A9830000A9830000A9830000A9830000F0
:10006000D54E0000A9830000A9830000A9830000E9
:100070002D9800000D9C0000ED9F0000A98300005A
:10008000A9830000A983000071790000A983000002
:10009000A9830000A9830000A9830000A9830000B0
:1000A00099890000A9830000A9830000A9830000AA
:1000B00071770000A9830000A9830000A9830000D4
:1000C00038B508F075F9434A434B1A60434A444B2C
:1000D0001A60444A444B1A60444B08221978114272
:1000E00002D019780A431A70414B2A221A70002351
:1000F000404A41499A188A4204D24049C9580433B7
:100100001160F5E73E4B3F491A1F181D00238A4234
:1001100002D21360031CF6E73B493C4A5958101CB5
:1001200099500433C02BF7D100239A083849920024
:10013000521803211940C9001568FF248C40A543BB
:100140002C1C80258D40291C214301331160202B5C
:10015000EBD1304B8A2218602F4B1A702F4B242280
:100160001A702F4BA0221A701A1C2E4B1978880770
:10017000FBD51978CD06FCD418780C21014008294C
:10018000FAD12949032008702849402008701978BD
:100190008806FCD519784D06FCD525492548086008
:1001A0002021117019780C220A400C2AFAD1224A17
:1001B000224B1A60224A234B1A60234B07221A60F3
:1001C00062B608F0C3FA0DF0CFFB08F0F7F809F0BB
:1001D00081F8FEE7300004F034800440823F0000E4
:1001E000388004400100000F3C80044002D00740EA
:1001F00000E0074060FDFF1F00FFFF1F84F50000C7
:1002000004FFFF1F440D00200000000000F9FF1F45
:1002100000E400E008ED00E0005006400140064028
:1002200000400640064006400440064005400640A7
:100230004480044000000110C00005050480044013
:100240007FBB000014E000E010E000E0FFFFFFFFD4
:10025000FFFFFFFFFFFFFFFFFFFFFFFFFFFFFFFFAE
:10026000FFFFFFFFFFFFFFFFFFFFFFFFFFFFFFFF9E
:10027000FFFFFFFFFFFFFFFFFFFFFFFFFFFFFFFF8E
:10028000FFFFFFFFFFFFFFFFFFFFFFFFFFFFFFFF7E
:10029000FFFFFFFFFFFFFFFFFFFFFFFFFFFFFFFF6E
:1002A000FFFFFFFFFFFFFFFFFFFFFFFFFFFFFFFF5E
:1002B000FFFFFFFFFFFFFFFFFFFFFFFFFFFFFFFF4E
:1002C000FFFFFFFFFFFFFFFFFFFFFFFFFFFFFFFF3E
:1002D000FFFFFFFFFFFFFFFFFFFFFFFFFFFFFFFF2E
:1002E000FFFFFFFFFFFFFFFFFFFFFFFFFFFFFFFF1E
:1002F000FFFFFFFFFFFFFFFFFFFFFFFFFFFFFFFF0E
:10030000FFFFFFFFFFFFFFFFFFFFFFFFFFFFFFFFFD
:10031000FFFFFFFFFFFFFFFFFFFFFFFFFFFFFFFFED
:10032000FFFFFFFFFFFFFFFFFFFFFFFFFFFFFFFFDD
:10033000FFFFFFFFFFFFFFFFFFFFFFFFFFFFFFFFCD
:10034000FFFFFFFFFFFFFFFFFFFFFFFFFFFFFFFFBD
:10035000FFFFFFFFFFFFFFFFFFFFFFFFFFFFFFFFAD
:10036000FFFFFFFFFFFFFFFFFFFFFFFFFFFFFFFF9D
:10037000FFFFFFFFFFFFFFFFFFFFFFFFFFFFFFFF8D
:10038000FFFFFFFFFFFFFFFFFFFFFFFFFFFFFFFF7D
:10039000FFFFFFFFFFFFFFFFFFFFFFFFFFFFFFFF6D
:1003A000FFFFFFFFFFFFFFFFFFFFFFFFFFFFFFFF5D
:1003B000FFFFFFFFFFFFFFFFFFFFFFFFFFFFFFFF4D
:1003C000FFFFFFFFFFFFFFFFFFFFFFFFFFFFFFFF3D
:1003D000FFFFFFFFFFFFFFFFFFFFFFFFFFFFFFFF2D
:1003E000FFFFFFFFFFFFFFFFFFFFFFFFFFFFFFFF1D
:1003F000FFFFFFFFFFFFFFFFFFFFFFFFFFFFFFFF0D
:10040000FFFFFFFFFFFFFFFFFFFFFFFFFEFFFFFFFD
:1004100010B5064C2378002B07D1054B002B02D0DA
:10042000044800E000BF0123237010BD00FFFF1F40
:100430000000000084F5000008B5084B002B03D035
:100440000748084900E000BF07480368002B03D0B5
:10045000064B002B00D0984708BDC04600000000A6
:1004600084F5000004FFFF1F00FFFF1F00000000D5
:10047000054A064913884B4305495B189BB218127D
:100480001380C318D8B27047E8FDFF1F05080000AD
:10049000193600004069704737B500246B461C7060
:1004A0005C709C7003680A1C1D6801AB1C705C705A
:1004B0009C706946A84737BD0020704708B50830D2
:1004C00005F03AFF08BD08B58C23DB00C01805F025
:1004D000EBFA08BD08B58C23DB00C01805F06DFBF6
:1004E00008BD10B58C24E400001905F027FB10BDF1
:1004F00010B58C24E400001905F0E9FB10BD08B527
:1005000007F072FE08BD08B507F088FE08BD07B504
:100510006B46D97107330830191C012205F00CFF16
:100520000EBD38B5051C081C0C1C07F085FF2B6898
:10053000021C5B68281C211C984738BD08B5FFF7D2
:10054000F0FF08BD08B5FFF7ECFF08BD08B508F0DF
:100550001BFF08BD38B50368041C1B689847051CC1
:10056000201C08F0BFFE281838BD38B5041CFFF762
:10057000D8FF051C201C08F0B5FE281838BD38B57A
:10058000041CFFF7CEFF051C201C08F0ABFE28184A
:1005900038BD38B50A220023041C08F0B5FE051C3E
:1005A000201C08F09FFE281838BD38B5041C08F040
:1005B000EBFE051C201C08F095FE281838BD38B548
:1005C0000A220023041C08F09FFE051C201C08F0D2
:1005D00089FE281838BD38B5D2B20023041C08F0B3
:1005E00093FE051C201C08F07DFE281838BD30B590
:1005F000051C8BB001A80A1C0024291C01230470CF
:10060000447005F04AFE0BB030BDFFFF10B5131C5F
:10061000034A0C1C1168221C05F03FFE10BDC046A9
:100620005808002013B56C460734211C012205F040
:1006300009FC012801D1207801E00120404216BDCB
:10064000017870220023114202D0024B186001236E
:10065000181C704758080020F0B58DB003AC01920B
:1006600000220B1C227062700A781C49071C451876
:100670002F2A14D15E78002E11D1281C05F006FE19
:10068000281C391C05F0C5FB002824D0019A01263E
:10069000002A20D0281CFFF7D3FF061C1BE01A1CE1
:1006A000201C291C012305F0F8FD061E13D022781A
:1006B000702313400ED0094BFF180ECC0EC70ECC82
:1006C0000EC70ECC0EC70199002904D0281CFFF7D5
:1006D000B7FF00E01E1C301C0DB0F0BD3C04000054
:1006E00038B5037F051C041C1C35002B02D0281CC8
:1006F00005F0CCFDA27E281C211CFFF787FF237F7D
:100700000120002B02D00023E37601E0E076181CE4
:1007100038BD08B5037F002B02D01C3005F0B6FDB4
:1007200008BD08B5017806F0C7FE08BD064B1A786B
:10073000072A01D907221A70044A1B7812785A43F3
:10074000034B1A707047C04692FDFF1FA0FDFF1FAC
:100750006008002008B501210D2007F0ADFE6420DF
:1007600007F0DAFF0D20002107F0A6FE642007F055
:10077000D3FF08BD70B5C023214E9B00F418331C75
:10078000FF221A705A709A700333A342F8D11D4D9C
:10079000281CFFF7C6FF1C4807F0BEFF331CFF22D2
:1007A0001A7000225A709A700333A342F7D1281CA2
:1007B000FFF7B7FFFA20800007F0AEFF321C0023DE
:1007C000FF211370517093700332A242F7D1281C9D
:1007D000FFF7A7FFFA20800007F09EFF331C0022DE
:1007E0001A705A70FF229A700333A342F7D1281C63
:1007F000FFF797FFFA20800007F08EFF70BDC0461C
:100800006C040020600800208813000070B50B4CB9
:100810000B4E201C311C07F057FC00280CD0094D52
:100820000949281CFFF78AFEB168281C0A22FFF735
:10083000D2FE201C07F01EF970BDC0463404002013
:10084000DC030020700B002060E80000134B1A78D6
:10085000134B022A01D11E221DE0032A01D13C22A2
:1008600019E0042A02D19622520014E0052A02D18E
:10087000E12292000FE0062A02D1E122D2000AE032
:10088000072A02D1E122120105E0082A02D1012241
:10089000524200E00A221A607047C04695FDFF1FD1
:1008A0008CFDFF1F10B5074C06202378C821002BB4
:1008B00000D0FF2107F052FE23780122534023701D
:1008C00010BDC04654FFFF1F08B50020FFF717FEFC
:1008D000124B1978884202D00020FFF714FE012045
:1008E000FFF70DFE0E4B1978884202D00120FFF76A
:1008F0000AFE0220FFF703FE0A4B1978884202D055
:100900000220FFF700FE0320FFF7F9FD064B1978E0
:10091000884202D00320FFF7F6FD08BD92FDFF1FBD
:1009200056FFFF1F95FDFF1F59FFFF1F2C4AF8B50B
:1009300000252C4B2C4F15702C4C2D4A1D702D482A
:100940005A23391C1570237007F0BEFBA84246D00D
:10095000294E2A49301CFFF7F1FDB968301CFFF71A
:100960002EFE27482749BA68006801230B7082428F
:1009700001D14D2304E024480068824202D14E2375
:10098000237019E021480068824201D15023F7E723
:10099000013210D1522222701D4A12784D2A01D103
:1009A0000F4A06E04E2A01D10E4A02E0502A03D136
:1009B0000F4A137000E00D700B78002B0CD0154916
:1009C000301CFFF7BBFD2178301CFFF7C3FD2378F7
:1009D000522B01D00E4A1370064807F04BF8F8BDB1
:1009E000A907002068040020DC0300201404002074
:1009F000C807002034040020700B00206CE80000C1
:100A0000D803002040FFFF1F5CFFFF1FF8030020FA
:100A10001C0400207FE8000008B50448037A002B7E
:100A200002D0083005F032FC08BDC0463C0400206E
:100A3000002907D00B01CA0701D4C01801E0181A19
:100A40000F30C0B27047FFFF38B51F4B1A1C2D3254
:100A50001D1C0024FF2119705C709C7003339342AD
:100A6000F7D1E1B21020FFF7E3FF03235843FF2340
:100A7000281803700134002343708370102CF0D1C8
:100A80001248EA181118FF2008701149033B50184A
:100A9000002101700F4812181170191C2D31EFD16F
:100AA0000F24E1B20020FFF7C3FF03235843FF23C5
:100AB00028180370013C0023437083709C42F0D1DE
:100AC0000548FFF72EFE38BD6C040020FD02000033
:100AD000FE020000FF0200006008002008B5FFF7DA
:100AE000A7FF03235843044B1818FF2303704370D8
:100AF0000023837008BDC0466C04002038B5002375
:100B00004D48FF24C1180A1CC03214700C1C00226E
:100B1000C134C231033322700A70302BF0D18118F6
:100B20000C1C0023F034F2312370637003320B701D
:100B3000A82149008A42F2D19024C218A4001119B8
:100B4000FF240C703D4903335518002129703C4D9A
:100B500052191170302BEFD107200621FFF7BEFF8D
:100B60000620011CFFF7BAFF05200621FFF7B6FF9C
:100B700004200721FFF7B2FF05200821FFF7AEFF91
:100B800006200821FFF7AAFF07200921FFF7A6FF8B
:100B900006200A21FFF7A2FF05200A21FFF79EFF8A
:100BA00004200A21FFF79AFF09200621FFF796FF8C
:100BB0000A200621FFF792FF0B200721FFF78EFF87
:100BC0000B200821FFF78AFF0B200921FFF786FF82
:100BD0000A20011CFFF782FF09200A21FFF77EFF90
:100BE00009200721FFF77AFF09200821FFF776FF88
:100BF0000920011CFFF772FFFFF798FD1148FFF76E
:100C000090FD002C0ADB211C062007F0A7FCFFF753
:100C1000FDFD012007F080FD013CF2E70024211CCE
:100C2000062007F09BFC0134FFF7F0FD012007F0E0
:100C300073FDFF2CF3D1E4E76C04002041020000B7
:100C40004202000060080020054BC0229200991863
:100C500000221A705A709A7003338B42F8D1704791
:100C60006C040020084A08B500231370074A117865
:100C7000994202D01370064A1370FFF7E5FF05484A
:100C8000FFF74FFD08BDC046940700201D0400205B
:100C90004CFFFF1F6008002013B5112007F02CFC4B
:100CA000144C012808D1102007F026FC012803D19C
:100CB000114A1378002B12D12378002B19D10E4B37
:100CC0001B78002B15D10D4B1B6801930C4B019A1F
:100CD0001B6832339A420CD90123237009E00023A8
:100CE00013702370054B1B680093009A044B1A6025
:100CF000E2E713BD96FDFF1F2C040020780A0020B8
:100D000060FFFF1F38B5094C051C0949201CFFF77F
:100D100015FC092D04DC2368201C1B683021984732
:100D2000291C201CFFF712FC38BDC046700B0020A8
:100D300090E8000010B50A4B0A4C19780A22201CD2
:100D4000002308F0E1FA084B1878FFF7DBFF074BA8
:100D50001878FFF7D7FF201C08F0C4FA10BDC04672
:100D600080FDFF1F700B00201F04002062FDFF1F8D
:100D700008B5084B08481B788370084B1B784370F4
:100D8000074B1B78037004F0CBFB04F077FC04F0F6
:100D900005FB08BD80FDFF1F200400201F0400206C
:100DA00062FDFF1F38B52A4C2368002B10DA04F0CF
:100DB00055FB00281AD104F05BFB002816D104F083
:100DC00061FB002812D1234D2B78002B0ED11FE0A0
:100DD000002B0BD004F042FB002807D104F048FBA5
:100DE000002803D104F04EFB002823D004F036FB8A
:100DF00000282CD104F03CFB041E28D104F042FB57
:100E0000002824DD134B1A78002A20D01C701EE025
:100E1000114B17221A70114B3B221A702268104B8B
:100E20003C321A70FFF7A4FF0E4BFF221A70012309
:100E30002B70DBE7084B22681870084B1870084BC2
:100E40001A70FFF795FF074BFF221A70CEE738BDE7
:100E5000BC0700201E04002080FDFF1F1F0400208F
:100E600062FDFF1F90FDFF1F08B504F00BFB054B53
:100E7000187004F0FDFA044B187004F0EFFA034BFD
:100E8000187008BD62FDFF1F1F04002080FDFF1FBA
:100E9000F0B595B0FFF7E8FF354B3C221B78354F96
:100EA0005A43354B3D681B78344ED318344A05936A
:100EB00010680AAB33490A909D603068324D0C6867
:100EC0008C46D860296831485C6000681961304CF4
:100ED00030492468096898612F485C61D9610468C9
:100EE0002E491C620C685C6212790492049C07AA69
:100EF00014706446247954703F7997703679D670AF
:100F00002D791571224D2C79204D54712C79214D5C
:100F100094712C79D4710079107209790020517282
:100F20000121494284001C59059DA54202DD01347E
:100F300000D0115C01300928F4D1481C0CD104996F
:100F4000002084001D196D681C59A54201DD11188F
:100F5000497801300828F4D1002900D10121104B33
:100F60001970FFF7E3FBFFF7AFFC15B0F0BDC0460B
:100F700080FDFF1FA4FDFF1F1F040020ACFDFF1F0D
:100F800098FDFF1F78FDFF1FB4FDFF1FC4FDFF1F6D
:100F9000BCFDFF1FCCFDFF1FD4FDFF1FDCFDFF1FAD
:100FA00092FDFF1F034B3C201B785843024B1B78DC
:100FB000C01870471F04002062FDFF1F0F4B10492F
:100FC0001B78104A0F2B02D80B70002314E0181C5A
:100FD00010380D2803D80F2008700F3B0CE0181CA8
:100FE0001E380F2804D82D20C31A0B700F2303E0DE
:100FF000002008703C21CB1A1370704762FDFF1F60
:101000006A0400206B04002008B5FFF7D7FF094BE6
:101010001878094B1978FFF70BFD03235843074B4A
:101020001818074B1A7802705A7842709B788370B0
:1010300008BDC0466A0400206B0400206C04002038
:101040009007002038B50D1C174C082821D80AF04D
:101050000FFC05080B0E1114171A1D00201C134954
:1010600019E0201C124916E0201C124913E0201C34
:10107000114910E0201C11490DE0201C10490AE024
:10108000201C104907E0201C0F4904E0201C0F49D8
:1010900001E00F49201CFFF755FA002D02D0201C5B
:1010A00008F020F938BDC046700B002092E800001F
:1010B0009BE800009FE80000A3E80000C8EE0000E5
:1010C000A7E80000ABE80000AFE80000B3E80000CC
:1010D000BBE80000F0B5ABB0BD4906A80CF045FD7B
:1010E00006A90122002319A805F0A0FF19A8FFF7FF
:1010F000F7FAB84C002806D106A9201CFFF71EFA03
:10110000201CB54901E0B549201CFFF738FA19A8A1
:101110000CA9322205F0F0FF002811D1B049201CA3
:10112000FFF710FA19A9201CFFF708FAAD49201C97
:10113000FFF708FA6B467F3318780121FFF782FF2B
:10114000A94903A80CF011FDA84909A80CF00DFD50
:101150003223009319A803A909AA0CAB06F0F3F8EF
:1011600000280DD0A249201CFFF7ECF90CA9201C87
:10117000FFF7FBF90CA80CF0F1FB9E4B186008E0A0
:101180006B467F3318780121FFF75CFF994BC8222B
:101190001A60994909A80CF0E8FC02AD32230093CB
:1011A000019519A803A909AA0CAB06F0E7F8934E1C
:1011B00000280ED0201C9249FFF7C4F92B78002B91
:1011C00001D0904900E09049201CFFF7D8F92B7816
:1011D00006E06B467F3318780121FFF733FF0123C8
:1011E0008A4909A86D46337009350CF0BEFC3223DC
:1011F0000093019519A803A909AA0CAB06F0BEF843
:10120000834E071E0FD0201C8249FFF79BF92B78D5
:10121000002B01D07B4900E07B49201CFFF7AFF990
:101220002B78337006E06B467F3318780121FFF787
:1012300009FF3770784903A80CF097FC774909A893
:101240000CF093FC3223009319A803A909AA0CAB54
:1012500006F079F8051E0DD07149201CFFF772F9D0
:101260000CA9201CFFF781F90CA80CF071FB6D4B49
:10127000186007E06B467F3318780121FFF7E2FE24
:10128000684B1D60684909A80CF06FFC322300937D
:1012900019A803A909AA0CAB06F055F8634D061E60
:1012A0000CD06349201CFFF74DF90CA9201CFFF757
:1012B0005CF90CA80CF04CFB286006E06B467F3311
:1012C00018780121FFF7BEFE2E604B4909A86D4634
:1012D0000CF04BFC0A3532230093019519A803A9A1
:1012E00009AA0CAB06F04AF8524E071E0FD0201C7C
:1012F0005149FFF727F92B78002B01D0414900E035
:101300004149201CFFF73BF92B78337006E06B4610
:101310007F3318780121FFF795FE3770474909A8F8
:101320006D460CF022FC0B3532230093019519A871
:1013300003A909AA0CAB06F021F8414E00280ED0F3
:10134000201C4049FFF7FEF82B78002B01D02D49D7
:1013500000E02D49201CFFF712F92B7806E06B46C0
:101360007F3318780121FFF76DFE0123364909A864
:1013700033700CF0FAFB3223009319A803A909AAD1
:101380000CAB05F0E0FF314D061E0DD0201C30499E
:10139000FFF7D8F80CA9201CFFF7E7F8281C0CA9C8
:1013A00008220CF02AFB06E06B467F3318780121F7
:1013B000FFF748FE2E7020AB1B78002B02D019A837
:1013C000FFF7A7F919A805F04BFE2BB0F0BDC046FA
:1013D00083EC0000700B0020DAE80000EAE800006F
:1013E000FAE8000004E9000011E900001BE9000030
:1013F00020E9000070FDFF1F2DE9000089FDFF1F9F
:1014000032E90000CFE80000D4E8000049E900001C
:101410000D04002050E900005FE9000069E90000C8
:101420006FE9000050FFFF1F7DE90000F40300207A
:1014300083E900009307002091E90000A8E900007B
:1014400069FDFF1FAFE90000BEE900007007002042
:10145000C9E90000F0B5884BABB00124874906A864
:101460001C700CF082FB221C002306A919A805F0B1
:10147000DDFD834E83490022301CFFF7EDF819A8EB
:10148000FFF72EF9804C002806D106A9201CFFF793
:1014900055F8201C7D4901E07D49201CFFF76FF8BD
:1014A00019A80CA9322205F027FE002811D179498C
:1014B000201CFFF747F819A9201CFFF73FF87649D1
:1014C000201CFFF73FF86B467F3318780121FFF7A8
:1014D000B9FD724903A80CF048FB6D46704909A894
:1014E0000CF043FB0B3532230093019519A803A997
:1014F00009AA0CAB05F042FF6A4F00280ED0201C51
:101500006949FFF71FF82B78002B01D0674900E0ED
:101510006749201CFFF733F82B7806E06B467F33D2
:1015200018780121FFF78EFD0123624909A86D4655
:101530003B700B350CF019FB32230093019519A871
:1015400003A909AA0CAB05F019FF5B4F00280ED0C8
:10155000201C5A49FEF7F6FF2B78002B01D0534987
:1015600000E05349201CFFF70AF82B7806E06B4691
:101570007F3318780121FFF765FD0123504909A841
:101580003B700CF0F2FA3223009319A803A909AAC0
:101590000CAB05F0D8FE051E0DD04A49201CFEF705
:1015A000D1FF0CA9201CFEF7E0FF0CA80CF0D0F92D
:1015B000454B187007E06B467F3318780121FFF721
:1015C00041FD414B1D70414909A80CF0CEFA322370
:1015D000009319A803A909AA0CAB05F0B4FE3C4D71
:1015E00000280CD03B49201CFEF7ACFF0CA9201CA6
:1015F000FEF7BBFF0CA80CF0ABF9287007E06B46B8
:101600007F3318780121FFF71DFD05232B70324928
:1016100009A80CF0AAFA3223009319A803A909AA71
:101620000CAB05F090FE2D4D071E0CD02C49201C54
:10163000FEF788FF0CA9201CFEF797FF0CA80CF002
:1016400087F9286006E06B467F3318780121FFF7A1
:10165000F9FC2F6020AB1B78002B02D019A8FFF7F4
:1016600058F820490022301CFEF7F6FF19A805F0B3
:10167000F7FC2BB0F0BDC046D6030020DCE900002B
:1016800064FFFF1FE6E90000700B0020DAE80000AD
:10169000EAE80000FAE8000004E90000F0E90000D0
:1016A000F6E9000074FDFF1FFDE90000CFE800002F
:1016B000D4E800000CEA000094FDFF1F13EA0000CC
:1016C00022EA000029EA000058FFFF1F38EA000064
:1016D00068FDFF1F3DEA00004AEA0000BC07002049
:1016E00051EA000060EA0000F0B5ABB0DC4906A8A2
:1016F0000CF03BFA002306A9012219A805F096FC7C
:10170000D84CD949201C0022FEF7A6FF19A8FEF7E5
:10171000E7FFD64C002806D106A9201CFEF70EFFD5
:10172000201CD34901E0D349201C0CADFEF727FF54
:1017300019A8291C322205F0DFFC002811D1CE495E
:10174000201CFEF7FFFE19A9201CFEF7F7FECB496F
:10175000201CFEF7F7FE6B467F3318780121FFF758
:1017600071FCC74E03A8311C0CF0FFF9311C09A80D
:101770006E460CF0FAF90B3632230093019619A845
:1017800003A909AA2B1C05F0F9FD071E10D0201C87
:10179000BC49FEF7D7FE3378002B01D0BA4900E0F0
:1017A000BA49201CFEF7EBFE3378B94A137007E004
:1017B0006B467F3318780121FFF744FCB44B1F7050
:1017C000B44909A80CF0D1F93223009319A803A950
:1017D00009AA2B1C05F0B7FD00282FD02B78AE4EA0
:1017E000002B1AD0AD49281C0CF0C8F90CF0B0F849
:1017F000AB49071C00200CF0C1F90CF0A9F8FF233D
:101800003C221F4057430340FB18A6490020336089
:101810000CF0B4F90CF09CF83071201CA249FEF7D2
:101820008DFE3168201CFEF791FE201C9F49FEF7BB
:1018300085FE3179201CFEF7ACFE05E06B467F3358
:1018400018780121FFF7FEFB994909A80CF08DF9E2
:101850003223009319A803A909AA2B1C05F073FDD4
:10186000002830D02B78002B1BD08C49281C0CF082
:1018700085F90CF06DF88A49061C00200CF07EF901
:101880000CF066F8FF231E403C2272430340894E51
:10189000D3188449002033600CF070F90CF058F82C
:1018A0003071201C8449FEF749FE824E201C3168AD
:1018B000FEF74CFE201C7D49FEF740FE3179201CCE
:1018C000FEF767FE05E06B467F3318780121FFF7CE
:1018D000B9FB7A4909A80CF048F93223009319A8FA
:1018E00003A909AA2B1C05F02EFD00282FD02B7868
:1018F000734E002B1AD06949281C0CF03FF90CF0EC
:1019000027F86749071C00200CF038F90CF020F884
:10191000FF233C221F4057430340FB18614900202E
:1019200033600CF02BF90CF013F83071201C654972
:10193000FEF704FE3168201CFEF708FE201C5B4900
:10194000FEF7FCFD3179201CFEF723FE05E06B4617
:101950007F3318780121FFF775FB5B4909A80CF06C
:1019600004F93223009319A803A909AA2B1C05F036
:10197000EAFC002830D02B78002B1BD04749281CCC
:101980000CF0FCF80BF0E4FF4549061C00200CF0BD
:10199000F5F80BF0DDFFFF231E403C2272430340AD
:1019A0004A4ED3183F49002033600CF0E7F80BF0A3
:1019B000CFFF3071201C4649FEF7C0FD434E201C6E
:1019C0003168FEF7C3FD201C3849FEF7B7FD3179B9
:1019D000201CFEF7DEFD05E06B467F331878012101
:1019E000FFF730FB3B4909A80CF0BFF83223009306
:1019F00019A803A909AA2B1C05F0A5FC00286FD083
:101A00002B78354E002B1AD02449281C0CF0B6F840
:101A10000BF09EFF2249071C00200CF0AFF80BF0E2
:101A200097FFFF233C221F4057430340FB181D49EB
:101A3000002033600CF0A2F80BF08AFF3071201CFC
:101A40002649FEF77BFD3168201CFEF77FFD201C38
:101A50001649FEF773FD3179201CFEF79AFD45E02B
:101A6000DCE9000064FFFF1FE6E90000700B0020C6
:101A7000DAE80000EAE80000FAE8000004E9000003
:101A800062EA000066EA0000CFE80000D4E8000047
:101A900041FFFF1F72EA000098FDFF1F90E8000061
:101AA00077EA00007AEA00007DEA00008AEA000096
:101AB0008DEA000078FDFF1F92EA00009FEA000017
:101AC000A4FDFF1FA4EA0000B1EA0000ACFDFF1F67
:101AD000B6EA0000C3EA0000B4FDFF1FC8EA000038
:101AE0006B467F3318780121FFF7ACFAD94909A872
:101AF0000CF03BF83223009319A803A909AA2B1C68
:101B000005F021FC002830D02B78002B1BD0D249C7
:101B1000281C0CF033F80BF01BFFD049061C0020EA
:101B20000CF02CF80BF014FFFF231E403C227243F4
:101B30000340CB4ED318CB49002033600CF01EF885
:101B40000BF006FF3071201CC749FEF7F7FCC44EAE
:101B5000201C3168FEF7FAFC201CC449FEF7EEFC9D
:101B60003179201CFEF715FD05E06B467F331878B0
:101B70000121FFF767FABE4909A80BF0F6FF3223EF
:101B8000009319A803A909AA2B1C05F0DCFB002867
:101B90002FD02B78B74E002B1AD0AF49281C0BF052
:101BA000EDFF0BF0D5FEAD49071C00200BF0E6FF62
:101BB0000BF0CEFEFF233C221F4057430340FB188F
:101BC000A849002033600BF0D9FF0BF0C1FE307143
:101BD000201CA949FEF7B2FC3168201CFEF7B6FCB8
:101BE000201CA249FEF7AAFC3179201CFEF7D1FC8B
:101BF00005E06B467F3318780121FFF723FA9F49F0
:101C000009A80BF0B2FF3223009319A803A909AA6F
:101C10002B1C05F098FB002830D02B78002B1BD014
:101C20008D49281C0BF0AAFF0BF092FE8B49061C75
:101C300000200BF0A3FF0BF08BFEFF231E403C2285
:101C4000724303408E4ED3188649002033600BF058
:101C500095FF0BF07DFE3071201C8A49FEF76EFC6B
:101C6000874E201C3168FEF771FC201C7F49FEF76F
:101C700065FC3179201CFEF78CFC05E06B467F3358
:101C800018780121FFF7DEF97F4909A80BF06DFFF5
:101C90003223009319A803A909AA2B1C05F053FBB2
:101CA00000282FD02B78794E002B1AD06A49281C97
:101CB0000BF064FF0BF04CFE6849071C00200BF092
:101CC0005DFF0BF045FEFF233C221F4057430340BE
:101CD000FB186449002033600BF050FF0BF038FE16
:101CE0003071201C6A49FEF729FC3168201CFEF780
:101CF0002DFC201C5D49FEF721FC3179201CFEF7EC
:101D000048FC05E06B467F3318780121FFF79AF90C
:101D1000604909A80BF029FF3223009319A803A9F1
:101D200009AA2B1C05F00FFB002830D02B78002BC4
:101D30001BD04949281C0BF021FF0BF009FE474935
:101D4000061C00200BF01AFF0BF002FEFF231E40C2
:101D50003C2272430340504ED31842490020336066
:101D60000BF00CFF0BF0F4FD3071201C4B49FEF71B
:101D7000E5FB494E201C3168FEF7E8FB201C3B497F
:101D8000FEF7DCFB3179201CFEF703FC05E06B4617
:101D90007F3318780121FFF755F93223009319A8F2
:101DA00003A93F4A2B1C05F0CEFA002812D02B784D
:101DB000002B06D0281C002110220CF053F8394BC0
:101DC0001860201C3849FEF7B9FB201C291CFEF7BF
:101DD000CCFB08E06B467F3318780121FFF732F91E
:101DE000324A304B1A603223009319A803A9304AB3
:101DF0002B1C05F0A8FA002812D02B78002B06D057
:101E0000281C002110220CF02DF82A4B1860201CF1
:101E10002949FEF793FB201C291CFEF7A6FB08E0CE
:101E20006B467F3318780121FFF70CF91F4A214BCD
:101E30001A6020AB1B78002B02D019A8FEF769FCB2
:101E40001E4900221E48FEF707FC19A805F008F9F4
:101E50002BB0F0BDD5EA000090E8000077EA000062
:101E6000BCFDFF1F7AEA0000DAEA00008AEA0000FF
:101E7000E7EA0000C4FDFF1FECEA0000F9EA0000F9
:101E8000CCFDFF1FFEEA00000BEB0000D4FDFF1F9E
:101E900010EB00001DEB0000DCFDFF1F22EB00003B
:101EA0002FEB000064FDFF1F3FEB0000FFFFFF0072
:101EB00052EB00006CFDFF1F63EB000060EA0000C6
:101EC00064FFFF1F70B5A8B0614907A80BF04DFE75
:101ED000002307A9012217A805F0A8F85D4C5E4968
:101EE000201C0022FEF7B8FB17A8FEF7F9FB261C02
:101EF0005A4C002806D107A9201CFEF71FFB201C06
:101F0000574901E05749201CFEF739FB17A80AA9D9
:101F1000322205F0F1F8002811D15349201CFEF7B8
:101F200011FB17A9201CFEF709FB5049201CFEF7E6
:101F300009FB6B46773318780121FFF783F84C498A
:101F400005A80BF012FE4B4903A80BF00EFE32233E
:101F5000009317A805A903AA0AAB05F0F4F9002815
:101F60000FD04549201CFEF7EDFA0AA9201CFEF708
:101F7000FCFA0AA800210A220BF082FF3F4B1860EE
:101F800008E06B46773318780121FFF75BF83C4A8D
:101F90003A4B1A603B4903A80BF0E7FD322300934C
:101FA00017A805A903AA0AAB05F0CDF9364D0028FC
:101FB0000ED03649201CFEF7C5FA0AA9201CFEF7F0
:101FC000D4FA0AA800210A220BF05AFF286007E081
:101FD0006B46773318780121FFF734F82C4B2B60D0
:101FE0002C4903A80BF0C1FD3223009317A805A9C3
:101FF00003AA0AAB05F0A7F9274D00280ED0274900
:10200000201CFEF79FFA0AA9201CFEF7AEFA0AA8C8
:1020100000210A220BF034FF286007E06B4677337B
:1020200018780121FFF70EF81D4B2B601EAB1B78B3
:10203000002B02D017A8FEF76CFB1A490022301CB7
:10204000FEF70AFB17A805F00BF828B070BDC046D4
:1020500077EB000064FFFF1FE6E90000700B002033
:10206000DAE80000EAE80000FAE8000004E900000D
:1020700082EB000089EB00008EEB0000D80300200B
:102080001FE07F809DEB00005CFFFF1FA2EB0000C4
:102090009F607F80B1EB0000F8030020B7EB0000E9
:1020A000CF307F8060EA000010B50D4B03201A7816
:1020B000041C54430B49C8230C1923706370A3708C
:1020C000541C0232444342430C198A182370637033
:1020D000A3700548137053709370FEF722FB10BD78
:1020E00088FDFF1F6C040020600800207FB50549B3
:1020F00001A80BF03AFD01A900220348FEF7ACFA53
:1021000007B000BDC7EB000064FFFF1F08B5002348
:102110001A1C0C49585C002806D1C9188878002878
:1021200002D14978002901D00132D2B206490333E5
:102130008B42EED1042A04D8012006F0EDFA0120EA
:10214000FFE708BD6C040020FD020000000909093A
:102150000F23002905D00B01CA0701D5C01801E0E3
:102160000F33181AC0B27047084A1368191C5B393C
:10217000B22902D8B42B02DD03E0592B01DCB421D3
:1021800001E087218900CB1A13607047880700207F
:10219000034AB42113684900CB1A13607047C04644
:1021A0008807002037B5051C0835281CFEF73AFAC9
:1021B0006C46A071281CFEF735FAE071E0883EBD40
:1021C00013B5041C0834201CFEF72CFA01AB187060
:1021D000201CFEF727FA6B465871201CFEF722FAE6
:1021E0006B469871201CFEF71DFA6B46D87101985A
:1021F00016BDFFFF70B51F4C011C201C08300122CA
:10220000FEF704FA002805D11B491C48FEF7B7F970
:10221000FEF774FC201CFFF7C5FF194B984226D12E
:10222000201CFFF7CDFF201CFFF7CAFF201CFFF783
:10223000C7FF201CFFF7C4FF201CFFF7C1FF114E92
:102240003060201CFFF7BCFF0C4C0F4D0F4928607D
:10225000201CFEF777F93168201CFEF777F90C494E
:10226000201CFEF76FF92968201CFEF79EF9FEF787
:10227000D3FB70BD3C040020DAEB0000700B0020A3
:10228000424D00003004002028040020EBEB000049
:10229000FEEB0000F0B5D14C95B0D149201CFEF703
:1022A0006EF9D049201CFEF76AF9FEF7B5FBCE4B5C
:1022B0001B78002B01D1CD4A1360CD4BCD4E1B684E
:1022C00000250493049ACC4BCC481A60CC4B2A1CB2
:1022D000311C1D60FEF7C0F9CA4B1D60CA4B1D6062
:1022E000CA4B1D60CA4B1D70CA4B1D70CA4B1D7076
:1022F000CA4B1A78AA4201D101221A70C84D2F6820
:10230000002F36DB311C0EA80BF02FFCC5490EA8A0
:102310000BF008FC311C0EA80BF004FC0A22381C40
:102320000CA906F0B9F80CA90EA80BF0FBFBBE4AED
:10233000B24F0EA9B818FEF75AF9021E10D0BB49C9
:10234000201CFEF7FFF80EA9201CFEF70EF9381C22
:102350000EA90022FEF780F92B6801332B6008E0FC
:1023600001235B422B60AF4B311C1870381CFEF709
:1023700073F9AF4D2B78002B1ED0A94B1B6801338E
:102380001AD1AC49201CFEF7DDF8291C201CFEF7F1
:10239000ECF89A4AA44B291CD018FEF728F900281B
:1023A00005D0291C00229548FEF756F904E0287054
:1023B000A149201CFEF7E3F82978002922D09F4983
:1023C00003A80BF0D2FB8D4D974A03A9A818FEF77E
:1023D0000EF9002800D197E09949201CFEF7B2F8C9
:1023E0000EA9201CFEF7C1F80EA908228D480BF09B
:1023F00004FB0022281C03A9FEF72EF9884B0122BA
:102400001A6081E0864B1B680133D8D18D4B1B7855
:10241000002B61D08C4E8D48326805F09DF9051E69
:1024200005DD3368984202D0013B984200D1023565
:102430008749201CFEF786F8291C201CFEF786F829
:10244000201C8449FEF79BF801230193019BAB42BA
:1024500042DA814F694A744B804E381CD1180830DB
:102460003288012303F073FE3A7A702300271A4260
:1024700003D0019A012701320192FEF7CDFA338889
:1024800001333380002FE4D0E0E72B78302B00D1EC
:102490002DE16B78302B00D129E17149201CFEF72A
:1024A00051F80023F15E201CFEF77FF86D49201CD7
:1024B000FEF748F8291C201CFEF757F8291C0022BB
:1024C0004E48FEF7C9F8FEF7A7FA01233288013219
:1024D0003280002B00D072E75F4F484A524B5F4E6C
:1024E0000837D118381C012332880EAD03F02FFEB7
:1024F0000D22381C291C04F037F8574B1A7A702328
:102500001A4200D1F3E0C0E7574F06A8391C0BF080
:102510002CFB454A06A9A818FEF769F8002800D147
:10252000DEE05249201CFEF70DF80EA9201CFEF734
:1025300005F84F49201CFEF722F8FEF7CBFD391CA9
:1025400008A80BF012FB08A8FFF754FE4949201C0D
:10255000FDF7F8FF2A4E201C3168FEF730F8244BB7
:102560001B680593059A3368D218434B1A60354BA4
:102570001B78022B00D18BE0404B1B68002B0BDD3E
:102580003F4B404A197812681F4B002901D0524234
:102590000AE010218A1A07E0002B06D0384B1A787F
:1025A000194B002A00D010221A60374B1B68002BF1
:1025B00007DD334B1A78154B002A0CD010225242FB
:1025C00009E0002B75D02E4B304A197812680F4B5A
:1025D000002900D1103A1A606BE0C046700B002051
:1025E00000EC000004EC0000C007002018040020EC
:1025F000780A002060EA00003804002064FFFF1F12
:1026000070FDFF1F10040020980700209C07002089
:1026100055FFFF1F0D0400208E0700208D070020AE
:1026200084FDFF1FB00700203C04000013EC0000F5
:10263000700700201EEC00002DEC000075EA000081
:1026400059EC000056FFFF1F6C070020CC0800204B
:1026500039EC00004DEC00003C040020D4030020C5
:10266000B1EC0000C0EC00006DEC000073EC000069
:1026700082EC00008EEC00000804002050FFFF1FD9
:1026800069FDFF1F30040020F4030020280400200F
:10269000214B1B68DA0FD3185B10204A5B420833CA
:1026A00013601F4B1B68DA0FD3185B101D4A083BE1
:1026B0001360391C0AA80BF058FA1B490CA80BF040
:1026C00054FA1A4A0AA9AD18281CFDF790FF0028F1
:1026D0001FD0281C0CA9FDF78AFF002819D10AE099
:1026E0001349201CFDF74BFFFFF7D4FD11E0FEF767
:1026F00093F90023EAE60F4B01221A700E4B1B6878
:10270000002B06D10D4B1B68002B02D101235B422D
:10271000336015B0F0BDC04630040020980700209B
:10272000280400209C0700209DEC00003C040000D1
:10273000A3EC000055FFFF1F50FFFF1FF403002014
:10274000F0B59BB0071C0491161C0F2901D80F2A65
:1027500004D99C499C48FDF7F5FE31E19B4C237A56
:10276000002B1CD1984D281C06F0BCFD9849281C54
:10277000FDF7E8FE391C281CFDF7E0FE2721281C88
:10278000FDF7E8FE9348391C0122FDF73FFF0028C2
:1027900009D19149281CFDF7F2FEFEF7AFF98D48EB
:1027A000002103F02CFC201CFFF7FCFC8B4B984213
:1027B00027D1201CFFF704FD201CFFF701FD201C82
:1027C000FFF7FEFC0790201CFFF7FAFC201CFFF728
:1027D000F7FC0390201CFFF7F3FC051C201CFFF7FF
:1027E000E1FC01280DD1201CFFF7DCFCC0B20290F7
:1027F000182801D0202804D1201CFFF7E1FC002874
:1028000021D00024764B1B78002B03D0754B1B780E
:10281000002B02D07448FDF784FF744B1B78002B0B
:1028200007D0734B1B78002B03D16E4B1B78002B0A
:1028300001D0FEF7F1F8002C00D0C1E06D496248EC
:10284000FDF79DFEBCE0039B0F331E2B03D92B1C11
:102850000F331E2B01D8FEF7F7F902990195CB082B
:102860000A1C03994A43D117490F8A18D210D2186B
:102870009A43089201220992002D03DA6B4200214B
:10288000019309910399049A0C915318102B02DDBE
:1028900010239B1A0C93019AB3180D92102B02DD92
:1028A00010239B1B0D93079B0026069330270D9B3F
:1028B0009E4200DB82E0099A0699002A0ED04E4B18
:1028C000019A1B68013A9900591A079B59184B4BFA
:1028D0001B68F318D21A089B5A4389183B48C269EF
:1028E0008A4203D0083003F08AFB302700240C9B77
:1028F0009C425DDA029B182B08D12F2F16D9334842
:102900000EA93022083003F09DFA0EE0029920292A
:102910000CD1022F0AD92D4D0EA90835281C0322EF
:1029200003F090FA281CFDF77DFE0027BB1C0EAAC1
:10293000D25D0EA9DBB2CB5C05927A1CD2B20B93AE
:102940002E4B8A5C1B6801990A92FA1CD7B22C4D57
:10295000CA1A96420ADA5B429E4207DB264B03996B
:102960001B68CA18944201DA9C420ADAE0B2F1B25A
:10297000FEF75EF80323584300232D182B706B706D
:1029800013E0049AF1B21019C0B2FEF751F8032314
:1029900058430B9B2D185B431B122B700A9B5B4308
:1029A0001B126B70059B5B431B12AB7001349EE7DF
:1029B0000699089A01368918069178E7012421E7DB
:1029C0001BB0F0BDD1EC0000700B00203C040020D7
:1029D000D8EC000044040020DAEB0000424D000077
:1029E0008C0700201D0400206008002055FFFF1FF9
:1029F00094070020E8EC0000980700209C070020C6
:102A00006C040020F7B50022604E614C614D6248B5
:102A1000111C326022602A60FFF792FEFEF714F864
:102A20002B68002B1AD15D4F5D4C381C211C05F022
:102A30004BFB0028F4D0A26801320BD0594F5A4901
:102A4000381CFDF77BFDA168381C0A22FDF7C3FD89
:102A5000A4682C60514805F00DF8E1E700215348C7
:102A60000A1CFFF76DFEFDF7EFFF3368002B1DD149
:102A70004A4F4B4C381C211C05F026FB0028F4D093
:102A8000A3685A1C0ED02A6893420BD0454F464982
:102A9000381CFDF753FDA168381C0A22FDF79BFD89
:102AA000A46834603D4804F0E5FFDEE700214048BB
:102AB0000A1CFFF745FEFDF7C7FF354A1268002ADA
:102AC00022D1364F364C381C211C05F0FDFA002867
:102AD000F3D0A3685A1C13D02A68934210D03268EE
:102AE00093420DD02F4F3049381CFDF727FDA168C8
:102AF000381C0A22FDF76FFDA468254B01941C6069
:102B0000264804F0B7FFD8E72A4C2B49271C083782
:102B1000381C4322FDF77AFD002805D127492148BA
:102B2000FDF723FDFDF7EAFF381C002103F067FAEB
:102B3000B021381C490003F062FA201C2049FDF73F
:102B400014FD201C1F49FDF710FD201C1E49FDF738
:102B50000CFD201C1D49FDF7F1FC2968201CFDF728
:102B60002EFD201C1A49FDF7E9FC3168201CFDF7F9
:102B700026FD201C1749FDF7E1FC054B201C1968B8
:102B8000FDF71DFDFDF748FFF7BDC046D803002047
:102B90005CFFFF1FF8030020FCEC00003404002061
:102BA000DC030020700B002060E8000007ED00004F
:102BB00012ED00003C04002077EB0000DAEB00008F
:102BC0001DED00008CEA000026ED000036ED00004F
:102BD0003FED000047ED000070B5FEF735F83148D5
:102BE000FDF79FFD304900223048FDF735FD304E9E
:102BF0000021301C0A1CFFF7A3FD00247D2005F0F6
:102C00008BFDFDF793FE2B4B1B78502B05D02A4AEA
:102C10001278002A08D0012C06D0002127480A1C6F
:102C2000FFF78EFD012427E04D2B05D0244A1278B2
:102C3000002A08D0022C06D0002122480A1CFFF7E7
:102C40007FFD022418E04E2B05D01F4A1278002A7F
:102C500008D0032C22D000211C480A1CFFF770FD6D
:102C6000032409E05A2B07D1002C05D00021301C89
:102C70000A1CFFF765FD0024102005F03DFC051E31
:102C800006D1FFF7BFFE301C291C2A1CFFF758FD98
:102C9000112005F031FC0028B0D170BD5A2BEBD1CA
:102CA000E4E7C04660080020E6E9000064FFFF1F7B
:102CB0004FED000014040020C8070020FCEC0000C9
:102CC000A907002007ED00006804002012ED0000B5
:102CD00038B5FEF773F9134B134D00241C60134BEA
:102CE000B022281C12491A600AF03FFF114BFF2244
:102CF000281C1A70211C221CFFF722FD0E4B18788D
:102D00000E4B1978FDF794FE032358430C4B18180B
:102D100002780C4B1A7042785A7082789A70FDF7DC
:102D200005FD38BD98070020700700209C07002093
:102D30005AED0000600800206A0400206B040020A7
:102D40006C0400209007002037B5174C01AD291CFA
:102D50000A22207805F0A0FB144B0121494219609A
:102D600021782A78124B092903D9303AD2B21201BC
:102D700000E0A0221A600F4A1278002A09D10E4AF8
:102D80001278002A05D10D4A1278002A01D1A0221A
:102D90001A600B4C0B49201C0AF0E7FE0021201C96
:102DA0000A1CFFF7CDFC37BD80FDFF1F98070020F0
:102DB0009C07002000040020690400208F070020E9
:102DC000700700205AED000037B5174D01AC287888
:102DD000211C0A2205F060FB2B78092B01D96278AF
:102DE00000E02278114B303A00211960D2B2104B2A
:102DF00012011A600F4A12788A4209D10E4A1278DB
:102E00008A4205D10D4A12788A4201D1A0221A6065
:102E10000B4C0C49201C0AF0A8FE201C03210022A8
:102E2000FFF78EFC37BDC04680FDFF1F98070020CE
:102E30009C07002000040020690400208F07002068
:102E4000700700205AED000037B5154D01AC0A227D
:102E50002878211C05F020FB2B780022092B02D9B1
:102E60002278303AD2B20F4B12011A600E4A127811
:102E7000002A09D10D4A1278002A05D00C4A12788E
:102E8000002A01D1A0221A600A4C0B49201C0AF02A
:102E90006CFE201C08210022FFF752FC37BDC04603
:102EA0001F0400209C07002000040020690400206B
:102EB0008F070020700700205AED000037B5154D30
:102EC00001AC2878211C0A2205F0E6FA2B78092BA0
:102ED00001D9627800E02278303AD2B20E4B12016A
:102EE0001A600E4A1278002A09D10D4A1278002A77
:102EF00005D00C4A1278002A01D1A0221A600A4C8F
:102F00000A49201C0AF031FE201C0C210022FFF788
:102F100017FC37BD1F0400209C0700200004002080
:102F2000690400208F070020700700205AED000080
:102F300008B5FFF709FFFFF747FFFFF785FFFFF72A
:102F4000BDFF064B1B78002B04D1054B01211A78DD
:102F50004A401A70FDF760FD08BDC046000400201D
:102F60008F07002010B5254C2378002B44D1FFF7A4
:102F7000DFFF2348FDF7D5FBFDF7DCFEFDF78CFEF8
:102F8000FDF7D4FC1E2005F0C7FB112005F0B4FAB4
:102F9000002807D01B4B1B784D2B03D01A4B1B78F6
:102FA000002B12D0194B197800290ED1184B1B7821
:102FB000002B0AD0174B1B78002B06D0164B1A7823
:102FC0000132D2B2172A15D91970102005F094FADF
:102FD000002803D00B4B1B784E2BC4D10B4A13781F
:102FE000002BC0D10A4B1B78002BBCD001231370DF
:102FF0002370B8E71A70E8E710BDC04669040020E6
:103000006008002014040020A90700202C040020E0
:1030100096FDFF1F8F07002080FDFF1F10B5264C77
:103020002378002B46D0FFF783FF2448FDF779FB78
:10303000FDF780FEFDF730FEFDF778FC1E2005F061
:103040006BFB112005F058FA002807D01C4B1B78A9
:103050004D2B03D01B4B1B78002B12D01A4B197829
:1030600000290ED1194B1B78002B0AD0184B1B7866
:10307000002B06D0174B1A780132D2B23B2A17D94F
:103080001970102005F038FA002803D00C4B1B787B
:103090004E2BC4D10C490A78002AC0D10B4B1B78A7
:1030A000002BBCD022700A4A01230B701370B6E7C4
:1030B0001A70E6E710BDC0466904002060080020D1
:1030C00014040020A90700202C04002096FDFF1FF7
:1030D0008F0700201F040020124A002310B5137030
:1030E000114C124A23701370FFF73CFFFFF796FF55
:1030F000FDF73EFE0E4BFF2204201A70FDF7FFF98C
:10310000012803D004200121FDF7FDF9094B1B78AC
:10311000002B05D1084B1B78002B01D10123237014
:1031200010BDC046000400201E04002062FDFF1FE9
:1031300090FDFF1F80FDFF1F1F04002037B5FDF726
:10314000C3FB284B00241C60274B01251C70274B18
:103150001D70274B1C70274B1B680193019A264B4F
:103160001A60264BFF221C70254B1A70FDF754FC89
:10317000244B221C244825491C60FDF76DFA244B82
:103180001C60244B1D70244B1A78A24200D11D7084
:10319000224B1B78002B01D1FEF75CF9204B1B78EA
:1031A000002B06D11F4A0C2111701F4A1370FFF724
:1031B00093FF1E4B1B78002B13D11D4B1B78002B4C
:1031C0000AD0184B1A780C2A01D90C3A1A701A78BE
:1031D000002A01D10C221A70FFF7AAFE1548FDF74C
:1031E000A0FA37BD18040020940700208C070020A7
:1031F000C0070020780A002060FFFF1FA007002002
:1032000090FDFF1F70FDFF1F64FFFF1F60EA0000BD
:103210001004002055FFFF1F8D070020D60300205B
:103220000004002080FDFF1F1F04002094FDFF1FED
:1032300074FDFF1F60080020F8B5324C324B227835
:10324000197891425CD0314D1A7029682F1C0131D8
:103250002960FDF727FBFDF76DFD2D4B1B78002B3B
:103260000AD02C4B1A780C2A01D90C3A1A701A7809
:10327000002A01D10C221A70274B1B78002B0FD08B
:10328000264B1A782378D318DBB23B2B00D93C3B72
:103290002370FFF71DFDFFF74BFEFDF7B5FE04E0C1
:1032A0002378002B04D1FFF743FE1D48FDF739FAC0
:1032B0001C4B1D4E1D68691C1DD01C4B1B78002B20
:1032C00019D0FDF76FFE291C08F08AFB0D1E12D1E4
:1032D0003378002B0FD0396002F0D4F8144B2070F3
:1032E00001241C70134B1D70FDF796FB124B1C70D4
:1032F000124B1D7004E03378002B01D10123337091
:10330000F8BDC04662FDFF1F90FDFF1F180400209E
:1033100074FDFF1F80FDFF1F94FDFF1F58FFFF1F5F
:10332000600800208CFDFF1F0004002068FDFF1FC7
:10333000C00700208C07002057FFFF1F70070020E8
:1033400070B5804B86B01B787F4C002B46D023682D
:10335000102B0CDC7D4A12685242934207DB7C4AF8
:103360007C49126809688A4201DC10327BDA7A4AA9
:103370001278002A03D0794A1278002A05D0784BB7
:1033800000221A60FEF786FF6DE0764A1268002A76
:1033900005DD0F2B0CDD6D4B1B685B4207E0002A3F
:1033A00006D06A4A12685242934201DC102323601D
:1033B0006D4B1B68002B08DD654B664A1868126868
:1033C000904250DB102252424CE0002B4BD0604B1D
:1033D00019680F3147DA5F4A126843E02368002B0F
:1033E0000EDC5A4A102112688A1A934208DB5949A6
:1033F000574A096812680F39914201DD002A32DA12
:10340000554A1278002ABAD0544A1278002AB6D106
:1034100054490968002907DD002B0DDB4B4B1022B6
:103420001B68D31A236007E0002905D047490968C3
:103430000F39994200DD22604B4B1B68002B08DDE1
:10344000444A434B12681868103A90420BDB002242
:1034500008E0002B07D03E4B1968002903DC3D4AE9
:103460001268103A1A60414B1B78002B3DD13C4E3C
:103470000A2202A9306805F00FF83D4D02A8291C68
:103480000AF050FB3B483C4A02A98018FDF7AFF810
:10349000002828D102A90A22306004F0FDFF02A80A
:1034A000291C0AF03FFB2D4B1B78002B07D02D4B1E
:1034B0001B68002B17D12C4B1B68002B13D12F4BF3
:1034C0001B78002B03D02E4B1B78002B0BD02D4BE1
:1034D0001B78002B02D1FEF7DDFE04E0012B02D1A8
:1034E000FFF72CFE2BE002A800E0274800210A1C71
:1034F000FFF726F9254A264E1368264D0193264BE1
:10350000019918681268091A029231600299281C00
:1035100019602249FDF716F83168281CFDF74FF8AD
:10352000104B1B68002B02D02268D31823600E4B6F
:103530001A68002A03D0064B186882181A6006B071
:1035400070BDC04669FDFF1F9807002030040020B1
:103550009C07002028040020930700200D04002071
:103560001004002050FFFF1FF403002055FFFF1F31
:103570006EEC000064FFFF1F3C04000089FDFF1F8C
:103580008E07002059FFFF1F6DEC0000780A002015
:10359000C4070020700B0020A40700206FED00007E
:1035A000F0B585B0FDF738FA4A4B1B78002B01D0F7
:1035B000FDF76EFC484B00221A70484B484C1A60CD
:1035C000484B494E1A60494B201C1A60484B4949E8
:1035D0001A80494B32701A70484B1A70484B1A7057
:1035E000484B1A70FDF738F8102004F085FF0028CA
:1035F00003D101233370FDF7BDF8434C2368002B42
:1036000002D03378002B4ED0002525603F4F344A3E
:103610003F4B381CD1180830AAB2012302F097FDA5
:103620003A7A70231A422ED03A4F3B49381CFCF7A5
:10363000A6FF3378002B0DD0226803235343374A6B
:103640003748D31880221A70FF225A7000229A70CD
:10365000FDF767F8236833490133381C2360FCF712
:1036600071FF291C381CFCF7A0FF284869460D2271
:10367000083002F079FF2C49381CFCF763FF381C36
:103680006946FCF772FFFDF7C7F9013580231B017E
:103690009D42BBD11F4D2168281CFCF757FF281CF9
:1036A0002249FCF76CFF3378002B07D0204805F047
:1036B00033F8204804F0DEF9FFF78EFA1E490022A5
:1036C0000748FCF7C9FFFDF705FDFFF739FE05B018
:1036D000F0BDC04641FFFF1F8D07002010040020F1
:1036E00064FFFF1F98070020A80700209C07002008
:1036F000D403002060EA000055FFFF1FC007002030
:103700008C070020700700206C0700203C0400207C
:103710003C040000700B002000EC00006C04002052
:103720006008002075ED0000C8EC000082ED00008C
:10373000881300003404002092ED0000F7B5062045
:10374000012104F0EBFE0620642104F007FF1020A5
:10375000002104F0E3FE1120002104F0DFFE102020
:10376000012104F0A9FE1120012104F0A5FE012190
:103770000D2004F0D3FEFCF7EDFFFCF7EBFFFCF7A8
:10378000E9FF794803F01EFF784801F08DFE96208E
:10379000400001F099FE0420FCF7B1FE012801D1A0
:1037A000734B187001F078FE022802D0704B002293
:1037B0001A70704804F0A4F80020FCF7A0FE431E25
:1037C000DBB2062B01D86C4B18700120FCF797FE7A
:1037D000022801D8694B18700220FCF790FE431EA6
:1037E000DBB2072B01D8664B1870FDF72FF80320CA
:1037F000FCF785FE012801D8624B1870624E012744
:103800003568624C3D4021D1301C04F0E1FD0028B8
:103810001CD0FF2323736373A373E3732374637454
:103820005B4B65601A68A7746561A560002A00D1CA
:103830001C60584A1368002B00D09C60564B301C0B
:1038400023600023A361146004F0C6FD8022534965
:1038500052000023201C03F08BFE00238374FCF72E
:1038600065FFFDF7F1F94E4D281CFCF75AFF1020BB
:1038700004F042FE00280CD1112004F03DFE002887
:1038800007D13D4B07221A70FCF750FFFCF772FF7F
:10389000FCE7112004F030FE041E0DD1364B01224E
:1038A0001A70FCF743FF354B02221C70344B1A7020
:1038B000FCF7CCFF334B1C703A4E3B49301CFCF7F5
:1038C0003DFE3A4C3A4A8C23DB00E018A118022353
:1038D0000A2202F03BF800281DD0364BE01802F017
:1038E000D5FC0121201C03F0D7FA011E08D0314A73
:1038F000211CA718381C02F08CFA00280BD005E018
:10390000201C03F0C9FA0028F1D104E0381CFCF7B0
:1039100097FE002805D12849301CFCF726FEFDF74C
:10392000EDF8301C2549FCF720FEFDF7DDFE244BA9
:1039300001AC1B68281C1A0C2270211C1A0A627028
:10394000A37003F087FD1F4B281C1B68211C1A0C59
:1039500022701A0A6270A37003F06CFDFEF7B2FACF
:10396000FFF71EFEF7BDC046CC0800207D560000C4
:10397000000400203404002092FDFF1F56FFFF1FAB
:1039800095FDFF1F59FFFF1F3CFFFF1F20FFFF1F7B
:10399000700800208008002040E800006C0400202F
:1039A00060080020700B0020A1ED000064FFFF1FE5
:1039B0006C0400003C040000ABED0000B0ED000022
:1039C00064FDFF1F6CFDFF1F37B5274B274C1B788D
:1039D000502B1AD1264A0123117800290CD11370DB
:1039E000FCF7A4FE234B1B78002B02D1FFF7A8FCA9
:1039F0000BE0FFF7A3FB08E022785340237002D1CD
:103A0000FDF730F901E0FFF7CBFD2578002D14D04C
:103A1000194B1B680193194B019A1B689A4222D9D2
:103A2000112004F069FD00281DD1154B1B78002BD7
:103A300019D02070FDF716F915E0112004F05CFD97
:103A4000012805D10F4B1A78002A01D01D700AE019
:103A5000112004F051FD002805D10A4B1B78002BE2
:103A600001D10123237037BD1404002091FDFF1FF5
:103A700092FDFF1F59FFFF1F780A0020FC03002062
:103A8000940700202C040020F0B53B4B95B01B7828
:103A90000493002B6ED1394B1B78002B6AD0384B26
:103AA0001B78002B66D0374B374A1B781178994228
:103AB00060D01370354A3C211278354F4A4335485F
:103AC000D218354E05923A680AAD016833688446CB
:103AD00032486A60324A0468AB60324B12680A911D
:103AE00031491B68EC60314C09686A61304A2468CE
:103AF000AB61304B29611168EC611C682962614639
:103B00006C62097907AC21703F7927496770367973
:103B1000A6700079049EE070087921492071087927
:103B2000204960710879A07120480179E17112790A
:103B300022721B796372B300EB580599994216D132
:103B40001D4FA35D3B70FCF7F1FD3B78002B05D1C9
:103B5000FDF77AF81948FCF7E4FD08E0184B1B78EC
:103B6000012B02D1FFF7EAFA01E0FFF7E9FB01368A
:103B7000092EE0D115B0F0BD62FDFF1F41FFFF1F10
:103B8000000400201F0400200C04002080FDFF1F03
:103B900078FDFF1F98FDFF1FA4FDFF1FACFDFF1F59
:103BA000BCFDFF1FC4FDFF1FB4FDFF1FCCFDFF1FA9
:103BB000D4FDFF1FDCFDFF1F92FDFF1F60080020EA
:103BC00059FFFF1FF0B591B0FDF766F8102004F023
:103BD00093FC844D002803D0834B1B784E2B25D1BA
:103BE000824B1A78002A21D1814E3278002A1DD0CA
:103BF000804A1478002C19D12A7801271F70002AD6
:103C000033D17D4B1868002808DB01214942196037
:103C10007A4B7B487B491A70FCF71EFD7A4B1B7868
:103C2000002B1DD1FEF736FBFFF78AFB102004F0B6
:103C300063FC002804D06C4B1B784E2B00D027E18E
:103C40006A4A1378002B00D022E1694909780029DB
:103C500000D11DE167490978002900D03DE217E154
:103C6000012BE3D1FFF76AFA84E2684E68493368B2
:103C70000193019A674B52181A60674A1378002B18
:103C80001CD1664C23780133DBB2072B01D823709B
:103C900000E027700AA8624909F067FF0A2209A913
:103CA000207804F0F9FB09A90AA809F03BFF5D4957
:103CB0000AA809F037FFFCF739FD1BE0012B1FD1E3
:103CC000594E33780133DBB2022B01D8337000E058
:103CD000347056490AA809F048FF307809A90A2229
:103CE00004F0DAFB09A90AA809F01CFF0AA84D494B
:103CF00009F018FF00210AA80A1CFEF721FD95E72C
:103D0000022B10D14A4C23780133DBB2082B01D8A7
:103D1000237000E02770FCF799FD0AA8454909F0D7
:103D200024FF2078DAE7032B0BD1374E33780133A9
:103D3000DBB2012B01D8337000E034700AA83E4991
:103D4000C9E7042B00D071E72C70FCF7BDFD324BA6
:103D50000AA81C703368264E0293029A374B3849E2
:103D60001A60384B34701F70374B1C7009F0FDFE21
:103D70000AA8211C221CFEF7E3FC344BE6221A7031
:103D8000334B70221A70334BD0221A70324BD82228
:103D90001A70324BA2221C60314BAF211C60314B98
:103DA00092009954304AFF219954304A0F21995476
:103DB0002F49C8225A542F492F485A54AD218900FF
:103DC0005A542E495A542E495A542E495A54AE2107
:103DD00089005A542C495A542C495A54FCF7A1FCD6
:103DE000C8E1C04694070020140400202C040020E1
:103DF00096FDFF1F8C07002084FDFF1FB0070020E9
:103E000064FFFF1F60EA000059FFFF1F780A0020CF
:103E1000B80B000004040020A007002092FDFF1F43
:103E2000B4ED00006EEC000056FFFF1FC6ED000071
:103E300095FDFF1FD6ED0000E6ED000060FFFF1FBF
:103E4000F6ED00001D0400205AFFFF1F88FDFF1F34
:103E500093FDFF1F60FDFF1F61FDFF1F70FDFF1F32
:103E6000100400206C040020890200008A02000077
:103E7000B2020000B302000060080020B50200009A
:103E8000B6020000B7020000B9020000BA0200004A
:103E9000112004F031FB002803D0B74B1B784D2BC9
:103EA00055D1B64B1878002851D1B54A1278002A5E
:103EB0004DD001211970B34BB34E1A680392039C85
:103EC000B24AA418B24A14601A680492049CB14A17
:103ED000A41914602A78B04C002A00D011E11B68A4
:103EE000297005930599AD4B1960AD49AD4B086834
:103EF0000A601860AC4BAD481E681A600660FCF79B
:103F00008BFDAB4BAB4A1878191C002800D0EFE0B2
:103F10001378002B00D0EBE02478002C00D0F9E0DF
:103F2000A5490AA809F021FEA44B0A22187809A97C
:103F300004F0B2FA09A90AA809F0F4FDA0490AA8F8
:103F400009F0F0FD0AA8211C221CFEF7F9FB2B78D2
:103F5000002B45D08B4C236806938D4B069A1B682B
:103F60009A423DD9974B1B78012B00D17AE6002667
:103F70002E70FCF7A9FC884B89491E70894B8A4A30
:103F80001B680B60894B1B6813608F4B1B78022BDF
:103F90000ED18E4B1B68D80FC3185B105B420833E1
:103FA0000B608B4B1B68D90FCB185B10083B136061
:103FB0002268884B0792794A07991868126809188D
:103FC000891A19602168844B08911E68089989191B
:103FD0008A1A1A60814B1B78002B01D1FFF7B0F9C8
:103FE0002B78002B00D0C5E07D4B1B78002B00D038
:103FF000C0E06F4C2378002B03D06E4B1B78002B56
:1040000068D0784B1A78784B197891420ED01A7094
:10401000764A136801331360664A1278002A05D085
:10402000734A1278934201DBFFF788F86B4B1A78DA
:10403000002A08D02278002A05D16E490978002983
:1040400001D01A701BE06C4B1B78082B1BD0237817
:10405000002B18D1574B1B78002B14D1634B1A68D7
:10406000664B1B689A420EDB654B1B78002B06D013
:10407000644B1A78002A06D101221A7003E0FEF779
:1040800009F9FFF75DF9604B1A681F1C013203D074
:104090004D4B1B78022B03D1564B1B78002B69D15B
:1040A000384E4C4D336828680993099B834261D38D
:1040B0002378002B5ED1FCF7F5FB33680A930A9A4C
:1040C0003B68D3182B60514B1A6801321A60FFF716
:1040D00037F94FE0FFF7B0F84CE0012111704C4A7E
:1040E00013704C4A1370FCF7BFFEFEF7F5FF2EE786
:1040F00000231370394A0B7001211170464A137066
:104100000AE723780133DBB2042B01D8237003E7DD
:10411000207001E7012C05D10AA8404909F025FDCE
:10412000294B0EE0022C05D10AA83D4909F01DFDDE
:10413000314B06E0032C12D10AA83A4909F015FDCB
:10414000204B187809A90A2204F0A6F909A90AA89F
:1041500009F0E8FC0AA81A4909F0E4FC06E0042C7E
:1041600000D0F4E60AA8304909F0FFFC00210AA8B3
:104170000A1CEAE611B0F0BD140400202C04002053
:1041800096FDFF1F780A0020DC050000B80B000038
:1041900004040020FC030020A0070020AC0700203E
:1041A0009807002044FFFF1F9C07002048FFFF1FC7
:1041B0008C070020C0070020B4ED000092FDFF1F17
:1041C0006EEC000059FFFF1F56FFFF1F3004002058
:1041D00028040020080400203804002057FFFF1F97
:1041E0001D04002062FDFF1F90FDFF1F180400202A
:1041F00068FDFF1F8D07002095FDFF1F8CFDFF1F31
:104200000D0400208E07002070FDFF1F1004002009
:10421000000400208F07002070070020C6ED00007A
:10422000D6ED0000E6ED00000DEE0000FFFFFFFF01
:10423000F0B5B34D89B02B68002B01D0013B2B604A
:10424000B04E3368002B01DD013B3360AE4F3B784D
:10425000002B0AD1AD4B1B680593AD4B059A1B682B
:1042600032339A4201D901233B70102004F044F903
:10427000A84C002807D0A84B1B784E2B03D0A74B87
:104280001B78002B2BD02B68002B28D1A4490A784F
:10429000EC2A24D8A3480078002820D038780028B9
:1042A0001DD00132D2B20A700321013A4A439E491D
:1042B0008A18137053709370FDF7F6FE9B4B2B60BA
:1042C0002378002B55D101232370994A994B1A600A
:1042D000FCF7CEF823235843001242382FE0112078
:1042E00004F00AF9002803D08B4B1B784D2B2AD100
:1042F0002B68002B2BD18A490A78E02A27D93878F5
:10430000002824D0013AD2B20A70032103324A4372
:1043100085498A18137053709370FDF7C5FE834B5F
:104320002B602378002B24D101232370804A814BFA
:104330001A60FCF79DF823235843001279387E4B0E
:10434000C0B2186015E07D4B1B78002BD0D1102037
:1043500004F0D2F8012800D189E2112004F0CCF851
:10436000012800D183E26C4B1B784D3B012B00D818
:104370007DE22378002B00D181E23368002B00D04E
:104380007DE26C4A6848126832606D4A11780322F7
:104390004A438218137053709370EE2932D9694AD8
:1043A00069486A4923701370FCF7CCF8FA255E4C13
:1043B000FCF75EF84004000E0027012800D1EFB2A0
:1043C000FCF756F84004000E0026012800D1EEB29A
:1043D000FCF74EF84004000E0023012800D1EBB298
:1043E0005B4A27706670A37003349442E0D1594849
:1043F000FCF797F90A3D322004F08EF92B1C0A33A2
:10440000D5D13CE24C4B544E1868B32831DC07F050
:104410006FFB09F0BFF92F4B2D4A08F051FB2E4AD4
:104420002E4B07F0E3FE09F007FA09F0B3F906F0A6
:1044300057F8041C30780D1C09F03AF9284A294B2A
:10444000061C0F1C201C291C08F03AFB021C0B1C2C
:10445000301C391C07F0A8FB234A244B07F0A4FBAF
:10446000234A244B07F0F2FA002877D0FDF790FE9C
:1044700074E007F03DFB09F08DF9164B144A08F083
:104480001FFB154A154B07F0B1FE09F0D5F909F0ED
:1044900081F906F025F8041C30780D1C09F008F9A4
:1044A0000F4A104B061C0F1C201C291C08F008FB8F
:1044B000021C0B1C301C391C07F076FB0A4A0B4B04
:1044C00007F072FB0C4A0D4B07F0ACFACCE7C04684
:1044D000182D4454FB210940000000000080664074
:1044E0000000000000003040000000000000E03F3D
:1044F000000000000000704000000000000000000C
:1045000070FDFF1F1004002096FDFF1F780A002099
:1045100060FFFF1F4CFFFF1F1404002068040020F1
:1045200088FDFF1F5AFFFF1F6C040020C409000014
:10453000881300000804002088070020A907002035
:1045400061FDFF1F1D040020700B002020EE000005
:104550006C0700206008002093FDFF1FD64A1768F3
:10456000381C07F0C5FA09F015F9C84BC64A08F01F
:10457000A7FAC74AC74B07F039FE09F05DF909F001
:1045800009F9041C0D1C05F0ABFFCC4E0090019105
:10459000307809F08DF8C04AC04B02900391009822
:1045A000019908F08DFA021C0B1C0298039907F080
:1045B000FBFABB4ABB4B07F0F7FA07F079FA5B3F0F
:1045C0003070291CBE4E201CB22F21D805F034FFBC
:1045D000041C30780D1C09F06BF8AF4AAF4B061C79
:1045E0000F1C201C291C08F06BFA021C0B1C301C31
:1045F000391C07F0D9FAAA4AAA4B07F0D5FAAA4AF9
:10460000AA4B07F00FFA002820D0FDF7ADFD1DE002
:1046100005F012FF041C30780D1C09F049F89E4A81
:104620009E4B061C0F1C201C291C08F049FA021C7A
:104630000B1C301C391C07F0B7FA994A994B07F04C
:10464000B3FA9B4A9B4B07F001FADCE79A4B1868D8
:1046500007F04EFA09F09EF88C4B8B4A08F030FABE
:104660008B4A8C4B07F0C2FD09F0E6F809F092F88E
:10467000041C0D1C05F0E0FE874A884B08F020FA68
:104680008F4E02900391307809F012F8029A039B42
:1046900007F08AFA824A834B07F086FA07F008FA95
:1046A000864FC0B230703E7800900099301CFDF704
:1046B0004DFD844B1870844B1B78984205D05A1CD2
:1046C000904202D0023398426AD1201C291C05F086
:1046D00007FF041C301C0D1C08F0EAFF6E4A6F4BEC
:1046E000061C0F1C201C291C08F0EAF96C4A6D4BB3
:1046F00007F05AFA021C0B1C301C391C08F070FC25
:1047000007F0D6F96D4B6E4E1870009808F0D0FF88
:10471000634A644B041C0D1C0298039907F044FA89
:10472000021C0B1C201C291C08F05AFC07F0C0F9C5
:104730003070FDF719FD634D634C2B78227893425E
:1047400006D1FBF795FE372358430012733008E07B
:104750000232934208D1FBF78BFE372358430012F5
:104760004238554BC0B21860544B31781878FDF779
:10477000EDFC227828700320041C54435349C823BD
:104780000C1923706370A370541C023244434243DB
:104790000C198A1823706370A37013705370937090
:1047A000484A03211378494D4B43595D171C002992
:1047B00006D1EB185A78002A02D19B78002B44D0FE
:1047C000434B1A68233A1A60FDF7CEFCFDF79EFCB6
:1047D00000283AD03F484049FBF7B4FE1E243B78FE
:1047E00003265E43FBF744FE0090FBF741FE029078
:1047F000FBF73EFE009A029BAE1932707370B070E8
:10480000013C3648FBF78DFFE4B2322003F084FF11
:10481000002CE4D1324B1C70FDF768FC0A22201CEE
:1048200006A903F039FE2F4906A809F07BF90021FB
:1048300006A80A1CFDF784FF01345A2003F06CFF20
:10484000252CEBD1284B00221A70274B1B78002B0C
:1048500015D03B7803225343ED18AF232B70FF2371
:104860006B700F23AB701D48FBF75BFF07E01F4B1E
:104870001A78002A00D07CE501221A7079E509B087
:10488000F0BDC046C046C046182D4454FB21094027
:104890000000000000806640000000000000304082
:1048A000000000000000E03F0000000000000000E9
:1048B00000000000000070408807002093FDFF1FEB
:1048C00060FDFF1F61FDFF1F88FDFF1F6C040020BE
:1048D00008040020700B002028EE00006008002073
:1048E0004CFFFF1F6EEC00001D0400205AFFFF1F4D
:1048F00010B5FCF71BF8FFF767F8FCF7B5FAFCF703
:1049000051FA114B1B78002B1CD0FFF7BDF80F4B51
:104910001B78002B16D00E4C2378002B02D1FFF70A
:1049200051F90FE0FFF784FC2378002B0AD1094BE3
:104930001B78002B04D1FDF7ADFCFEF701FD01E073
:10494000FEF7FCFB10BDC04691FDFF1F92FDFF1F4F
:104950001D04002059FFFF1F30B544B20121294A30
:10496000294B002C01DA294C00E0294C216002215E
:10497000116019600121440601D5244C00E0244C4B
:1049800021600221116019600121840601D51F4CAC
:1049900000E01F4C21600221116019600121C40652
:1049A00001D51A4C00E01A4C2160022111601960F7
:1049B0000121040701D5154C00E0154C21600221AE
:1049C000116019600121440701D5104C00E0104C22
:1049D000216002211160196002210124084201D0E6
:1049E0000A4D00E00A4D2C6001241160196002217B
:1049F000204201D0054800E00548046011601960BC
:104A000030BDC046040000F8080000F8C40000F8FB
:104A1000C80000F8006808B5002802D003685B6889
:104A2000984708BD38B5051C80690C1C183500284E
:104A300002D003681B6898470020FFF78DFF002015
:104A4000FFF78AFF0020FFF787FF0020FFF784FFB2
:104A5000A368002B62DDFF20FFF77EFF23689A78B2
:104A600000239A4205D0A37BD318FF2B00D9FF2344
:104A7000DBB2217D0022081C5843000A934202D079
:104A80004A1E9141CAB21218D0B2FFF765FF2368DF
:104A90005A7800239A4205D0637BD318FF2B00D9A4
:104AA000FF23DBB2E17C0022081C5843000A93423A
:104AB00002D04A1E9141CAB21218D0B2FFF74CFF81
:104AC00023681A7800239A4205D0237BD318FF2B42
:104AD00000D9FF23DBB2A17C0022081C5843000A46
:104AE000934202D04A1E9141CAB21218D0B2FFF7C7
:104AF00033FFE27B237BD31A2373227C637BD31A9D
:104B00006373627CA37BD31AA3731523E3562268D5
:104B1000D3182360A368013BA36099E76368DC179F
:104B2000E40EE41864110020FFF716FF0020FFF7E1
:104B300013FF0020FFF710FF0020FFF70DFF013CDF
:104B4000F1D2281CFFF766FF38BD10B50121041C07
:104B5000022003F0E3FC0121032003F0DFFC201C12
:104B60001830FFF757FF10BD002383617047FFFF28
:104B700070B51B4B07211A7801320A401A700123C5
:104B800013408B40910701D540210B4304210A4279
:104B900001D0202213431033DEB2041C0025A17C77
:104BA0000020814205D08020400006F0C3FE013085
:104BB000C0B2021C531E9A41031C7343D2B21B1293
:104BC000D318DBB2E073002B00D0013B2373002A23
:104BD00001D00138E07301350134032DDFD170BD00
:104BE0001CFFFF1F70B588B00191197801AC161C2D
:104BF0006660A660A1745978827CE1749B78051C7C
:104C00002375012A03D1201CFFF7B2FF06E0002321
:104C100063742374E373A373637323730023201CEF
:104C2000311C6375FFF7A0FF2B68281C9B69211CB2
:104C3000984708B070BD70B588B00191197801AC83
:104C4000161C6660A660A1745978827CE1749B781A
:104C5000051C2375012A03D1201CFFF789FF06E0FC
:104C6000002363742374E373A373637323730323B5
:104C7000201C311C6375FFF777FF2B68281C9B698C
:104C8000211C984708B070BD10B503F095FA0F4B82
:104C90000F4A00249C540F4A19219C540E4ADC717F
:104CA00099548D22D2009C540C4A04211A600C4B5A
:104CB0000C4A1C725C721C710B481A6002F018FEE0
:104CC0000A4B1C705C709C7010BDC04664FFFF1FD7
:104CD0003C0400003D0400006504000028E80000DA
:104CE0003C04002018E80000340400209007002055
:104CF000154B80221968D2030A431A60134B5022C5
:104D0000DA7000229A701B78114B1B78D90703D4F4
:104D1000902189000F4A02E080210F4A890011602A
:104D200080229200990701D40C4900E00C490A60E6
:104D30005A0703D4902292000A4B02E080220A4BC9
:104D400092001A607047C0463480044000600740FB
:104D50006D0B002018B0044008C004401CB0044093
:104D60000CC0044014B0044004C00440034B0222B1
:104D7000D9781142FAD0DA707047C0460060064018
:104D800010B50C4B041C1B78002B04D10A4A181CCC
:104D90001278002A0CD0094A1378202B03D901235A
:104DA0002371002004E0581C1070054A0120D154E2
:104DB00010BDC0462E080020F10700202F0800205B
:104DC000D00700207047FFFF024B1878024B1B787A
:104DD000C01A70472D0800202C080020064A0749F9
:104DE00013780978994204D9591C1170044AD05C8F
:104DF00001E00120404270472C0800202D080020CF
:104E0000F2070020054B064A1B7812789A4202D915
:104E1000044AD05C01E00120404270472C08002089
:104E20002D080020F2070020F8B50E4B071C18785B
:104E3000141C002803D10C4B1B78002B10D00B4EF8
:104E4000212335785B1B9C4202D901223A711C1C3C
:104E50000748221C40192D1908F0CFFD3570201C81
:104E6000F8BDC0462E080020F10700202F080020C2
:104E7000D0070020002303710373034BFA22920032
:104E8000083382600360704790EE00000C4B0022F4
:104E90001A700C4B40201968014319600A4B0B49EA
:104EA0009A70992292000A6009490A601F225A707A
:104EB00002229A7120225A7180229A707047C0464D
:104EC000F107002034800440006006400CA004403C
:104ED00008A0044038B53C4C1023E578EDB21D42E3
:104EE00003D140222A4004D127E0E3706B06F8D4B6
:104EF00068E004231D40354B17D000221A70344B54
:104F0000344D1B682A70934200D098472A78324B60
:104F1000002A02D1012129701A70D022A2701B78B8
:104F2000012223712D4B1A704AE001221A702C4B7A
:104F30001D70C023A370237942E0A3796021DBB206
:104F4000194060290CD120218B431F498B71254BBF
:104F50001B68002B04D024490A70214A1078984716
:104F6000A1781022184B0A4016D0012215400FD10B
:104F70001A4918480A780078904205D9501C0870E0
:104F800015498A5C1A7100E01D71D023A37017E0E7
:104F9000C0229A701B7913E014490A709A79202173
:104FA0000A439A710E4A19791378C9B21F2B07D890
:104FB00006480078002803D0581C10700C4AD154C1
:104FC0000223E37038BDC04600600640C9070020D8
:104FD000140800202F080020D007002030080020EF
:104FE0002D080020CC0700202C08002018080020E5
:104FF000F2070020044B054A490019700123137081
:10500000034A13707047C046D00700202E080020C6
:105010002F08002070B51A4C1223E370A3780E1CE1
:105020009A0602D5B423A37008E0E2782023134047
:10503000FBD1144A1370124BB0229A700025124B08
:105040001B78AB4211D9114B5B5D2371FFF78EFECC
:10505000E378DBB2DA0703D56B1E9D41A81C07E09D
:10506000DA0604D40135EDB2E9E7002000E00420BF
:10507000002E01D08023A370054B00221A7070BD52
:1050800000600640F10700202F080020D007002014
:105090002E080020F7B501932F4B151C00221A7023
:1050A0002E4B2F4C1A701222E270A278930602D572
:1050B000B423A37008E0E27820231340FBD1294AEF
:1050C0001370274BB0229A70012349001943C9B2CB
:1050D0002171FFF74BFEE0781123214E184003D0D9
:1050E0008023B370002035E0002D06D1019AA02363
:1050F000002A00D08023A3702CE0A823012D00D02B
:10510000A023B37023790026F3B20093EB1ADBB22D
:105110006F1E012B0DD9FFF729FE009BFF1AFFB26E
:10512000012F01D1A823A37023790F4A935501368B
:10513000EAE7FFF71BFEB023A37023790A4AFFB208
:10514000D355019B002B02D0054B80229A70034A55
:10515000281C1570FEBDC0462C0800202D0800201C
:1051600000600640F1070020F207002008B5C9B230
:10517000D2B20123FFF78EFF08BD08B5C9B2FFF711
:1051800039FF08BD08B50121FFF744FF08BDFFFF47
:1051900008B50248FFF76EFE08BDC0461C08002097
:1051A000F7B50C1C3C21051C06F0BAFB281C21702D
:1051B0003C2106F071FB3C21051C06F0B1FB281CCC
:1051C00061703C2106F068FB1821051C06F0A8FB65
:1051D000281CA170182106F05FFB07210090043005
:1051E00006F09EFB00260131E170371C314BFD18A3
:1051F00003232B4001930ED1281C642106F0F0FB01
:1052000000290BD1C821281C490006F0E9FB4B42BC
:1052100059416E3100E06E21FF3101E0B7214900B4
:10522000009B76189E4202D80137FFB2DEE7019B51
:10523000A771002B0ED1281C642106F0D1FB002998
:105240000BD1C821281C490006F0CAFB4B4259412A
:105250006E3100E06E21FF3101E0B7214900009B73
:10526000761A281C64219E1B06F0BAFB0F1CC8216D
:10527000281C490006F0B4FB0023D8B201280AD14B
:10528000019D1C22002D08D11D22002F05D14A426C
:105290004A411C3201E0084A9A5C964204D3013329
:1052A000B61A0C2BE9D1181C013601302671607139
:1052B000F7BDC046B2070000B0EE000038B5054D9E
:1052C000041C2B68984203D00349FFF769FF2C6048
:1052D00038BDC0463408002038080020F7B5294CF6
:1052E0008679294F7443051C284ABB18B34212DA49
:1052F000BA070ED1381C642106F072FB002906D1D2
:10530000C821381C490006F06BFB002901D1204B55
:10531000E4180137E8E71C4A6B79B618301C6421A1
:10532000019306F05DFB0F1CC821301C490006F0FC
:1053300057FB0123019A934212DA022B07D1B207DD
:1053400005D1002F01D1002901D1124A05E0124AEE
:105350000F48D218013A12784243A4180133E9E702
:10536000AB78E120000158436B783C225343C018CE
:105370002B78074AC0182B79013B5343C0180019FA
:10538000FEBDC0468033E101B20700004EF8FFFFCA
:1053900080510100803B2600B0EE0000094B022244
:1053A0001860094B82B01B68C018084B1860084B86
:1053B0001A70084B1B680193019A074B1A6002B0E0
:1053C0007047C04640080020E4FDFF1F5008002041
:1053D00044080020780A00204C080020F7B5174C3C
:1053E000174923680A6817485E1C00680190FA2074
:1053F0008000019D17181448AD1A854202D9331C4C
:105400003A1CF0E7114D0A602A6823609A4213D8CB
:105410000F4B1B68002B0FD09847002802D0FFF7D6
:10542000BDFF09E00B4B20681B681B182B600A4B63
:105430001A78511E8A411A702068FEBD400800206B
:105440004C080020780A0020E703000050080020E4
:1054500048080020E4FDFF1F4408002008B5FFF7BE
:10546000BDFFFFF72BFF014B987808BD38080020DF
:1054700008B5FFF7B3FFFFF721FF014B587808BDD0
:105480003808002008B5FFF7A9FFFFF717FF014B09
:10549000187808BD3808002008B5FFF79FFF014BBA
:1054A000187808BD4408002008B5044B1860044B68
:1054B0001A68044B1A60FFF791FF08BD48080020E6
:1054C0004008002050080020034B1860034B1B6865
:1054D000C018034B18607047E4FDFF1F4008002010
:1054E0005008002038B50A21041C06F0D5F90A211D
:1054F0000501201C06F014FA6D18E8B238BD030946
:105500000A2253430F2210401818C0B27047FFFF01
:1055100008B50248FFF7BAFC08BDC0461C080020C9
:1055200038B5244C051C6821201CFFF726FE0021FD
:10553000201CFFF725FC2878FFF7D4FF011C201C56
:10554000FFF71EFC6878FFF7CDFF011C201CFFF75A
:1055500017FCA878FFF7C6FF011C201CFFF710FC02
:10556000E878FFF7BFFF011C201CFFF709FC287932
:10557000FFF7B8FF011C201CFFF702FC6879FFF75A
:10558000B1FF011C201CFFF7FBFBA8791E38C0B23D
:10559000FFF7A8FF011C201CFFF7F2FB201CFFF700
:1055A000F1FD054B002801D0002000E0012018701B
:1055B00038BDC0461C0800205408002070B52D4C92
:1055C0006821051C201CFFF7D8FD0021201CFFF7D7
:1055D000D7FB201CFFF7D6FD274B061E02D000206C
:1055E000187045E001221A7068210722201CFFF77D
:1055F000BDFD201CFFF7E8FB031C301C062B37DD2C
:10560000201CFFF7EBFB061C7F203040FFF777FFE5
:105610002870201CFFF7E2FBC0B2FFF770FF687034
:10562000201CFFF7DBFB3F231840FFF768FFA87043
:10563000201CFFF7D3FBC0B2FFF761FFE870201C0E
:10564000FFF7CCFBC0B2FFF75AFF2871201CFFF711
:10565000C5FBC0B2FFF753FF6871201CFFF7BEFB0C
:10566000C0B2FFF74CFF1E30A871F043C0B2C009B2
:1056700070BDC0461C0800205408002007B56846CD
:10568000FFF79CFF031C0020834202D06846FFF70F
:1056900025FE0EBDF7B50E1C051C5421580700D47D
:1056A00050210820034200D00143002A01D10123E8
:1056B000194329700024124F12483A5D6300C15A01
:1056C0001148019206F036F90E4F864203D3019A33
:1056D00000246A7006E001341E2CECD1F7E7013497
:1056E0001E2C09D0064B09481B5D01936300F95A33
:1056F00006F020F98642F2D30198A870F7BDC046A3
:105700006CEE000030EE000000366E01006CDC0232
:1057100010B5041CFFF7BEFF201C10BD044B987190
:105720001A7852B2002AFBDA014B9879C0B270475E
:105730000060074008B5FF20FFF7F0FF08BDFFFF3E
:1057400037B501AC031C124D201C042B01D11149AB
:1057500016E0002B02D11049012213E0052B01D1E4
:105760000E490DE0012B02D10D491A1C09E0062B50
:1057700001D10C4904E0022B01D10B4900E00B4997
:1057800001220023FFF7C4FF63786B7037BDC0466A
:1057900000600740001BB70000093D0080841E0028
:1057A00040420F0020A1070090D0030048E801000C
:1057B00008B50121007902F07FFEFF20FFF7AEFF60
:1057C00008BDFFFF70B514490125CB788279041C10
:1057D000AB4340200343CB70CB780C26B343034349
:1057E000CB700423022A0FD90023042A0CD90523E5
:1057F000082A09D92B1C102A06D90623202A03D9E6
:1058000090429B415B420233D8B2FFF799FF207967
:10581000002102F051FE70BD00600740F0B51C4F42
:1058200085B03B68041C0293029E0D1C0192FFF799
:1058300081FFE071FF280BD13B680393039AB3B259
:1058400092B2D21A96235B009A42F0DD112305E052
:105850000F23FE2802D1019BEE1805E0201C637186
:10586000FFF7A6FF002011E0B54205D0FF20FFF7AB
:1058700055FF28700135F7E70023E371FFF75AFF62
:10588000FFF758FF201CFFF793FF012005B0F0BD84
:10589000780A002038B50D1C041CFFF793FF802206
:1058A000291C201C9200FFF7B9FF38BD73B50B4BC4
:1058B0000D1C1A681E1C0092009CFFF73BFFFF287E
:1058C00009D03368A2B20193019B9BB29B1AAB42F1
:1058D000F3DB002000E0012076BDC046780A0020FE
:1058E00037B50C1C0192051CFFF76CFF962189004F
:1058F000281CFFF7DBFF40202043FFF70FFF6B461C
:10590000D879FFF70BFF6B469879FFF707FF6B46D7
:105910005879FFF703FF01AB1878FFF7FFFE8720E8
:10592000002C00D19520FFF7F9FE0C2C01D1FFF7D8
:1059300001FF0024FFF7FEFE43B2E871002B04DAFA
:10594000FF2C02D00134E4B2F4E73EBDF0B5544E72
:1059500087B001930023037243713368027102938D
:10596000041C0160101C0121029D02F0D7FD20796A
:10597000012102F0A1FDFFF7BBF98023A371494B80
:105980000122D9780C20914340221143D970D97853
:105990000A2781430A43DA700320FFF7D1FE013F53
:1059A000FF20FFB2FFF7BAFE002FF8D10021201C24
:1059B0000A1CFFF795FF01280BD033680393039A65
:1059C000ABB292B2D21AFA23DB009A42EEDD012387
:1059D00049E0D522201C08215200FFF781FF05284D
:1059E00001D101230AE00427FFF7A4FE013FFFB223
:1059F000E071002FF8D1AA2807D102232372277A59
:105A0000023F7B425F41BF070BE033680493049A77
:105A1000ABB292B2D21AFA23DB009A42D9DD02234A
:105A200021E037210022201CFFF75AFF3A1C201CDE
:105A30002921FFF755FF021E0BD033680593059A05
:105A4000ABB292B2D21AFA23DB009A42E9DD0A2302
:105A500009E0237A022B1AD1201C3A21FFF740FFDC
:105A6000002806D00823201C6371FFF7A1FE002048
:105A700013E0FFF75FFEC0231840984201D10323D3
:105A80002372FFF757FEFFF755FEFFF753FE201C6A
:105A9000FFF78EFE019B0120A37107B0F0BDC04649
:105AA000780A00200060074038B5151C027A041CF3
:105AB0000B1C032A00D04B02201C11211A1CFFF7DB
:105AC0000FFF002806D00423201C6371FFF770FE2F
:105AD000002005E08022201C291C9200FFF79EFE7A
